{
  "contractName": "MagenVault",
  "abi": [
    {
      "inputs": [
        {
          "internalType": "address",
          "name": "_usdc",
          "type": "address"
        },
        {
          "internalType": "address",
          "name": "_tokenSI",
          "type": "address"
        },
        {
          "internalType": "address",
          "name": "_tokenNO",
          "type": "address"
        }
      ],
      "stateMutability": "nonpayable",
      "type": "constructor"
    },
    {
      "inputs": [
        {
          "internalType": "address",
          "name": "owner",
          "type": "address"
        }
      ],
      "name": "OwnableInvalidOwner",
      "type": "error"
    },
    {
      "inputs": [
        {
          "internalType": "address",
          "name": "account",
          "type": "address"
        }
      ],
      "name": "OwnableUnauthorizedAccount",
      "type": "error"
    },
    {
      "anonymous": false,
      "inputs": [
        {
          "indexed": true,
          "internalType": "address",
          "name": "user",
          "type": "address"
        },
        {
          "indexed": false,
          "internalType": "uint256",
          "name": "amount",
          "type": "uint256"
        }
      ],
      "name": "Burned",
      "type": "event"
    },
    {
      "anonymous": false,
      "inputs": [
        {
          "indexed": true,
          "internalType": "address",
          "name": "user",
          "type": "address"
        },
        {
          "indexed": false,
          "internalType": "uint256",
          "name": "payout",
          "type": "uint256"
        }
      ],
      "name": "Claimed",
      "type": "event"
    },
    {
      "anonymous": false,
      "inputs": [
        {
          "indexed": true,
          "internalType": "address",
          "name": "user",
          "type": "address"
        },
        {
          "indexed": false,
          "internalType": "uint256",
          "name": "amount",
          "type": "uint256"
        }
      ],
      "name": "Minted",
      "type": "event"
    },
    {
      "anonymous": false,
      "inputs": [
        {
          "indexed": true,
          "internalType": "address",
          "name": "previousOwner",
          "type": "address"
        },
        {
          "indexed": true,
          "internalType": "address",
          "name": "newOwner",
          "type": "address"
        }
      ],
      "name": "OwnershipTransferred",
      "type": "event"
    },
    {
      "anonymous": false,
      "inputs": [
        {
          "indexed": false,
          "internalType": "uint256",
          "name": "scale",
          "type": "uint256"
        }
      ],
      "name": "Resolved",
      "type": "event"
    },
    {
      "inputs": [],
      "name": "outcomeScale",
      "outputs": [
        {
          "internalType": "uint256",
          "name": "",
          "type": "uint256"
        }
      ],
      "stateMutability": "view",
      "type": "function"
    },
    {
      "inputs": [],
      "name": "owner",
      "outputs": [
        {
          "internalType": "address",
          "name": "",
          "type": "address"
        }
      ],
      "stateMutability": "view",
      "type": "function"
    },
    {
      "inputs": [],
      "name": "renounceOwnership",
      "outputs": [],
      "stateMutability": "nonpayable",
      "type": "function"
    },
    {
      "inputs": [],
      "name": "resolved",
      "outputs": [
        {
          "internalType": "bool",
          "name": "",
          "type": "bool"
        }
      ],
      "stateMutability": "view",
      "type": "function"
    },
    {
      "inputs": [],
      "name": "tokenNO",
      "outputs": [
        {
          "internalType": "contract OutcomeToken",
          "name": "",
          "type": "address"
        }
      ],
      "stateMutability": "view",
      "type": "function"
    },
    {
      "inputs": [],
      "name": "tokenSI",
      "outputs": [
        {
          "internalType": "contract OutcomeToken",
          "name": "",
          "type": "address"
        }
      ],
      "stateMutability": "view",
      "type": "function"
    },
    {
      "inputs": [
        {
          "internalType": "address",
          "name": "newOwner",
          "type": "address"
        }
      ],
      "name": "transferOwnership",
      "outputs": [],
      "stateMutability": "nonpayable",
      "type": "function"
    },
    {
      "inputs": [],
      "name": "usdc",
      "outputs": [
        {
          "internalType": "contract IERC20",
          "name": "",
          "type": "address"
        }
      ],
      "stateMutability": "view",
      "type": "function"
    },
    {
      "inputs": [
        {
          "internalType": "uint256",
          "name": "amount",
          "type": "uint256"
        }
      ],
      "name": "mint",
      "outputs": [],
      "stateMutability": "nonpayable",
      "type": "function"
    },
    {
      "inputs": [
        {
          "internalType": "uint256",
          "name": "amount",
          "type": "uint256"
        }
      ],
      "name": "burn",
      "outputs": [],
      "stateMutability": "nonpayable",
      "type": "function"
    },
    {
      "inputs": [
        {
          "internalType": "uint256",
          "name": "_scale",
          "type": "uint256"
        }
      ],
      "name": "resolve",
      "outputs": [],
      "stateMutability": "nonpayable",
      "type": "function"
    },
    {
      "inputs": [
        {
          "internalType": "uint256",
          "name": "amount",
          "type": "uint256"
        },
        {
          "internalType": "bool",
          "name": "isSI",
          "type": "bool"
        }
      ],
      "name": "claim",
      "outputs": [],
      "stateMutability": "nonpayable",
      "type": "function"
    }
  ],
  "bytecode": "0x608060405234801561000f575f80fd5b50604051610c51380380610c5183398101604081905261002e91610109565b338061005357604051631e4fbdf760e01b81525f600482015260240160405180910390fd5b61005c8161009f565b50600180546001600160a01b039485166001600160a01b031991821617909155600280549385169382169390931790925560038054919093169116179055610149565b5f80546001600160a01b038381166001600160a01b0319831681178455604051919092169283917f8be0079c531659141344cd1fd0a4f28419497f9722a3daafe3b4186f6b6457e09190a35050565b80516001600160a01b0381168114610104575f80fd5b919050565b5f805f6060848603121561011b575f80fd5b610124846100ee565b9250610132602085016100ee565b9150610140604085016100ee565b90509250925092565b610afb806101565f395ff3fe608060405234801561000f575f80fd5b50600436106100b1575f3560e01c806371baa1af1161006e57806371baa1af1461014c57806379ed76661461015f5780638da5cb5b14610176578063a0712d6814610186578063f2fde38b14610199578063ff1a277c146101ac575f80fd5b80631c09b721146100b55780633e413bee146100e55780633f6fa655146100f857806342966c681461011c5780634f896d4f14610131578063715018a614610144575b5f80fd5b6002546100c8906001600160a01b031681565b6040516001600160a01b0390911681526020015b60405180910390f35b6001546100c8906001600160a01b031681565b60035461010c90600160a01b900460ff1681565b60405190151581526020016100dc565b61012f61012a3660046109c8565b6101bf565b005b61012f61013f3660046109c8565b6103ba565b61012f6104ac565b61012f61015a3660046109ec565b6104bf565b61016860045481565b6040519081526020016100dc565b5f546001600160a01b03166100c8565b61012f6101943660046109c8565b610719565b61012f6101a7366004610a1a565b610910565b6003546100c8906001600160a01b031681565b600354600160a01b900460ff16156102105760405162461bcd60e51b815260206004820152600f60248201526e13585c9ad95d081c995cdbdb1d9959608a1b60448201526064015b60405180910390fd5b600254604051632770a7eb60e21b8152336004820152602481018390526001600160a01b0390911690639dc29fac906044015f604051808303815f87803b158015610259575f80fd5b505af115801561026b573d5f803e3d5ffd5b5050600354604051632770a7eb60e21b8152336004820152602481018590526001600160a01b039091169250639dc29fac91506044015f604051808303815f87803b1580156102b8575f80fd5b505af11580156102ca573d5f803e3d5ffd5b505060015460405163a9059cbb60e01b8152336004820152602481018590526001600160a01b03909116925063a9059cbb91506044016020604051808303815f875af115801561031c573d5f803e3d5ffd5b505050506040513d601f19601f820116820180604052508101906103409190610a47565b6103815760405162461bcd60e51b81526020600482015260126024820152711554d110c81c995d1d5c9b8819985a5b195960721b6044820152606401610207565b60405181815233907f696de425f79f4a40bc6d2122ca50507f0efbeabbff86a84871b7196ab8ea8df7906020015b60405180910390a250565b6103c261094d565b600354600160a01b900460ff161561040f5760405162461bcd60e51b815260206004820152601060248201526f105b1c9958591e481c995cdbdb1d995960821b6044820152606401610207565b670de0b6b3a76400008111156104575760405162461bcd60e51b815260206004820152600d60248201526c496e76616c6964207363616c6560981b6044820152606401610207565b60048190556003805460ff60a01b1916600160a01b1790556040517f148a25ee2a7671350ab878ff183447de8ae5afa2ee0ae7d5ee1ad6b25c4868c2906104a19083815260200190565b60405180910390a150565b6104b461094d565b6104bd5f610979565b565b600354600160a01b900460ff1661050e5760405162461bcd60e51b815260206004820152601360248201527213585c9ad95d081b9bdd081c995cdbdb1d9959606a1b6044820152606401610207565b5f811561059c57600254604051632770a7eb60e21b8152336004820152602481018590526001600160a01b0390911690639dc29fac906044015f604051808303815f87803b15801561055e575f80fd5b505af1158015610570573d5f803e3d5ffd5b50505050670de0b6b3a76400006004548461058b9190610a76565b6105959190610a93565b9050610631565b600354604051632770a7eb60e21b8152336004820152602481018590526001600160a01b0390911690639dc29fac906044015f604051808303815f87803b1580156105e5575f80fd5b505af11580156105f7573d5f803e3d5ffd5b50505050670de0b6b3a7640000600454670de0b6b3a764000061061a9190610ab2565b6106249085610a76565b61062e9190610a93565b90505b60015460405163a9059cbb60e01b8152336004820152602481018390526001600160a01b039091169063a9059cbb906044016020604051808303815f875af115801561067f573d5f803e3d5ffd5b505050506040513d601f19601f820116820180604052508101906106a39190610a47565b6106df5760405162461bcd60e51b815260206004820152600d60248201526c14185e5bdd5d0819985a5b1959609a1b6044820152606401610207565b60405181815233907fd8138f8a3f377c5259ca548e70e4c2de94f129f5a11036a15b69513cba2b426a9060200160405180910390a2505050565b600354600160a01b900460ff16156107655760405162461bcd60e51b815260206004820152600f60248201526e13585c9ad95d081c995cdbdb1d9959608a1b6044820152606401610207565b6001546040516323b872dd60e01b8152336004820152306024820152604481018390526001600160a01b03909116906323b872dd906064016020604051808303815f875af11580156107b9573d5f803e3d5ffd5b505050506040513d601f19601f820116820180604052508101906107dd9190610a47565b6108205760405162461bcd60e51b81526020600482015260146024820152731554d110c81d1c985b9cd9995c8819985a5b195960621b6044820152606401610207565b6002546040516340c10f1960e01b8152336004820152602481018390526001600160a01b03909116906340c10f19906044015f604051808303815f87803b158015610869575f80fd5b505af115801561087b573d5f803e3d5ffd5b50506003546040516340c10f1960e01b8152336004820152602481018590526001600160a01b0390911692506340c10f1991506044015f604051808303815f87803b1580156108c8575f80fd5b505af11580156108da573d5f803e3d5ffd5b50506040518381523392507f30385c845b448a36257a6a1716e6ad2e1bc2cbe333cde1e69fe849ad6511adfe91506020016103af565b61091861094d565b6001600160a01b03811661094157604051631e4fbdf760e01b81525f6004820152602401610207565b61094a81610979565b50565b5f546001600160a01b031633146104bd5760405163118cdaa760e01b8152336004820152602401610207565b5f80546001600160a01b038381166001600160a01b0319831681178455604051919092169283917f8be0079c531659141344cd1fd0a4f28419497f9722a3daafe3b4186f6b6457e09190a35050565b5f602082840312156109d8575f80fd5b5035919050565b801515811461094a575f80fd5b5f80604083850312156109fd575f80fd5b823591506020830135610a0f816109df565b809150509250929050565b5f60208284031215610a2a575f80fd5b81356001600160a01b0381168114610a40575f80fd5b9392505050565b5f60208284031215610a57575f80fd5b8151610a40816109df565b634e487b7160e01b5f52601160045260245ffd5b8082028115828204841417610a8d57610a8d610a62565b92915050565b5f82610aad57634e487b7160e01b5f52601260045260245ffd5b500490565b81810381811115610a8d57610a8d610a6256fea26469706673582212200ef825dd47acbcdf7b1910642ce8e9aa45bcf0b7fdfbcbcd33655823b5c3b83364736f6c63430008150033",
  "immutableReferences": {},
  "source": "// SPDX-License-Identifier: MIT\r\npragma solidity ^0.8.0;\r\n\r\nimport \"@openzeppelin/contracts/token/ERC20/IERC20.sol\";\r\nimport \"@openzeppelin/contracts/access/Ownable.sol\";\r\nimport \"./OutcomeToken.sol\";\r\n\r\ncontract MagenVault is Ownable {\r\n    IERC20 public usdc;\r\n    OutcomeToken public tokenSI;\r\n    OutcomeToken public tokenNO;\r\n\r\n    bool public resolved;\r\n    uint256 public outcomeScale; // Scaled by 1e18, e.g. 0.8 * 1e18 for 80% SI\r\n\r\n    event Minted(address indexed user, uint256 amount);\r\n    event Burned(address indexed user, uint256 amount);\r\n    event Resolved(uint256 scale);\r\n    event Claimed(address indexed user, uint256 payout);\r\n\r\n    constructor(address _usdc, address _tokenSI, address _tokenNO) Ownable(msg.sender) {\r\n        usdc = IERC20(_usdc);\r\n        tokenSI = OutcomeToken(_tokenSI);\r\n        tokenNO = OutcomeToken(_tokenNO);\r\n    }\r\n\r\n    function mint(uint256 amount) external {\r\n        require(!resolved, \"Market resolved\");\r\n        require(usdc.transferFrom(msg.sender, address(this), amount), \"USDC transfer failed\");\r\n        \r\n        tokenSI.mint(msg.sender, amount);\r\n        tokenNO.mint(msg.sender, amount);\r\n\r\n        emit Minted(msg.sender, amount);\r\n    }\r\n\r\n    function burn(uint256 amount) external {\r\n        require(!resolved, \"Market resolved\");\r\n        \r\n        tokenSI.burn(msg.sender, amount);\r\n        tokenNO.burn(msg.sender, amount);\r\n        require(usdc.transfer(msg.sender, amount), \"USDC return failed\");\r\n\r\n        emit Burned(msg.sender, amount);\r\n    }\r\n\r\n    function resolve(uint256 _scale) external onlyOwner {\r\n        require(!resolved, \"Already resolved\");\r\n        require(_scale <= 1e18, \"Invalid scale\");\r\n        outcomeScale = _scale;\r\n        resolved = true;\r\n        emit Resolved(_scale);\r\n    }\r\n\r\n    function claim(uint256 amount, bool isSI) external {\r\n        require(resolved, \"Market not resolved\");\r\n        \r\n        uint256 payout = 0;\r\n        if (isSI) {\r\n            tokenSI.burn(msg.sender, amount);\r\n            // payout = amount * scale\r\n            payout = (amount * outcomeScale) / 1e18;\r\n        } else {\r\n            tokenNO.burn(msg.sender, amount);\r\n            // payout = amount * (1 - scale)\r\n            payout = (amount * (1e18 - outcomeScale)) / 1e18;\r\n        }\r\n\r\n        require(usdc.transfer(msg.sender, payout), \"Payout failed\");\r\n        emit Claimed(msg.sender, payout);\r\n    }\r\n}\r\n",
  "sourcePath": "C:\\Users\\hanti\\Desktop\\Magen-Protocol\\contracts\\MagenVault.sol",
  "compiler": {
    "name": "solc",
    "version": "0.8.21+commit.d9974bed.Emscripten.clang"
  },
  "schemaVersion": "3.4.16",
  "updatedAt": "2026-02-10T19:10:52.179Z",
  "devdoc": {
    "errors": {
      "OwnableInvalidOwner(address)": [
        {
          "details": "The owner is not a valid owner account. (eg. `address(0)`)"
        }
      ],
      "OwnableUnauthorizedAccount(address)": [
        {
          "details": "The caller account is not authorized to perform an operation."
        }
      ]
    },
    "kind": "dev",
    "methods": {
      "owner()": {
        "details": "Returns the address of the current owner."
      },
      "renounceOwnership()": {
        "details": "Leaves the contract without owner. It will not be possible to call `onlyOwner` functions. Can only be called by the current owner. NOTE: Renouncing ownership will leave the contract without an owner, thereby disabling any functionality that is only available to the owner."
      },
      "transferOwnership(address)": {
        "details": "Transfers ownership of the contract to a new account (`newOwner`). Can only be called by the current owner."
      }
    },
    "version": 1
  },
  "userdoc": {
    "kind": "user",
    "methods": {},
    "version": 1
  }
}