{
  "contractName": "MagenRouter",
  "abi": [
    {
      "inputs": [
        {
          "internalType": "address",
          "name": "_vault",
          "type": "address"
        },
        {
          "internalType": "address",
          "name": "_uniswapRouter",
          "type": "address"
        },
        {
          "internalType": "address",
          "name": "_pair",
          "type": "address"
        },
        {
          "internalType": "address",
          "name": "_usdc",
          "type": "address"
        },
        {
          "internalType": "address",
          "name": "_tokenSI",
          "type": "address"
        },
        {
          "internalType": "address",
          "name": "_tokenNO",
          "type": "address"
        }
      ],
      "stateMutability": "nonpayable",
      "type": "constructor"
    },
    {
      "inputs": [],
      "name": "pair",
      "outputs": [
        {
          "internalType": "address",
          "name": "",
          "type": "address"
        }
      ],
      "stateMutability": "view",
      "type": "function"
    },
    {
      "inputs": [],
      "name": "tokenNO",
      "outputs": [
        {
          "internalType": "contract IERC20",
          "name": "",
          "type": "address"
        }
      ],
      "stateMutability": "view",
      "type": "function"
    },
    {
      "inputs": [],
      "name": "tokenSI",
      "outputs": [
        {
          "internalType": "contract IERC20",
          "name": "",
          "type": "address"
        }
      ],
      "stateMutability": "view",
      "type": "function"
    },
    {
      "inputs": [],
      "name": "uniswapRouter",
      "outputs": [
        {
          "internalType": "contract IUniswapV2Router02",
          "name": "",
          "type": "address"
        }
      ],
      "stateMutability": "view",
      "type": "function"
    },
    {
      "inputs": [],
      "name": "usdc",
      "outputs": [
        {
          "internalType": "contract IERC20",
          "name": "",
          "type": "address"
        }
      ],
      "stateMutability": "view",
      "type": "function"
    },
    {
      "inputs": [],
      "name": "vault",
      "outputs": [
        {
          "internalType": "contract MagenVault",
          "name": "",
          "type": "address"
        }
      ],
      "stateMutability": "view",
      "type": "function"
    },
    {
      "inputs": [
        {
          "internalType": "uint256",
          "name": "usdcAmount",
          "type": "uint256"
        }
      ],
      "name": "addLiquidityZap",
      "outputs": [
        {
          "internalType": "uint256",
          "name": "liquidity",
          "type": "uint256"
        }
      ],
      "stateMutability": "nonpayable",
      "type": "function"
    },
    {
      "inputs": [
        {
          "internalType": "uint256",
          "name": "amount",
          "type": "uint256"
        },
        {
          "internalType": "uint256",
          "name": "",
          "type": "uint256"
        }
      ],
      "name": "initialize",
      "outputs": [],
      "stateMutability": "nonpayable",
      "type": "function"
    },
    {
      "inputs": [
        {
          "internalType": "uint256",
          "name": "usdcAmount",
          "type": "uint256"
        }
      ],
      "name": "buySI",
      "outputs": [],
      "stateMutability": "nonpayable",
      "type": "function"
    },
    {
      "inputs": [
        {
          "internalType": "uint256",
          "name": "tokenAmount",
          "type": "uint256"
        }
      ],
      "name": "sellSI",
      "outputs": [],
      "stateMutability": "nonpayable",
      "type": "function"
    },
    {
      "inputs": [
        {
          "internalType": "uint256",
          "name": "tokenAmount",
          "type": "uint256"
        }
      ],
      "name": "sellNO",
      "outputs": [],
      "stateMutability": "nonpayable",
      "type": "function"
    },
    {
      "inputs": [
        {
          "internalType": "uint256",
          "name": "usdcAmount",
          "type": "uint256"
        }
      ],
      "name": "buyNO",
      "outputs": [],
      "stateMutability": "nonpayable",
      "type": "function"
    }
  ],
  "bytecode": "0x608060405234801562000010575f80fd5b5060405162001b5738038062001b578339810160408190526200003391620000c1565b5f80546001600160a01b03199081166001600160a01b03988916179091556001805482169688169690961790955560028054861694871694909417909355600380548516928616929092179091556004805484169185169190911790556005805490921692169190911790556200013e565b80516001600160a01b0381168114620000bc575f80fd5b919050565b5f805f805f8060c08789031215620000d7575f80fd5b620000e287620000a5565b9550620000f260208801620000a5565b94506200010260408801620000a5565b93506200011260608801620000a5565b92506200012260808801620000a5565b91506200013260a08801620000a5565b90509295509295509295565b611a0b806200014c5f395ff3fe608060405234801561000f575f80fd5b50600436106100b1575f3560e01c80636ef27a631161006e5780636ef27a6314610154578063735de9f714610167578063a8aa1b311461017a578063e4a301161461018d578063fbfa77cf146101a0578063ff1a277c146101b2575f80fd5b80631c09b721146100b557806336c37fff146100e55780633e413bee146100fa5780633ffc1be41461010d57806341abb2e61461012e5780636ceec57014610141575b5f80fd5b6004546100c8906001600160a01b031681565b6040516001600160a01b0390911681526020015b60405180910390f35b6100f86100f33660046115df565b6101c5565b005b6003546100c8906001600160a01b031681565b61012061011b3660046115df565b6105fb565b6040519081526020016100dc565b6100f861013c3660046115df565b6109fd565b6100f861014f3660046115df565b61104d565b6100f86101623660046115df565b611431565b6001546100c8906001600160a01b031681565b6002546100c8906001600160a01b031681565b6100f861019b3660046115f6565b611479565b5f546100c8906001600160a01b031681565b6005546100c8906001600160a01b031681565b6003546040516323b872dd60e01b81526001600160a01b03909116906323b872dd906101f990339030908690600401611616565b6020604051808303815f875af1158015610215573d5f803e3d5ffd5b505050506040513d601f19601f82011682018060405250810190610239919061163a565b61025e5760405162461bcd60e51b815260040161025590611660565b60405180910390fd5b6003545f5460405163095ea7b360e01b81526001600160a01b039283169263095ea7b39261029392911690859060040161168e565b6020604051808303815f875af11580156102af573d5f803e3d5ffd5b505050506040513d601f19601f820116820180604052508101906102d3919061163a565b505f5460405163140e25ad60e31b8152600481018390526001600160a01b039091169063a0712d68906024015f604051808303815f87803b158015610316575f80fd5b505af1158015610328573d5f803e3d5ffd5b50506005546040516370a0823160e01b81523060048201525f93506001600160a01b0390911691506370a0823190602401602060405180830381865afa158015610374573d5f803e3d5ffd5b505050506040513d601f19601f8201168201806040525081019061039891906116a7565b60055460015460405163095ea7b360e01b81529293506001600160a01b039182169263095ea7b3926103d0921690859060040161168e565b6020604051808303815f875af11580156103ec573d5f803e3d5ffd5b505050506040513d601f19601f82011682018060405250810190610410919061163a565b506040805160028082526060820183525f92602083019080368337505060055482519293506001600160a01b0316918391505f90610450576104506116d2565b6001600160a01b039283166020918202929092010152600454825191169082906001908110610481576104816116d2565b6001600160a01b039283166020918202929092010152600154166338ed1739835f84306104b04261012c6116fa565b6040518663ffffffff1660e01b81526004016104d0959493929190611713565b5f604051808303815f875af11580156104eb573d5f803e3d5ffd5b505050506040513d5f823e601f3d908101601f191682016040526105129190810190611782565b50600480546040516370a0823160e01b815230928101929092525f916001600160a01b03909116906370a0823190602401602060405180830381865afa15801561055e573d5f803e3d5ffd5b505050506040513d601f19601f8201168201806040525081019061058291906116a7565b6004805460405163a9059cbb60e01b81529293506001600160a01b03169163a9059cbb916105b491339186910161168e565b6020604051808303815f875af11580156105d0573d5f803e3d5ffd5b505050506040513d601f19601f820116820180604052508101906105f4919061163a565b5050505050565b6003546040516323b872dd60e01b81525f916001600160a01b0316906323b872dd9061062f90339030908790600401611616565b6020604051808303815f875af115801561064b573d5f803e3d5ffd5b505050506040513d601f19601f8201168201806040525081019061066f919061163a565b61068b5760405162461bcd60e51b815260040161025590611660565b6003545f5460405163095ea7b360e01b81526001600160a01b039283169263095ea7b3926106c092911690869060040161168e565b6020604051808303815f875af11580156106dc573d5f803e3d5ffd5b505050506040513d601f19601f82011682018060405250810190610700919061163a565b505f5460405163140e25ad60e31b8152600481018490526001600160a01b039091169063a0712d68906024015f604051808303815f87803b158015610743575f80fd5b505af1158015610755573d5f803e3d5ffd5b5050600480546040516370a0823160e01b815230928101929092525f93506001600160a01b031691506370a0823190602401602060405180830381865afa1580156107a2573d5f803e3d5ffd5b505050506040513d601f19601f820116820180604052508101906107c691906116a7565b6005546040516370a0823160e01b81523060048201529192505f916001600160a01b03909116906370a0823190602401602060405180830381865afa158015610811573d5f803e3d5ffd5b505050506040513d601f19601f8201168201806040525081019061083591906116a7565b6004805460015460405163095ea7b360e01b81529394506001600160a01b039182169363095ea7b39361086e939092169187910161168e565b6020604051808303815f875af115801561088a573d5f803e3d5ffd5b505050506040513d601f19601f820116820180604052508101906108ae919061163a565b5060055460015460405163095ea7b360e01b81526001600160a01b039283169263095ea7b3926108e592911690859060040161168e565b6020604051808303815f875af1158015610901573d5f803e3d5ffd5b505050506040513d601f19601f82011682018060405250810190610925919061163a565b506001546004546005546001600160a01b039283169263e8e33700928116911685855f80336109564261012c6116fa565b60405160e08a901b6001600160e01b03191681526001600160a01b039889166004820152968816602488015260448701959095526064860193909352608485019190915260a484015290921660c482015260e4810191909152610104016060604051808303815f875af11580156109cf573d5f803e3d5ffd5b505050506040513d601f19601f820116820180604052508101906109f3919061183b565b9695505050505050565b5f8111610a395760405162461bcd60e51b815260206004820152600a6024820152690416d6f756e74203e20360b41b6044820152606401610255565b600480546040516323b872dd60e01b81526001600160a01b03909116916323b872dd91610a6c9133913091879101611616565b6020604051808303815f875af1158015610a88573d5f803e3d5ffd5b505050506040513d601f19601f82011682018060405250810190610aac919061163a565b610aea5760405162461bcd60e51b815260206004820152600f60248201526e151c985b9cd9995c8819985a5b1959608a1b6044820152606401610255565b5f8060025f9054906101000a90046001600160a01b03166001600160a01b0316630902f1ac6040518163ffffffff1660e01b8152600401606060405180830381865afa158015610b3c573d5f803e3d5ffd5b505050506040513d601f19601f82011682018060405250810190610b609190611881565b50915091505f60025f9054906101000a90046001600160a01b03166001600160a01b0316630dfe16816040518163ffffffff1660e01b8152600401602060405180830381865afa158015610bb6573d5f803e3d5ffd5b505050506040513d601f19601f82011682018060405250810190610bda91906118cd565b6004549091505f9081906001600160a01b03808516911614610bfd578385610c00565b84845b6001600160701b0391821693501690505f8282888381610c2085856118f3565b610c2a919061191a565b90505f610c378584611940565b610c409061196f565b90505f610c4e826004611940565b610c588480611940565b610c62919061191a565b90505f610c6e82611487565b90505f81610c7b8661196f565b610c8591906118f3565b9050610c9260028261199d565b6004805460015460405163095ea7b360e01b8152939c506001600160a01b039182169b5063095ea7b39a50610cd399501696508a955001925061168e915050565b6020604051808303815f875af1158015610cef573d5f803e3d5ffd5b505050506040513d601f19601f82011682018060405250810190610d13919061163a565b506040805160028082526060820183525f92602083019080368337505060045482519293506001600160a01b0316918391505f90610d5357610d536116d2565b6001600160a01b039283166020918202929092010152600554825191169082906001908110610d8457610d846116d2565b6001600160a01b039283166020918202929092010152600154166338ed1739835f8430610db34261012c6116fa565b6040518663ffffffff1660e01b8152600401610dd3959493929190611713565b5f604051808303815f875af1158015610dee573d5f803e3d5ffd5b505050506040513d5f823e601f3d908101601f19168201604052610e159190810190611782565b50600480546040516370a0823160e01b815230928101929092525f916001600160a01b03909116906370a0823190602401602060405180830381865afa158015610e61573d5f803e3d5ffd5b505050506040513d601f19601f82011682018060405250810190610e8591906116a7565b6005546040516370a0823160e01b81523060048201529192505f916001600160a01b03909116906370a0823190602401602060405180830381865afa158015610ed0573d5f803e3d5ffd5b505050506040513d601f19601f82011682018060405250810190610ef491906116a7565b90505f818310610f045781610f06565b825b5f54604051630852cd8d60e31b8152600481018390529192506001600160a01b0316906342966c68906024015f604051808303815f87803b158015610f49575f80fd5b505af1158015610f5b573d5f803e3d5ffd5b50506003546040516370a0823160e01b81523060048201525f93506001600160a01b0390911691506370a0823190602401602060405180830381865afa158015610fa7573d5f803e3d5ffd5b505050506040513d601f19601f82011682018060405250810190610fcb91906116a7565b60035460405163a9059cbb60e01b81529192506001600160a01b03169063a9059cbb90610ffe903390859060040161168e565b6020604051808303815f875af115801561101a573d5f803e3d5ffd5b505050506040513d601f19601f8201168201806040525081019061103e919061163a565b50505050505050505050505050565b6003546040516323b872dd60e01b81526001600160a01b03909116906323b872dd9061108190339030908690600401611616565b6020604051808303815f875af115801561109d573d5f803e3d5ffd5b505050506040513d601f19601f820116820180604052508101906110c1919061163a565b6110dd5760405162461bcd60e51b815260040161025590611660565b6003545f5460405163095ea7b360e01b81526001600160a01b039283169263095ea7b39261111292911690859060040161168e565b6020604051808303815f875af115801561112e573d5f803e3d5ffd5b505050506040513d601f19601f82011682018060405250810190611152919061163a565b505f5460405163140e25ad60e31b8152600481018390526001600160a01b039091169063a0712d68906024015f604051808303815f87803b158015611195575f80fd5b505af11580156111a7573d5f803e3d5ffd5b5050600480546040516370a0823160e01b815230928101929092525f93506001600160a01b031691506370a0823190602401602060405180830381865afa1580156111f4573d5f803e3d5ffd5b505050506040513d601f19601f8201168201806040525081019061121891906116a7565b6004805460015460405163095ea7b360e01b81529394506001600160a01b039182169363095ea7b393611251939092169186910161168e565b6020604051808303815f875af115801561126d573d5f803e3d5ffd5b505050506040513d601f19601f82011682018060405250810190611291919061163a565b506040805160028082526060820183525f92602083019080368337505060045482519293506001600160a01b0316918391505f906112d1576112d16116d2565b6001600160a01b039283166020918202929092010152600554825191169082906001908110611302576113026116d2565b6001600160a01b039283166020918202929092010152600154166338ed1739835f84306113314261012c6116fa565b6040518663ffffffff1660e01b8152600401611351959493929190611713565b5f604051808303815f875af115801561136c573d5f803e3d5ffd5b505050506040513d5f823e601f3d908101601f191682016040526113939190810190611782565b506005546040516370a0823160e01b81523060048201525f916001600160a01b0316906370a0823190602401602060405180830381865afa1580156113da573d5f803e3d5ffd5b505050506040513d601f19601f820116820180604052508101906113fe91906116a7565b60055460405163a9059cbb60e01b81529192506001600160a01b03169063a9059cbb906105b4903390859060040161168e565b60405162461bcd60e51b815260206004820152601c60248201527f4e6f7420696d706c656d656e7465642079657420666f722064656d6f000000006044820152606401610255565b611482826105fb565b505050565b5f60018211611494575090565b816001600160801b82106114ad5760809190911c9060401b5b6801000000000000000082106114c85760409190911c9060201b5b64010000000082106114df5760209190911c9060101b5b6201000082106114f45760109190911c9060081b5b61010082106115085760089190911c9060041b5b6010821061151b5760049190911c9060021b5b600482106115275760011b5b600302600190811c9081858161153f5761153f611989565b048201901c9050600181858161155757611557611989565b048201901c9050600181858161156f5761156f611989565b048201901c9050600181858161158757611587611989565b048201901c9050600181858161159f5761159f611989565b048201901c905060018185816115b7576115b7611989565b048201901c90506115d68185816115d0576115d0611989565b04821190565b90039392505050565b5f602082840312156115ef575f80fd5b5035919050565b5f8060408385031215611607575f80fd5b50508035926020909101359150565b6001600160a01b039384168152919092166020820152604081019190915260600190565b5f6020828403121561164a575f80fd5b81518015158114611659575f80fd5b9392505050565b6020808252601490820152731554d110c81d1c985b9cd9995c8819985a5b195960621b604082015260600190565b6001600160a01b03929092168252602082015260400190565b5f602082840312156116b7575f80fd5b5051919050565b634e487b7160e01b5f52604160045260245ffd5b634e487b7160e01b5f52603260045260245ffd5b634e487b7160e01b5f52601160045260245ffd5b8082018082111561170d5761170d6116e6565b92915050565b5f60a082018783526020878185015260a0604085015281875180845260c08601915082890193505f5b818110156117615784516001600160a01b03168352938301939183019160010161173c565b50506001600160a01b03969096166060850152505050608001529392505050565b5f6020808385031215611793575f80fd5b825167ffffffffffffffff808211156117aa575f80fd5b818501915085601f8301126117bd575f80fd5b8151818111156117cf576117cf6116be565b8060051b604051601f19603f830116810181811085821117156117f4576117f46116be565b604052918252848201925083810185019188831115611811575f80fd5b938501935b8285101561182f57845184529385019392850192611816565b98975050505050505050565b5f805f6060848603121561184d575f80fd5b8351925060208401519150604084015190509250925092565b80516001600160701b038116811461187c575f80fd5b919050565b5f805f60608486031215611893575f80fd5b61189c84611866565b92506118aa60208501611866565b9150604084015163ffffffff811681146118c2575f80fd5b809150509250925092565b5f602082840312156118dd575f80fd5b81516001600160a01b0381168114611659575f80fd5b8082018281125f831280158216821582161715611912576119126116e6565b505092915050565b8181035f831280158383131683831282161715611939576119396116e6565b5092915050565b8082025f8212600160ff1b8414161561195b5761195b6116e6565b818105831482151761170d5761170d6116e6565b5f600160ff1b8201611983576119836116e6565b505f0390565b634e487b7160e01b5f52601260045260245ffd5b5f826119b757634e487b7160e01b5f52601260045260245ffd5b600160ff1b82145f19841416156119d0576119d06116e6565b50059056fea264697066735822122059c0235f01c5c0bd36e3d87dae3ce8ba3c8d31bc7f0bf48d2b413a0779bd730364736f6c63430008150033",
  "immutableReferences": {},
  "source": "// SPDX-License-Identifier: MIT\r\npragma solidity ^0.8.0;\r\n\r\nimport \"@openzeppelin/contracts/token/ERC20/IERC20.sol\";\r\nimport \"@openzeppelin/contracts/utils/math/Math.sol\";\r\nimport \"./MagenVault.sol\";\r\nimport \"./OutcomeToken.sol\";\r\nimport \"./interfaces/IUniswapV2.sol\";\r\n\r\ncontract MagenRouter {\r\n    MagenVault public vault;\r\n    IUniswapV2Router02 public uniswapRouter;\r\n    address public pair;\r\n    \r\n    IERC20 public usdc;\r\n    IERC20 public tokenSI;\r\n    IERC20 public tokenNO;\r\n\r\n    constructor(address _vault, address _uniswapRouter, address _pair, address _usdc, address _tokenSI, address _tokenNO) {\r\n        vault = MagenVault(_vault);\r\n        uniswapRouter = IUniswapV2Router02(_uniswapRouter);\r\n        pair = _pair;\r\n        usdc = IERC20(_usdc);\r\n        tokenSI = IERC20(_tokenSI);\r\n        tokenNO = IERC20(_tokenNO);\r\n    }\r\n\r\n    // Zap: USDC -> Mint SI/NO -> Add Liquidity to Uniswap -> Return LP Tokens\r\n    function addLiquidityZap(uint256 usdcAmount) public returns (uint liquidity) {\r\n        require(usdc.transferFrom(msg.sender, address(this), usdcAmount), \"USDC transfer failed\");\r\n        \r\n        // Approve Vault to spend USDC\r\n        usdc.approve(address(vault), usdcAmount);\r\n        vault.mint(usdcAmount);\r\n\r\n        // Router now has SI and NO\r\n        uint256 balSI = tokenSI.balanceOf(address(this));\r\n        uint256 balNO = tokenNO.balanceOf(address(this));\r\n\r\n        // Approve Uniswap Router\r\n        tokenSI.approve(address(uniswapRouter), balSI);\r\n        tokenNO.approve(address(uniswapRouter), balNO);\r\n\r\n        // Add Liquidity\r\n        // min amounts set to 0 for simplicity in this example/MVP\r\n        // but crucial for production slippage protection\r\n        (,, liquidity) = uniswapRouter.addLiquidity(\r\n            address(tokenSI),\r\n            address(tokenNO),\r\n            balSI,\r\n            balNO,\r\n            0, // amountAMin\r\n            0, // amountBMin\r\n            msg.sender, // LP tokens go to user\r\n            block.timestamp + 300\r\n        );\r\n    }\r\n    \r\n    function initialize(uint256 amount, uint256 /* risk */) external {\r\n        addLiquidityZap(amount);\r\n    }\r\n\r\n    // Buy SI: Mint SI+NO, Sell NO -> SI, Return Total SI\r\n    function buySI(uint256 usdcAmount) external {\r\n        require(usdc.transferFrom(msg.sender, address(this), usdcAmount), \"USDC transfer failed\");\r\n        \r\n        usdc.approve(address(vault), usdcAmount);\r\n        vault.mint(usdcAmount);\r\n        \r\n        uint256 noBalance = tokenNO.balanceOf(address(this));\r\n        tokenNO.approve(address(uniswapRouter), noBalance);\r\n        \r\n        // Path: NO -> SI\r\n        address[] memory path = new address[](2);\r\n        path[0] = address(tokenNO);\r\n        path[1] = address(tokenSI);\r\n        \r\n        uniswapRouter.swapExactTokensForTokens(\r\n            noBalance,\r\n            0, // amountOutMin\r\n            path,\r\n            address(this), // Router receives SI first\r\n            block.timestamp + 300\r\n        );\r\n        \r\n        // Send all SI to user\r\n        uint256 siBalance = tokenSI.balanceOf(address(this));\r\n        tokenSI.transfer(msg.sender, siBalance);\r\n    }\r\n\r\n    // Sell SI: Best effort swap SI -> NO to balance, then Burn\r\n    // In V2, optimal swap amount is harder to calc on-chain due to 0.3% fee + reserves\r\n    // For MVP, we can iterate or use a simplified formula:\r\n    // To reach R_si = R_no * (new_reserves), we swap.\r\n    // However, simplest is: Swap half? No.\r\n    // We stick to the quadratic formula logic, fetching reserves from pair.\r\n    \r\n    function sellSI(uint256 tokenAmount) external {\r\n        require(tokenAmount > 0, \"Amount > 0\");\r\n        require(tokenSI.transferFrom(msg.sender, address(this), tokenAmount), \"Transfer failed\");\r\n\r\n        // Get Reserves\r\n        (uint112 _reserve0, uint112 _reserve1,) = IUniswapV2Pair(pair).getReserves();\r\n        address _token0 = IUniswapV2Pair(pair).token0();\r\n        \r\n        (uint256 reserveSI, uint256 reserveNO) = (address(tokenSI) == _token0) \r\n            ? (_reserve0, _reserve1) \r\n            : (_reserve1, _reserve0);\r\n            \r\n        // Quadratic Formula for Optimal Swap Amount\r\n        // x = (-b + sqrt(b^2 - 4ac)) / 2\r\n        // b = (R_no + R_si) - T\r\n        // c = -(T * R_si)\r\n        \r\n        uint256 amountToSwap;\r\n        {\r\n            int256 R_si = int256(reserveSI);\r\n            int256 R_no = int256(reserveNO);\r\n            int256 T = int256(tokenAmount);\r\n            \r\n            int256 b = (R_no + R_si) - T;\r\n            int256 c = -(T * R_si);\r\n            \r\n            uint256 D = uint256(b * b - (4 * c));\r\n            uint256 sqrtD = Math.sqrt(D);\r\n            \r\n            // Result is positive, safe to cast\r\n            int256 num = -b + int256(sqrtD);\r\n            amountToSwap = uint256(num / 2);\r\n        }\r\n\r\n        tokenSI.approve(address(uniswapRouter), amountToSwap);\r\n        \r\n        address[] memory path = new address[](2);\r\n        path[0] = address(tokenSI);\r\n        path[1] = address(tokenNO);\r\n\r\n        uniswapRouter.swapExactTokensForTokens(\r\n            amountToSwap,\r\n            0, // Accept any amount for now (MVP)\r\n            path,\r\n            address(this),\r\n            block.timestamp + 300\r\n        );\r\n\r\n        uint256 balSI = tokenSI.balanceOf(address(this));\r\n        uint256 balNO = tokenNO.balanceOf(address(this));\r\n        uint256 burnAmount = balSI < balNO ? balSI : balNO;\r\n\r\n        vault.burn(burnAmount);\r\n\r\n        // Return USDC\r\n        uint256 usdcBal = usdc.balanceOf(address(this));\r\n        usdc.transfer(msg.sender, usdcBal);\r\n    }\r\n\r\n    function sellNO(uint256 tokenAmount) external {\r\n         // Symmetric logic for NO\r\n         // ...\r\n         revert(\"Not implemented yet for demo\");\r\n    }\r\n    \r\n    // Fallback for buyNO\r\n    function buyNO(uint256 usdcAmount) external {\r\n        require(usdc.transferFrom(msg.sender, address(this), usdcAmount), \"USDC transfer failed\");\r\n        usdc.approve(address(vault), usdcAmount);\r\n        vault.mint(usdcAmount);\r\n        \r\n        uint256 siBalance = tokenSI.balanceOf(address(this));\r\n        tokenSI.approve(address(uniswapRouter), siBalance);\r\n        \r\n        address[] memory path = new address[](2);\r\n        path[0] = address(tokenSI);\r\n        path[1] = address(tokenNO);\r\n        \r\n        uniswapRouter.swapExactTokensForTokens(\r\n            siBalance,\r\n            0,\r\n            path,\r\n            address(this),\r\n            block.timestamp + 300\r\n        );\r\n        \r\n        uint256 noBalance = tokenNO.balanceOf(address(this));\r\n        tokenNO.transfer(msg.sender, noBalance);\r\n    }\r\n}\r\n",
  "sourcePath": "C:\\Users\\hanti\\Desktop\\Magen-Protocol\\contracts\\MagenRouter.sol",
  "compiler": {
    "name": "solc",
    "version": "0.8.21+commit.d9974bed.Emscripten.clang"
  },
  "schemaVersion": "3.4.16",
  "updatedAt": "2026-02-10T02:04:49.399Z",
  "devdoc": {
    "kind": "dev",
    "methods": {},
    "version": 1
  },
  "userdoc": {
    "kind": "user",
    "methods": {},
    "version": 1
  }
}