{
  "contractName": "MagenRouter",
  "abi": [
    {
      "inputs": [
        {
          "internalType": "address",
          "name": "_vault",
          "type": "address"
        },
        {
          "internalType": "address",
          "name": "_uniswapRouter",
          "type": "address"
        },
        {
          "internalType": "address",
          "name": "_pair",
          "type": "address"
        },
        {
          "internalType": "address",
          "name": "_usdc",
          "type": "address"
        },
        {
          "internalType": "address",
          "name": "_tokenSI",
          "type": "address"
        },
        {
          "internalType": "address",
          "name": "_tokenNO",
          "type": "address"
        }
      ],
      "stateMutability": "nonpayable",
      "type": "constructor"
    },
    {
      "inputs": [],
      "name": "pair",
      "outputs": [
        {
          "internalType": "address",
          "name": "",
          "type": "address"
        }
      ],
      "stateMutability": "view",
      "type": "function"
    },
    {
      "inputs": [],
      "name": "tokenNO",
      "outputs": [
        {
          "internalType": "contract IERC20",
          "name": "",
          "type": "address"
        }
      ],
      "stateMutability": "view",
      "type": "function"
    },
    {
      "inputs": [],
      "name": "tokenSI",
      "outputs": [
        {
          "internalType": "contract IERC20",
          "name": "",
          "type": "address"
        }
      ],
      "stateMutability": "view",
      "type": "function"
    },
    {
      "inputs": [],
      "name": "uniswapRouter",
      "outputs": [
        {
          "internalType": "contract IUniswapV2Router02",
          "name": "",
          "type": "address"
        }
      ],
      "stateMutability": "view",
      "type": "function"
    },
    {
      "inputs": [],
      "name": "usdc",
      "outputs": [
        {
          "internalType": "contract IERC20",
          "name": "",
          "type": "address"
        }
      ],
      "stateMutability": "view",
      "type": "function"
    },
    {
      "inputs": [],
      "name": "vault",
      "outputs": [
        {
          "internalType": "contract MagenVault",
          "name": "",
          "type": "address"
        }
      ],
      "stateMutability": "view",
      "type": "function"
    },
    {
      "inputs": [
        {
          "internalType": "uint256",
          "name": "amount",
          "type": "uint256"
        },
        {
          "internalType": "uint256",
          "name": "risk",
          "type": "uint256"
        }
      ],
      "name": "initialize",
      "outputs": [],
      "stateMutability": "nonpayable",
      "type": "function"
    },
    {
      "inputs": [
        {
          "internalType": "uint256",
          "name": "usdcAmount",
          "type": "uint256"
        }
      ],
      "name": "addLiquidity",
      "outputs": [
        {
          "internalType": "uint256",
          "name": "liquidity",
          "type": "uint256"
        }
      ],
      "stateMutability": "nonpayable",
      "type": "function"
    },
    {
      "inputs": [
        {
          "internalType": "uint256",
          "name": "usdcAmount",
          "type": "uint256"
        }
      ],
      "name": "buySI",
      "outputs": [],
      "stateMutability": "nonpayable",
      "type": "function"
    },
    {
      "inputs": [
        {
          "internalType": "uint256",
          "name": "tokenAmount",
          "type": "uint256"
        }
      ],
      "name": "sellSI",
      "outputs": [],
      "stateMutability": "nonpayable",
      "type": "function"
    },
    {
      "inputs": [
        {
          "internalType": "uint256",
          "name": "usdcAmount",
          "type": "uint256"
        }
      ],
      "name": "buyNO",
      "outputs": [],
      "stateMutability": "nonpayable",
      "type": "function"
    },
    {
      "inputs": [
        {
          "internalType": "uint256",
          "name": "tokenAmount",
          "type": "uint256"
        }
      ],
      "name": "sellNO",
      "outputs": [],
      "stateMutability": "nonpayable",
      "type": "function"
    }
  ],
  "bytecode": "0x608060405234801562000010575f80fd5b5060405162002dcb38038062002dcb8339810160408190526200003391620000c1565b5f80546001600160a01b03199081166001600160a01b03988916179091556001805482169688169690961790955560028054861694871694909417909355600380548516928616929092179091556004805484169185169190911790556005805490921692169190911790556200013e565b80516001600160a01b0381168114620000bc575f80fd5b919050565b5f805f805f8060c08789031215620000d7575f80fd5b620000e287620000a5565b9550620000f260208801620000a5565b94506200010260408801620000a5565b93506200011260608801620000a5565b92506200012260808801620000a5565b91506200013260a08801620000a5565b90509295509295509295565b612c7f806200014c5f395ff3fe608060405234801561000f575f80fd5b50600436106100b1575f3560e01c80636ef27a631161006e5780636ef27a6314610154578063735de9f714610167578063a8aa1b311461017a578063e4a301161461018d578063fbfa77cf146101a0578063ff1a277c146101b2575f80fd5b80631c09b721146100b557806336c37fff146100e55780633e413bee146100fa57806341abb2e61461010d57806351c6590a146101205780636ceec57014610141575b5f80fd5b6004546100c8906001600160a01b031681565b6040516001600160a01b0390911681526020015b60405180910390f35b6100f86100f33660046127b5565b6101c5565b005b6003546100c8906001600160a01b031681565b6100f861011b3660046127b5565b6105fb565b61013361012e3660046127b5565b610c2e565b6040519081526020016100dc565b6100f861014f3660046127b5565b6116c4565b6100f86101623660046127b5565b611aa8565b6001546100c8906001600160a01b031681565b6002546100c8906001600160a01b031681565b6100f861019b3660046127cc565b6120f4565b5f546100c8906001600160a01b031681565b6005546100c8906001600160a01b031681565b6003546040516323b872dd60e01b81526001600160a01b03909116906323b872dd906101f9903390309086906004016127ec565b6020604051808303815f875af1158015610215573d5f803e3d5ffd5b505050506040513d601f19601f820116820180604052508101906102399190612810565b61025e5760405162461bcd60e51b815260040161025590612836565b60405180910390fd5b6003545f5460405163095ea7b360e01b81526001600160a01b039283169263095ea7b392610293929116908590600401612864565b6020604051808303815f875af11580156102af573d5f803e3d5ffd5b505050506040513d601f19601f820116820180604052508101906102d39190612810565b505f5460405163140e25ad60e31b8152600481018390526001600160a01b039091169063a0712d68906024015f604051808303815f87803b158015610316575f80fd5b505af1158015610328573d5f803e3d5ffd5b50506005546040516370a0823160e01b81523060048201525f93506001600160a01b0390911691506370a0823190602401602060405180830381865afa158015610374573d5f803e3d5ffd5b505050506040513d601f19601f82011682018060405250810190610398919061287d565b60055460015460405163095ea7b360e01b81529293506001600160a01b039182169263095ea7b3926103d09216908590600401612864565b6020604051808303815f875af11580156103ec573d5f803e3d5ffd5b505050506040513d601f19601f820116820180604052508101906104109190612810565b506040805160028082526060820183525f92602083019080368337505060055482519293506001600160a01b0316918391505f90610450576104506128a8565b6001600160a01b039283166020918202929092010152600454825191169082906001908110610481576104816128a8565b6001600160a01b039283166020918202929092010152600154166338ed1739835f84306104b04261012c6128d0565b6040518663ffffffff1660e01b81526004016104d09594939291906128e9565b5f604051808303815f875af11580156104eb573d5f803e3d5ffd5b505050506040513d5f823e601f3d908101601f191682016040526105129190810190612958565b50600480546040516370a0823160e01b815230928101929092525f916001600160a01b03909116906370a0823190602401602060405180830381865afa15801561055e573d5f803e3d5ffd5b505050506040513d601f19601f82011682018060405250810190610582919061287d565b6004805460405163a9059cbb60e01b81529293506001600160a01b03169163a9059cbb916105b4913391869101612864565b6020604051808303815f875af11580156105d0573d5f803e3d5ffd5b505050506040513d601f19601f820116820180604052508101906105f49190612810565b5050505050565b5f811161061a5760405162461bcd60e51b815260040161025590612a11565b600480546040516323b872dd60e01b81526001600160a01b03909116916323b872dd9161064d91339130918791016127ec565b6020604051808303815f875af1158015610669573d5f803e3d5ffd5b505050506040513d601f19601f8201168201806040525081019061068d9190612810565b6106cb5760405162461bcd60e51b815260206004820152600f60248201526e151c985b9cd9995c8819985a5b1959608a1b6044820152606401610255565b5f8060025f9054906101000a90046001600160a01b03166001600160a01b0316630902f1ac6040518163ffffffff1660e01b8152600401606060405180830381865afa15801561071d573d5f803e3d5ffd5b505050506040513d601f19601f820116820180604052508101906107419190612a50565b50915091505f60025f9054906101000a90046001600160a01b03166001600160a01b0316630dfe16816040518163ffffffff1660e01b8152600401602060405180830381865afa158015610797573d5f803e3d5ffd5b505050506040513d601f19601f820116820180604052508101906107bb9190612a9c565b6004549091505f9081906001600160a01b038085169116146107de5783856107e1565b84845b6001600160701b0391821693501690505f82828883816108018585612ac2565b61080b9190612ae9565b90505f6108188584612b0f565b61082190612b3e565b90505f61082f826004612b0f565b6108398480612b0f565b6108439190612ae9565b90505f61084f8261265d565b90505f8161085c86612b3e565b6108669190612ac2565b9050610873600282612b6c565b6004805460015460405163095ea7b360e01b8152939c506001600160a01b039182169b5063095ea7b39a506108b499501696508a9550019250612864915050565b6020604051808303815f875af11580156108d0573d5f803e3d5ffd5b505050506040513d601f19601f820116820180604052508101906108f49190612810565b506040805160028082526060820183525f92602083019080368337505060045482519293506001600160a01b0316918391505f90610934576109346128a8565b6001600160a01b039283166020918202929092010152600554825191169082906001908110610965576109656128a8565b6001600160a01b039283166020918202929092010152600154166338ed1739835f84306109944261012c6128d0565b6040518663ffffffff1660e01b81526004016109b49594939291906128e9565b5f604051808303815f875af11580156109cf573d5f803e3d5ffd5b505050506040513d5f823e601f3d908101601f191682016040526109f69190810190612958565b50600480546040516370a0823160e01b815230928101929092525f916001600160a01b03909116906370a0823190602401602060405180830381865afa158015610a42573d5f803e3d5ffd5b505050506040513d601f19601f82011682018060405250810190610a66919061287d565b6005546040516370a0823160e01b81523060048201529192505f916001600160a01b03909116906370a0823190602401602060405180830381865afa158015610ab1573d5f803e3d5ffd5b505050506040513d601f19601f82011682018060405250810190610ad5919061287d565b90505f818310610ae55781610ae7565b825b5f54604051630852cd8d60e31b8152600481018390529192506001600160a01b0316906342966c68906024015f604051808303815f87803b158015610b2a575f80fd5b505af1158015610b3c573d5f803e3d5ffd5b50506003546040516370a0823160e01b81523060048201525f93506001600160a01b0390911691506370a0823190602401602060405180830381865afa158015610b88573d5f803e3d5ffd5b505050506040513d601f19601f82011682018060405250810190610bac919061287d565b60035460405163a9059cbb60e01b81529192506001600160a01b03169063a9059cbb90610bdf9033908590600401612864565b6020604051808303815f875af1158015610bfb573d5f803e3d5ffd5b505050506040513d601f19601f82011682018060405250810190610c1f9190612810565b50505050505050505050505050565b5f808211610c4e5760405162461bcd60e51b815260040161025590612a11565b6003546040516323b872dd60e01b81526001600160a01b03909116906323b872dd90610c82903390309087906004016127ec565b6020604051808303815f875af1158015610c9e573d5f803e3d5ffd5b505050506040513d601f19601f82011682018060405250810190610cc29190612810565b610cff5760405162461bcd60e51b815260206004820152600e60248201526d1554d110c815118819985a5b195960921b6044820152606401610255565b6003545f5460405163095ea7b360e01b81526001600160a01b039283169263095ea7b392610d34929116908690600401612864565b6020604051808303815f875af1158015610d50573d5f803e3d5ffd5b505050506040513d601f19601f82011682018060405250810190610d749190612810565b505f5460405163140e25ad60e31b8152600481018490526001600160a01b039091169063a0712d68906024015f604051808303815f87803b158015610db7575f80fd5b505af1158015610dc9573d5f803e3d5ffd5b505050505f8060025f9054906101000a90046001600160a01b03166001600160a01b0316630902f1ac6040518163ffffffff1660e01b8152600401606060405180830381865afa158015610e1f573d5f803e3d5ffd5b505050506040513d601f19601f82011682018060405250810190610e439190612a50565b50915091505f60025f9054906101000a90046001600160a01b03166001600160a01b0316630dfe16816040518163ffffffff1660e01b8152600401602060405180830381865afa158015610e99573d5f803e3d5ffd5b505050506040513d601f19601f82011682018060405250810190610ebd9190612a9c565b6004549091505f9081906001600160a01b03808516911614610ef257836001600160701b0316856001600160701b0316610f07565b846001600160701b0316846001600160701b03165b91509150808211156110c8575f600283610f218482612b98565b610f2b908b612bab565b610f359190612bc2565b610f3f9190612bc2565b905080156110c25760055460015460405163095ea7b360e01b81526001600160a01b039283169263095ea7b392610f7d929116908590600401612864565b6020604051808303815f875af1158015610f99573d5f803e3d5ffd5b505050506040513d601f19601f82011682018060405250810190610fbd9190612810565b506040805160028082526060820183525f92602083019080368337505060055482519293506001600160a01b0316918391505f90610ffd57610ffd6128a8565b6001600160a01b03928316602091820292909201015260045482519116908290600190811061102e5761102e6128a8565b6001600160a01b039283166020918202929092010152600154166338ed1739835f843061105d4261012c6128d0565b6040518663ffffffff1660e01b815260040161107d9594939291906128e9565b5f604051808303815f875af1158015611098573d5f803e3d5ffd5b505050506040513d5f823e601f3d908101601f191682016040526110bf9190810190612958565b50505b5061127f565b8181111561127f575f6002826110de8582612b98565b6110e8908b612bab565b6110f29190612bc2565b6110fc9190612bc2565b9050801561127d576004805460015460405163095ea7b360e01b81526001600160a01b039283169363095ea7b393611138931691869101612864565b6020604051808303815f875af1158015611154573d5f803e3d5ffd5b505050506040513d601f19601f820116820180604052508101906111789190612810565b506040805160028082526060820183525f92602083019080368337505060045482519293506001600160a01b0316918391505f906111b8576111b86128a8565b6001600160a01b0392831660209182029290920101526005548251911690829060019081106111e9576111e96128a8565b6001600160a01b039283166020918202929092010152600154166338ed1739835f84306112184261012c6128d0565b6040518663ffffffff1660e01b81526004016112389594939291906128e9565b5f604051808303815f875af1158015611253573d5f803e3d5ffd5b505050506040513d5f823e601f3d908101601f1916820160405261127a9190810190612958565b50505b505b600480546040516370a0823160e01b815230928101929092525f916001600160a01b03909116906370a0823190602401602060405180830381865afa1580156112ca573d5f803e3d5ffd5b505050506040513d601f19601f820116820180604052508101906112ee919061287d565b6005546040516370a0823160e01b81523060048201529192505f916001600160a01b03909116906370a0823190602401602060405180830381865afa158015611339573d5f803e3d5ffd5b505050506040513d601f19601f8201168201806040525081019061135d919061287d565b6004805460015460405163095ea7b360e01b81529394506001600160a01b039182169363095ea7b3936113969390921691879101612864565b6020604051808303815f875af11580156113b2573d5f803e3d5ffd5b505050506040513d601f19601f820116820180604052508101906113d69190612810565b5060055460015460405163095ea7b360e01b81526001600160a01b039283169263095ea7b39261140d929116908590600401612864565b6020604051808303815f875af1158015611429573d5f803e3d5ffd5b505050506040513d601f19601f8201168201806040525081019061144d9190612810565b506001546004546005546001600160a01b039283169263e8e33700928116911685855f803361147e4261012c6128d0565b6040518963ffffffff1660e01b81526004016114a1989796959493929190612bd5565b6060604051808303815f875af11580156114bd573d5f803e3d5ffd5b505050506040513d601f19601f820116820180604052508101906114e19190612c1e565b600480546040516370a0823160e01b81523092810192909252919b505f93506001600160a01b0390911691506370a0823190602401602060405180830381865afa158015611531573d5f803e3d5ffd5b505050506040513d601f19601f82011682018060405250810190611555919061287d565b905080156115d0576004805460405163a9059cbb60e01b81526001600160a01b039091169163a9059cbb9161158e913391869101612864565b6020604051808303815f875af11580156115aa573d5f803e3d5ffd5b505050506040513d601f19601f820116820180604052508101906115ce9190612810565b505b6005546040516370a0823160e01b81523060048201525f916001600160a01b0316906370a0823190602401602060405180830381865afa158015611616573d5f803e3d5ffd5b505050506040513d601f19601f8201168201806040525081019061163a919061287d565b905080156116b65760055460405163a9059cbb60e01b81526001600160a01b039091169063a9059cbb906116749033908590600401612864565b6020604051808303815f875af1158015611690573d5f803e3d5ffd5b505050506040513d601f19601f820116820180604052508101906116b49190612810565b505b505050505050505050919050565b6003546040516323b872dd60e01b81526001600160a01b03909116906323b872dd906116f8903390309086906004016127ec565b6020604051808303815f875af1158015611714573d5f803e3d5ffd5b505050506040513d601f19601f820116820180604052508101906117389190612810565b6117545760405162461bcd60e51b815260040161025590612836565b6003545f5460405163095ea7b360e01b81526001600160a01b039283169263095ea7b392611789929116908590600401612864565b6020604051808303815f875af11580156117a5573d5f803e3d5ffd5b505050506040513d601f19601f820116820180604052508101906117c99190612810565b505f5460405163140e25ad60e31b8152600481018390526001600160a01b039091169063a0712d68906024015f604051808303815f87803b15801561180c575f80fd5b505af115801561181e573d5f803e3d5ffd5b5050600480546040516370a0823160e01b815230928101929092525f93506001600160a01b031691506370a0823190602401602060405180830381865afa15801561186b573d5f803e3d5ffd5b505050506040513d601f19601f8201168201806040525081019061188f919061287d565b6004805460015460405163095ea7b360e01b81529394506001600160a01b039182169363095ea7b3936118c89390921691869101612864565b6020604051808303815f875af11580156118e4573d5f803e3d5ffd5b505050506040513d601f19601f820116820180604052508101906119089190612810565b506040805160028082526060820183525f92602083019080368337505060045482519293506001600160a01b0316918391505f90611948576119486128a8565b6001600160a01b039283166020918202929092010152600554825191169082906001908110611979576119796128a8565b6001600160a01b039283166020918202929092010152600154166338ed1739835f84306119a84261012c6128d0565b6040518663ffffffff1660e01b81526004016119c89594939291906128e9565b5f604051808303815f875af11580156119e3573d5f803e3d5ffd5b505050506040513d5f823e601f3d908101601f19168201604052611a0a9190810190612958565b506005546040516370a0823160e01b81523060048201525f916001600160a01b0316906370a0823190602401602060405180830381865afa158015611a51573d5f803e3d5ffd5b505050506040513d601f19601f82011682018060405250810190611a75919061287d565b60055460405163a9059cbb60e01b81529192506001600160a01b03169063a9059cbb906105b49033908590600401612864565b5f8111611ac75760405162461bcd60e51b815260040161025590612a11565b6005546040516323b872dd60e01b81526001600160a01b03909116906323b872dd90611afb903390309086906004016127ec565b6020604051808303815f875af1158015611b17573d5f803e3d5ffd5b505050506040513d601f19601f82011682018060405250810190611b3b9190612810565b611b795760405162461bcd60e51b815260206004820152600f60248201526e151c985b9cd9995c8819985a5b1959608a1b6044820152606401610255565b5f8060025f9054906101000a90046001600160a01b03166001600160a01b0316630902f1ac6040518163ffffffff1660e01b8152600401606060405180830381865afa158015611bcb573d5f803e3d5ffd5b505050506040513d601f19601f82011682018060405250810190611bef9190612a50565b50915091505f60025f9054906101000a90046001600160a01b03166001600160a01b0316630dfe16816040518163ffffffff1660e01b8152600401602060405180830381865afa158015611c45573d5f803e3d5ffd5b505050506040513d601f19601f82011682018060405250810190611c699190612a9c565b6004549091505f9081906001600160a01b03808516911614611c8c578385611c8f565b84845b6001600160701b0391821693501690505f8183888381611caf8585612ac2565b611cb99190612ae9565b90505f611cc68584612b0f565b611ccf90612b3e565b90505f611cdd826004612b0f565b611ce78480612b0f565b611cf19190612ae9565b90505f611cfd8261265d565b90505f81611d0a86612b3e565b611d149190612ac2565b9050611d21600282612b6c565b985050505050505050505f811115611eae5760055460015460405163095ea7b360e01b81526001600160a01b039283169263095ea7b392611d69929116908590600401612864565b6020604051808303815f875af1158015611d85573d5f803e3d5ffd5b505050506040513d601f19601f82011682018060405250810190611da99190612810565b506040805160028082526060820183525f92602083019080368337505060055482519293506001600160a01b0316918391505f90611de957611de96128a8565b6001600160a01b039283166020918202929092010152600454825191169082906001908110611e1a57611e1a6128a8565b6001600160a01b039283166020918202929092010152600154166338ed1739835f8430611e494261012c6128d0565b6040518663ffffffff1660e01b8152600401611e699594939291906128e9565b5f604051808303815f875af1158015611e84573d5f803e3d5ffd5b505050506040513d5f823e601f3d908101601f19168201604052611eab9190810190612958565b50505b600480546040516370a0823160e01b815230928101929092525f916001600160a01b03909116906370a0823190602401602060405180830381865afa158015611ef9573d5f803e3d5ffd5b505050506040513d601f19601f82011682018060405250810190611f1d919061287d565b6005546040516370a0823160e01b81523060048201529192505f916001600160a01b03909116906370a0823190602401602060405180830381865afa158015611f68573d5f803e3d5ffd5b505050506040513d601f19601f82011682018060405250810190611f8c919061287d565b90505f818310611f9c5781611f9e565b825b905080156120e8575f54604051630852cd8d60e31b8152600481018390526001600160a01b03909116906342966c68906024015f604051808303815f87803b158015611fe8575f80fd5b505af1158015611ffa573d5f803e3d5ffd5b50506003546040516370a0823160e01b81523060048201525f93506001600160a01b0390911691506370a0823190602401602060405180830381865afa158015612046573d5f803e3d5ffd5b505050506040513d601f19601f8201168201806040525081019061206a919061287d565b905080156120e65760035460405163a9059cbb60e01b81526001600160a01b039091169063a9059cbb906120a49033908590600401612864565b6020604051808303815f875af11580156120c0573d5f803e3d5ffd5b505050506040513d601f19601f820116820180604052508101906120e49190612810565b505b505b50505050505050505050565b5f811180156121035750606481105b61214f5760405162461bcd60e51b815260206004820152601d60248201527f5269736b206d757374206265206265747765656e203120616e642039390000006044820152606401610255565b6003546040516323b872dd60e01b81526001600160a01b03909116906323b872dd90612183903390309087906004016127ec565b6020604051808303815f875af115801561219f573d5f803e3d5ffd5b505050506040513d601f19601f820116820180604052508101906121c39190612810565b6121df5760405162461bcd60e51b815260040161025590612836565b6003545f5460405163095ea7b360e01b81526001600160a01b039283169263095ea7b392612214929116908690600401612864565b6020604051808303815f875af1158015612230573d5f803e3d5ffd5b505050506040513d601f19601f820116820180604052508101906122549190612810565b505f5460405163140e25ad60e31b8152600481018490526001600160a01b039091169063a0712d68906024015f604051808303815f87803b158015612297575f80fd5b505af11580156122a9573d5f803e3d5ffd5b505050505f80603283116122e0578391506122c5836064612b98565b6122cf8486612bab565b6122d99190612bc2565b9050612305565b5082826122ee816064612b98565b6122f89086612bab565b6123029190612bc2565b91505b6004805460015460405163095ea7b360e01b81526001600160a01b039283169363095ea7b393612339931691879101612864565b6020604051808303815f875af1158015612355573d5f803e3d5ffd5b505050506040513d601f19601f820116820180604052508101906123799190612810565b5060055460015460405163095ea7b360e01b81526001600160a01b039283169263095ea7b3926123b0929116908590600401612864565b6020604051808303815f875af11580156123cc573d5f803e3d5ffd5b505050506040513d601f19601f820116820180604052508101906123f09190612810565b506001546004546005546001600160a01b039283169263e8e33700928116911685855f80336124214261012c6128d0565b6040518963ffffffff1660e01b8152600401612444989796959493929190612bd5565b6060604051808303815f875af1158015612460573d5f803e3d5ffd5b505050506040513d601f19601f820116820180604052508101906124849190612c1e565b5050600480546040516370a0823160e01b815230928101929092525f92506001600160a01b0316906370a0823190602401602060405180830381865afa1580156124d0573d5f803e3d5ffd5b505050506040513d601f19601f820116820180604052508101906124f4919061287d565b9050801561256f576004805460405163a9059cbb60e01b81526001600160a01b039091169163a9059cbb9161252d913391869101612864565b6020604051808303815f875af1158015612549573d5f803e3d5ffd5b505050506040513d601f19601f8201168201806040525081019061256d9190612810565b505b6005546040516370a0823160e01b81523060048201525f916001600160a01b0316906370a0823190602401602060405180830381865afa1580156125b5573d5f803e3d5ffd5b505050506040513d601f19601f820116820180604052508101906125d9919061287d565b905080156126555760055460405163a9059cbb60e01b81526001600160a01b039091169063a9059cbb906126139033908590600401612864565b6020604051808303815f875af115801561262f573d5f803e3d5ffd5b505050506040513d601f19601f820116820180604052508101906126539190612810565b505b505050505050565b5f6001821161266a575090565b816001600160801b82106126835760809190911c9060401b5b68010000000000000000821061269e5760409190911c9060201b5b64010000000082106126b55760209190911c9060101b5b6201000082106126ca5760109190911c9060081b5b61010082106126de5760089190911c9060041b5b601082106126f15760049190911c9060021b5b600482106126fd5760011b5b600302600190811c9081858161271557612715612b58565b048201901c9050600181858161272d5761272d612b58565b048201901c9050600181858161274557612745612b58565b048201901c9050600181858161275d5761275d612b58565b048201901c9050600181858161277557612775612b58565b048201901c9050600181858161278d5761278d612b58565b048201901c90506127ac8185816127a6576127a6612b58565b04821190565b90039392505050565b5f602082840312156127c5575f80fd5b5035919050565b5f80604083850312156127dd575f80fd5b50508035926020909101359150565b6001600160a01b039384168152919092166020820152604081019190915260600190565b5f60208284031215612820575f80fd5b8151801515811461282f575f80fd5b9392505050565b6020808252601490820152731554d110c81d1c985b9cd9995c8819985a5b195960621b604082015260600190565b6001600160a01b03929092168252602082015260400190565b5f6020828403121561288d575f80fd5b5051919050565b634e487b7160e01b5f52604160045260245ffd5b634e487b7160e01b5f52603260045260245ffd5b634e487b7160e01b5f52601160045260245ffd5b808201808211156128e3576128e36128bc565b92915050565b5f60a082018783526020878185015260a0604085015281875180845260c08601915082890193505f5b818110156129375784516001600160a01b031683529383019391830191600101612912565b50506001600160a01b03969096166060850152505050608001529392505050565b5f6020808385031215612969575f80fd5b825167ffffffffffffffff80821115612980575f80fd5b818501915085601f830112612993575f80fd5b8151818111156129a5576129a5612894565b8060051b604051601f19603f830116810181811085821117156129ca576129ca612894565b6040529182528482019250838101850191888311156129e7575f80fd5b938501935b82851015612a05578451845293850193928501926129ec565b98975050505050505050565b6020808252600a90820152690416d6f756e74203e20360b41b604082015260600190565b80516001600160701b0381168114612a4b575f80fd5b919050565b5f805f60608486031215612a62575f80fd5b612a6b84612a35565b9250612a7960208501612a35565b9150604084015163ffffffff81168114612a91575f80fd5b809150509250925092565b5f60208284031215612aac575f80fd5b81516001600160a01b038116811461282f575f80fd5b8082018281125f831280158216821582161715612ae157612ae16128bc565b505092915050565b8181035f831280158383131683831282161715612b0857612b086128bc565b5092915050565b8082025f8212600160ff1b84141615612b2a57612b2a6128bc565b81810583148215176128e3576128e36128bc565b5f600160ff1b8201612b5257612b526128bc565b505f0390565b634e487b7160e01b5f52601260045260245ffd5b5f82612b7a57612b7a612b58565b600160ff1b82145f1984141615612b9357612b936128bc565b500590565b818103818111156128e3576128e36128bc565b80820281158282048414176128e3576128e36128bc565b5f82612bd057612bd0612b58565b500490565b6001600160a01b039889168152968816602088015260408701959095526060860193909352608085019190915260a084015290921660c082015260e08101919091526101000190565b5f805f60608486031215612c30575f80fd5b835192506020840151915060408401519050925092509256fea2646970667358221220dd6eb0906fd35ea03b562d7bb3bf0ab073b85f1ea0bad50735e28504aa780b9b64736f6c63430008150033",
  "immutableReferences": {},
  "source": "// SPDX-License-Identifier: MIT\r\npragma solidity ^0.8.0;\r\n\r\nimport \"@openzeppelin/contracts/token/ERC20/IERC20.sol\";\r\nimport \"@openzeppelin/contracts/utils/math/Math.sol\";\r\nimport \"./MagenVault.sol\";\r\nimport \"./OutcomeToken.sol\";\r\nimport \"./interfaces/IUniswapV2.sol\";\r\n\r\ncontract MagenRouter {\r\n    MagenVault public vault;\r\n    IUniswapV2Router02 public uniswapRouter;\r\n    address public pair;\r\n    \r\n    IERC20 public usdc;\r\n    IERC20 public tokenSI;\r\n    IERC20 public tokenNO;\r\n\r\n    constructor(address _vault, address _uniswapRouter, address _pair, address _usdc, address _tokenSI, address _tokenNO) {\r\n        vault = MagenVault(_vault);\r\n        uniswapRouter = IUniswapV2Router02(_uniswapRouter);\r\n        pair = _pair;\r\n        usdc = IERC20(_usdc);\r\n        tokenSI = IERC20(_tokenSI);\r\n        tokenNO = IERC20(_tokenNO);\r\n    }\r\n\r\n    // Initialize Pool: Mint SI/NO, Deposit based on Risk (Initial Price)\r\n    // Risk is probability (0-100)\r\n    // Price SI = Risk%\r\n    // Ratio Res_NO / Res_SI = P_si / P_no = p / (1-p)\r\n    function initialize(uint256 amount, uint256 risk) external {\r\n        require(risk > 0 && risk < 100, \"Risk must be between 1 and 99\");\r\n        \r\n        // 1. Mint SI/NO\r\n        require(usdc.transferFrom(msg.sender, address(this), amount), \"USDC transfer failed\");\r\n        usdc.approve(address(vault), amount);\r\n        vault.mint(amount);\r\n\r\n        // 2. Calculate Token Distribution\r\n        // We have `amount` of SI and `amount` of NO.\r\n        // We want ratio: NO / SI = risk / (100 - risk)\r\n        \r\n        uint256 amountSI;\r\n        uint256 amountNO;\r\n        \r\n        if (risk <= 50) {\r\n             // Risk low -> Price SI low -> Need MORE SI in pool than NO\r\n             // Ratio NO/SI is small.\r\n             // Ratio < 1. SI is denominator.\r\n             // We use Max SI = amount.\r\n             amountSI = amount;\r\n             // amountNO = amount * risk / (100 - risk)\r\n             amountNO = (amount * risk) / (100 - risk);\r\n        } else {\r\n             // Risk high -> Price SI high -> Need LESS SI in pool (More NO)\r\n             // Ratio NO/SI > 1.\r\n             // We use Max NO = amount.\r\n             amountNO = amount;\r\n             // amountSI = amount * (100 - risk) / risk\r\n             amountSI = (amount * (100 - risk)) / risk;\r\n        }\r\n\r\n        // 3. Approve and Add Liquidity\r\n        tokenSI.approve(address(uniswapRouter), amountSI);\r\n        tokenNO.approve(address(uniswapRouter), amountNO);\r\n\r\n        uniswapRouter.addLiquidity(\r\n            address(tokenSI),\r\n            address(tokenNO),\r\n            amountSI,\r\n            amountNO,\r\n            0, // minSI\r\n            0, // minNO\r\n            msg.sender,\r\n            block.timestamp + 300\r\n        );\r\n        \r\n        // 4. Refund remaining tokens to user\r\n        uint256 remSI = tokenSI.balanceOf(address(this));\r\n        if (remSI > 0) tokenSI.transfer(msg.sender, remSI);\r\n        uint256 remNO = tokenNO.balanceOf(address(this));\r\n        if (remNO > 0) tokenNO.transfer(msg.sender, remNO);\r\n    }\r\n    \r\n    // Smart Add Liquidity: Mint -> Rebalance -> Deposit\r\n    // Matches pool ratio to minimize impact/leftovers\r\n    function addLiquidity(uint256 usdcAmount) external returns (uint liquidity) {\r\n        require(usdcAmount > 0, \"Amount > 0\");\r\n        \r\n        // 1. Mint\r\n        require(usdc.transferFrom(msg.sender, address(this), usdcAmount), \"USDC TF failed\");\r\n        usdc.approve(address(vault), usdcAmount);\r\n        vault.mint(usdcAmount);\r\n        \r\n        // 2. Get Reserves\r\n        (uint112 r0, uint112 r1,) = IUniswapV2Pair(pair).getReserves();\r\n        address t0 = IUniswapV2Pair(pair).token0();\r\n        (uint256 rSI, uint256 rNO) = (address(tokenSI) == t0) ? (uint256(r0), uint256(r1)) : (uint256(r1), uint256(r0));\r\n        \r\n        // 3. Calculate Rebalance\r\n        // Current holding: usdcAmount of SI, usdcAmount of NO\r\n        // Target Ratio: rSI / rNO\r\n        // If rSI > rNO: We need more SI. Sell NO -> SI.\r\n        // If rNO > rSI: We need more NO. Sell SI -> NO.\r\n        \r\n        // Use half-excess approximation for swap amount\r\n        // x = (Amt_Have - Amt_Other * (R_Have/R_Other)) / 2\r\n        \r\n        if (rSI > rNO) {\r\n             // Needed: More SI. Swap NO -> SI.\r\n             // Excess NO.\r\n             // Amt_Have = usdcAmount (NO)\r\n             // Amt_Other = usdcAmount (SI)\r\n             // R_Have = rNO, R_Other = rSI\r\n             // But simpler: We have equal amounts A.\r\n             // We want ratio K = rSI / rNO (> 1).\r\n             // Swap x NO for y SI.\r\n             // (A + y) / (A - x) = K.\r\n             // Approximation: y approx x (price near 1? NO price is NOT near 1).\r\n             // We must use Price. Price(NO in SI) = rSI / rNO.\r\n             // y = x * (rSI / rNO).\r\n             // (A + x(rSI/rNO)) / (A - x) = rSI / rNO.\r\n             // Let R = rSI / rNO.\r\n             // (A + xR) = R(A - x) = RA - Rx.\r\n             // xR + Rx = RA - A.\r\n             // 2Rx = A(R - 1).\r\n             // x = A(R - 1) / 2R = A(1 - 1/R) / 2.\r\n             // x = Amount * (1 - rNO/rSI) / 2.\r\n             \r\n             uint256 swapAmount = (usdcAmount * (rSI - rNO)) / rSI / 2;\r\n             \r\n             if (swapAmount > 0) {\r\n                 tokenNO.approve(address(uniswapRouter), swapAmount);\r\n                 address[] memory path = new address[](2);\r\n                 path[0] = address(tokenNO);\r\n                 path[1] = address(tokenSI);\r\n                 uniswapRouter.swapExactTokensForTokens(swapAmount, 0, path, address(this), block.timestamp + 300);\r\n             }\r\n        } else if (rNO > rSI) {\r\n             // Needed: More NO. Swap SI -> NO.\r\n             // Excess SI? No, Ratio NO/SI > 1. SI is scarce?\r\n             // target NO / SI = K > 1.\r\n             // We have 1:1. We need more NO.\r\n             // Swap SI -> NO.\r\n             // x = Amount * (1 - rSI/rNO) / 2.\r\n             \r\n             uint256 swapAmount = (usdcAmount * (rNO - rSI)) / rNO / 2;\r\n             \r\n             if (swapAmount > 0) {\r\n                 tokenSI.approve(address(uniswapRouter), swapAmount);\r\n                 address[] memory path = new address[](2);\r\n                 path[0] = address(tokenSI);\r\n                 path[1] = address(tokenNO);\r\n                 uniswapRouter.swapExactTokensForTokens(swapAmount, 0, path, address(this), block.timestamp + 300);\r\n             }\r\n        }\r\n        \r\n        // 4. Add Liquidity with whatever we have\r\n        uint256 balSI = tokenSI.balanceOf(address(this));\r\n        uint256 balNO = tokenNO.balanceOf(address(this));\r\n        \r\n        tokenSI.approve(address(uniswapRouter), balSI);\r\n        tokenNO.approve(address(uniswapRouter), balNO);\r\n        \r\n        (,, liquidity) = uniswapRouter.addLiquidity(\r\n            address(tokenSI),\r\n            address(tokenNO),\r\n            balSI,\r\n            balNO,\r\n            0,\r\n            0,\r\n            msg.sender,\r\n            block.timestamp + 300\r\n        );\r\n        \r\n        // Refund dust\r\n        uint256 dustSI = tokenSI.balanceOf(address(this));\r\n        if (dustSI > 0) tokenSI.transfer(msg.sender, dustSI);\r\n        uint256 dustNO = tokenNO.balanceOf(address(this));\r\n        if (dustNO > 0) tokenNO.transfer(msg.sender, dustNO);\r\n    }\r\n\r\n    // Buy SI: Mint SI+NO, Sell NO -> SI, Return Total SI\r\n    function buySI(uint256 usdcAmount) external {\r\n        require(usdc.transferFrom(msg.sender, address(this), usdcAmount), \"USDC transfer failed\");\r\n        \r\n        usdc.approve(address(vault), usdcAmount);\r\n        vault.mint(usdcAmount);\r\n        \r\n        uint256 noBalance = tokenNO.balanceOf(address(this));\r\n        tokenNO.approve(address(uniswapRouter), noBalance);\r\n        \r\n        // Path: NO -> SI\r\n        address[] memory path = new address[](2);\r\n        path[0] = address(tokenNO);\r\n        path[1] = address(tokenSI);\r\n        \r\n        uniswapRouter.swapExactTokensForTokens(\r\n            noBalance,\r\n            0, // amountOutMin\r\n            path,\r\n            address(this), // Router receives SI first\r\n            block.timestamp + 300\r\n        );\r\n        \r\n        // Send all SI to user\r\n        uint256 siBalance = tokenSI.balanceOf(address(this));\r\n        tokenSI.transfer(msg.sender, siBalance);\r\n    }\r\n\r\n    // Sell SI: Best effort swap SI -> NO to balance, then Burn\r\n    function sellSI(uint256 tokenAmount) external {\r\n        require(tokenAmount > 0, \"Amount > 0\");\r\n        require(tokenSI.transferFrom(msg.sender, address(this), tokenAmount), \"Transfer failed\");\r\n\r\n        // Get Reserves\r\n        (uint112 _reserve0, uint112 _reserve1,) = IUniswapV2Pair(pair).getReserves();\r\n        address _token0 = IUniswapV2Pair(pair).token0();\r\n        \r\n        (uint256 reserveSI, uint256 reserveNO) = (address(tokenSI) == _token0) \r\n            ? (_reserve0, _reserve1) \r\n            : (_reserve1, _reserve0);\r\n            \r\n        // Quadratic Formula for Optimal Swap Amount\r\n        // x = (-b + sqrt(b^2 - 4ac)) / 2\r\n        // b = (R_no + R_si) - T\r\n        // c = -(T * R_si)\r\n        \r\n        uint256 amountToSwap;\r\n        {\r\n            int256 R_si = int256(reserveSI);\r\n            int256 R_no = int256(reserveNO);\r\n            int256 T = int256(tokenAmount);\r\n            \r\n            int256 b = (R_no + R_si) - T;\r\n            int256 c = -(T * R_si);\r\n            \r\n            uint256 D = uint256(b * b - (4 * c));\r\n            uint256 sqrtD = Math.sqrt(D);\r\n            \r\n            // Result is positive, safe to cast\r\n            int256 num = -b + int256(sqrtD);\r\n            amountToSwap = uint256(num / 2);\r\n        }\r\n\r\n        tokenSI.approve(address(uniswapRouter), amountToSwap);\r\n        \r\n        address[] memory path = new address[](2);\r\n        path[0] = address(tokenSI);\r\n        path[1] = address(tokenNO);\r\n\r\n        uniswapRouter.swapExactTokensForTokens(\r\n            amountToSwap,\r\n            0, // Accept any amount for now (MVP)\r\n            path,\r\n            address(this),\r\n            block.timestamp + 300\r\n        );\r\n\r\n        uint256 balSI = tokenSI.balanceOf(address(this));\r\n        uint256 balNO = tokenNO.balanceOf(address(this));\r\n        uint256 burnAmount = balSI < balNO ? balSI : balNO;\r\n\r\n        vault.burn(burnAmount);\r\n\r\n        // Return USDC\r\n        uint256 usdcBal = usdc.balanceOf(address(this));\r\n        usdc.transfer(msg.sender, usdcBal);\r\n    }\r\n\r\n    // Fallback for buyNO\r\n    function buyNO(uint256 usdcAmount) external {\r\n        require(usdc.transferFrom(msg.sender, address(this), usdcAmount), \"USDC transfer failed\");\r\n        usdc.approve(address(vault), usdcAmount);\r\n        vault.mint(usdcAmount);\r\n        \r\n        uint256 siBalance = tokenSI.balanceOf(address(this));\r\n        tokenSI.approve(address(uniswapRouter), siBalance);\r\n        \r\n        address[] memory path = new address[](2);\r\n        path[0] = address(tokenSI);\r\n        path[1] = address(tokenNO);\r\n        \r\n        uniswapRouter.swapExactTokensForTokens(\r\n            siBalance,\r\n            0,\r\n            path,\r\n            address(this),\r\n            block.timestamp + 300\r\n        );\r\n        \r\n        uint256 noBalance = tokenNO.balanceOf(address(this));\r\n        tokenNO.transfer(msg.sender, noBalance);\r\n    }\r\n\r\n    function sellNO(uint256 tokenAmount) external {\r\n        require(tokenAmount > 0, \"Amount > 0\");\r\n        require(tokenNO.transferFrom(msg.sender, address(this), tokenAmount), \"Transfer failed\");\r\n\r\n        // Get Reserves\r\n        (uint112 _reserve0, uint112 _reserve1,) = IUniswapV2Pair(pair).getReserves();\r\n        address _token0 = IUniswapV2Pair(pair).token0();\r\n        \r\n        // Identify reserve order relative to our tokens\r\n        (uint256 reserveSI, uint256 reserveNO) = (address(tokenSI) == _token0) \r\n            ? (_reserve0, _reserve1) \r\n            : (_reserve1, _reserve0);\r\n\r\n        // We have `tokenAmount` of NO. We want `Final_SI == Final_NO`.\r\n        // We swap NO -> SI.\r\n        // Target: (Initial_NO - x) = GetAmountOut(NO->SI, x)\r\n        // Same quadratic formula structure:\r\n        // x^2 + (ResOut + ResIn - A)x - A*ResIn = 0\r\n        // Here Input is NO (ResIn = reserveNO), Output is SI (ResOut = reserveSI).\r\n        // A = tokenAmount.\r\n        \r\n        uint256 amountToSwap;\r\n        {\r\n            int256 R_in = int256(reserveNO);\r\n            int256 R_out = int256(reserveSI);\r\n            int256 T = int256(tokenAmount);\r\n            \r\n            int256 b = (R_out + R_in) - T;\r\n            int256 c = -(T * R_in);\r\n            \r\n            uint256 D = uint256(b * b - (4 * c));\r\n            uint256 sqrtD = Math.sqrt(D);\r\n            \r\n            int256 num = -b + int256(sqrtD);\r\n            amountToSwap = uint256(num / 2);\r\n        }\r\n        \r\n        if (amountToSwap > 0) {\r\n            tokenNO.approve(address(uniswapRouter), amountToSwap);\r\n            \r\n            address[] memory path = new address[](2);\r\n            path[0] = address(tokenNO);\r\n            path[1] = address(tokenSI);\r\n    \r\n            uniswapRouter.swapExactTokensForTokens(\r\n                amountToSwap,\r\n                0, // Accept any amount for now (MVP)\r\n                path,\r\n                address(this),\r\n                block.timestamp + 300\r\n            );\r\n        }\r\n\r\n        uint256 balSI = tokenSI.balanceOf(address(this));\r\n        uint256 balNO = tokenNO.balanceOf(address(this));\r\n        uint256 burnAmount = balSI < balNO ? balSI : balNO;\r\n        \r\n        if (burnAmount > 0) {\r\n            vault.burn(burnAmount);\r\n            \r\n            // Return USDC\r\n            uint256 usdcBal = usdc.balanceOf(address(this));\r\n            if (usdcBal > 0) {\r\n                usdc.transfer(msg.sender, usdcBal);\r\n            }\r\n        }\r\n    }\r\n}\r\n",
  "sourcePath": "C:\\Users\\hanti\\Desktop\\Magen-Protocol\\contracts\\MagenRouter.sol",
  "compiler": {
    "name": "solc",
    "version": "0.8.21+commit.d9974bed.Emscripten.clang"
  },
  "schemaVersion": "3.4.16",
  "updatedAt": "2026-02-10T19:26:08.869Z",
  "devdoc": {
    "kind": "dev",
    "methods": {},
    "version": 1
  },
  "userdoc": {
    "kind": "user",
    "methods": {},
    "version": 1
  }
}