{
  "contractName": "MagenRouter",
  "abi": [
    {
      "inputs": [
        {
          "internalType": "address",
          "name": "_vault",
          "type": "address"
        },
        {
          "internalType": "address",
          "name": "_uniswapRouter",
          "type": "address"
        },
        {
          "internalType": "address",
          "name": "_pair",
          "type": "address"
        },
        {
          "internalType": "address",
          "name": "_usdc",
          "type": "address"
        },
        {
          "internalType": "address",
          "name": "_tokenSI",
          "type": "address"
        },
        {
          "internalType": "address",
          "name": "_tokenNO",
          "type": "address"
        }
      ],
      "stateMutability": "nonpayable",
      "type": "constructor"
    },
    {
      "inputs": [],
      "name": "pair",
      "outputs": [
        {
          "internalType": "address",
          "name": "",
          "type": "address"
        }
      ],
      "stateMutability": "view",
      "type": "function"
    },
    {
      "inputs": [],
      "name": "tokenNO",
      "outputs": [
        {
          "internalType": "contract IERC20",
          "name": "",
          "type": "address"
        }
      ],
      "stateMutability": "view",
      "type": "function"
    },
    {
      "inputs": [],
      "name": "tokenSI",
      "outputs": [
        {
          "internalType": "contract IERC20",
          "name": "",
          "type": "address"
        }
      ],
      "stateMutability": "view",
      "type": "function"
    },
    {
      "inputs": [],
      "name": "uniswapRouter",
      "outputs": [
        {
          "internalType": "contract IUniswapV2Router02",
          "name": "",
          "type": "address"
        }
      ],
      "stateMutability": "view",
      "type": "function"
    },
    {
      "inputs": [],
      "name": "usdc",
      "outputs": [
        {
          "internalType": "contract IERC20",
          "name": "",
          "type": "address"
        }
      ],
      "stateMutability": "view",
      "type": "function"
    },
    {
      "inputs": [],
      "name": "vault",
      "outputs": [
        {
          "internalType": "contract MagenVault",
          "name": "",
          "type": "address"
        }
      ],
      "stateMutability": "view",
      "type": "function"
    },
    {
      "inputs": [
        {
          "internalType": "uint256",
          "name": "amount",
          "type": "uint256"
        },
        {
          "internalType": "uint256",
          "name": "risk",
          "type": "uint256"
        }
      ],
      "name": "initialize",
      "outputs": [],
      "stateMutability": "nonpayable",
      "type": "function"
    },
    {
      "inputs": [
        {
          "internalType": "uint256",
          "name": "usdcAmount",
          "type": "uint256"
        }
      ],
      "name": "addLiquidity",
      "outputs": [
        {
          "internalType": "uint256",
          "name": "liquidity",
          "type": "uint256"
        }
      ],
      "stateMutability": "nonpayable",
      "type": "function"
    },
    {
      "inputs": [
        {
          "internalType": "uint256",
          "name": "usdcAmount",
          "type": "uint256"
        }
      ],
      "name": "buyNO",
      "outputs": [],
      "stateMutability": "nonpayable",
      "type": "function"
    }
  ],
  "bytecode": "0x608060405234801562000010575f80fd5b5060405162001ae738038062001ae78339810160408190526200003391620000c1565b5f80546001600160a01b03199081166001600160a01b03988916179091556001805482169688169690961790955560028054861694871694909417909355600380548516928616929092179091556004805484169185169190911790556005805490921692169190911790556200013e565b80516001600160a01b0381168114620000bc575f80fd5b919050565b5f805f805f8060c08789031215620000d7575f80fd5b620000e287620000a5565b9550620000f260208801620000a5565b94506200010260408801620000a5565b93506200011260608801620000a5565b92506200012260808801620000a5565b91506200013260a08801620000a5565b90509295509295509295565b61199b806200014c5f395ff3fe608060405234801561000f575f80fd5b5060043610610090575f3560e01c8063735de9f711610063578063735de9f71461010d578063a8aa1b3114610120578063e4a3011614610133578063fbfa77cf14610146578063ff1a277c14610158575f80fd5b80631c09b721146100945780633e413bee146100c457806351c6590a146100d75780636ceec570146100f8575b5f80fd5b6004546100a7906001600160a01b031681565b6040516001600160a01b0390911681526020015b60405180910390f35b6003546100a7906001600160a01b031681565b6100ea6100e5366004611611565b61016b565b6040519081526020016100bb565b61010b610106366004611611565b610c27565b005b6001546100a7906001600160a01b031681565b6002546100a7906001600160a01b031681565b61010b610141366004611628565b61107d565b5f546100a7906001600160a01b031681565b6005546100a7906001600160a01b031681565b5f8082116101ad5760405162461bcd60e51b815260206004820152600a6024820152690416d6f756e74203e20360b41b60448201526064015b60405180910390fd5b6003546040516323b872dd60e01b8152336004820152306024820152604481018490526001600160a01b03909116906323b872dd906064016020604051808303815f875af1158015610201573d5f803e3d5ffd5b505050506040513d601f19601f820116820180604052508101906102259190611648565b6102625760405162461bcd60e51b815260206004820152600e60248201526d1554d110c815118819985a5b195960921b60448201526064016101a4565b6003545f5460405163095ea7b360e01b81526001600160a01b039283169263095ea7b39261029792911690869060040161166e565b6020604051808303815f875af11580156102b3573d5f803e3d5ffd5b505050506040513d601f19601f820116820180604052508101906102d79190611648565b505f5460405163140e25ad60e31b8152600481018490526001600160a01b039091169063a0712d68906024015f604051808303815f87803b15801561031a575f80fd5b505af115801561032c573d5f803e3d5ffd5b505050505f8060025f9054906101000a90046001600160a01b03166001600160a01b0316630902f1ac6040518163ffffffff1660e01b8152600401606060405180830381865afa158015610382573d5f803e3d5ffd5b505050506040513d601f19601f820116820180604052508101906103a691906116a2565b50915091505f60025f9054906101000a90046001600160a01b03166001600160a01b0316630dfe16816040518163ffffffff1660e01b8152600401602060405180830381865afa1580156103fc573d5f803e3d5ffd5b505050506040513d601f19601f8201168201806040525081019061042091906116ee565b6004549091505f9081906001600160a01b0380851691161461045557836001600160701b0316856001600160701b031661046a565b846001600160701b0316846001600160701b03165b915091508082111561062b575f6002836104848482611728565b61048e908b611741565b6104989190611758565b6104a29190611758565b905080156106255760055460015460405163095ea7b360e01b81526001600160a01b039283169263095ea7b3926104e092911690859060040161166e565b6020604051808303815f875af11580156104fc573d5f803e3d5ffd5b505050506040513d601f19601f820116820180604052508101906105209190611648565b506040805160028082526060820183525f92602083019080368337505060055482519293506001600160a01b0316918391505f906105605761056061178b565b6001600160a01b0392831660209182029290920101526004548251911690829060019081106105915761059161178b565b6001600160a01b039283166020918202929092010152600154166338ed1739835f84306105c04261012c61179f565b6040518663ffffffff1660e01b81526004016105e09594939291906117b2565b5f604051808303815f875af11580156105fb573d5f803e3d5ffd5b505050506040513d5f823e601f3d908101601f191682016040526106229190810190611821565b50505b506107e2565b818111156107e2575f6002826106418582611728565b61064b908b611741565b6106559190611758565b61065f9190611758565b905080156107e0576004805460015460405163095ea7b360e01b81526001600160a01b039283169363095ea7b39361069b93169186910161166e565b6020604051808303815f875af11580156106b7573d5f803e3d5ffd5b505050506040513d601f19601f820116820180604052508101906106db9190611648565b506040805160028082526060820183525f92602083019080368337505060045482519293506001600160a01b0316918391505f9061071b5761071b61178b565b6001600160a01b03928316602091820292909201015260055482519116908290600190811061074c5761074c61178b565b6001600160a01b039283166020918202929092010152600154166338ed1739835f843061077b4261012c61179f565b6040518663ffffffff1660e01b815260040161079b9594939291906117b2565b5f604051808303815f875af11580156107b6573d5f803e3d5ffd5b505050506040513d5f823e601f3d908101601f191682016040526107dd9190810190611821565b50505b505b600480546040516370a0823160e01b815230928101929092525f916001600160a01b03909116906370a0823190602401602060405180830381865afa15801561082d573d5f803e3d5ffd5b505050506040513d601f19601f8201168201806040525081019061085191906118da565b6005546040516370a0823160e01b81523060048201529192505f916001600160a01b03909116906370a0823190602401602060405180830381865afa15801561089c573d5f803e3d5ffd5b505050506040513d601f19601f820116820180604052508101906108c091906118da565b6004805460015460405163095ea7b360e01b81529394506001600160a01b039182169363095ea7b3936108f9939092169187910161166e565b6020604051808303815f875af1158015610915573d5f803e3d5ffd5b505050506040513d601f19601f820116820180604052508101906109399190611648565b5060055460015460405163095ea7b360e01b81526001600160a01b039283169263095ea7b39261097092911690859060040161166e565b6020604051808303815f875af115801561098c573d5f803e3d5ffd5b505050506040513d601f19601f820116820180604052508101906109b09190611648565b506001546004546005546001600160a01b039283169263e8e33700928116911685855f80336109e14261012c61179f565b6040518963ffffffff1660e01b8152600401610a049897969594939291906118f1565b6060604051808303815f875af1158015610a20573d5f803e3d5ffd5b505050506040513d601f19601f82011682018060405250810190610a44919061193a565b600480546040516370a0823160e01b81523092810192909252919b505f93506001600160a01b0390911691506370a0823190602401602060405180830381865afa158015610a94573d5f803e3d5ffd5b505050506040513d601f19601f82011682018060405250810190610ab891906118da565b90508015610b33576004805460405163a9059cbb60e01b81526001600160a01b039091169163a9059cbb91610af191339186910161166e565b6020604051808303815f875af1158015610b0d573d5f803e3d5ffd5b505050506040513d601f19601f82011682018060405250810190610b319190611648565b505b6005546040516370a0823160e01b81523060048201525f916001600160a01b0316906370a0823190602401602060405180830381865afa158015610b79573d5f803e3d5ffd5b505050506040513d601f19601f82011682018060405250810190610b9d91906118da565b90508015610c195760055460405163a9059cbb60e01b81526001600160a01b039091169063a9059cbb90610bd7903390859060040161166e565b6020604051808303815f875af1158015610bf3573d5f803e3d5ffd5b505050506040513d601f19601f82011682018060405250810190610c179190611648565b505b505050505050505050919050565b6003546040516323b872dd60e01b8152336004820152306024820152604481018390526001600160a01b03909116906323b872dd906064016020604051808303815f875af1158015610c7b573d5f803e3d5ffd5b505050506040513d601f19601f82011682018060405250810190610c9f9190611648565b610ce25760405162461bcd60e51b81526020600482015260146024820152731554d110c81d1c985b9cd9995c8819985a5b195960621b60448201526064016101a4565b6003545f5460405163095ea7b360e01b81526001600160a01b039283169263095ea7b392610d1792911690859060040161166e565b6020604051808303815f875af1158015610d33573d5f803e3d5ffd5b505050506040513d601f19601f82011682018060405250810190610d579190611648565b505f5460405163140e25ad60e31b8152600481018390526001600160a01b039091169063a0712d68906024015f604051808303815f87803b158015610d9a575f80fd5b505af1158015610dac573d5f803e3d5ffd5b5050600480546040516370a0823160e01b815230928101929092525f93506001600160a01b031691506370a0823190602401602060405180830381865afa158015610df9573d5f803e3d5ffd5b505050506040513d601f19601f82011682018060405250810190610e1d91906118da565b6004805460015460405163095ea7b360e01b81529394506001600160a01b039182169363095ea7b393610e56939092169186910161166e565b6020604051808303815f875af1158015610e72573d5f803e3d5ffd5b505050506040513d601f19601f82011682018060405250810190610e969190611648565b506040805160028082526060820183525f92602083019080368337505060045482519293506001600160a01b0316918391505f90610ed657610ed661178b565b6001600160a01b039283166020918202929092010152600554825191169082906001908110610f0757610f0761178b565b6001600160a01b039283166020918202929092010152600154166338ed1739835f8430610f364261012c61179f565b6040518663ffffffff1660e01b8152600401610f569594939291906117b2565b5f604051808303815f875af1158015610f71573d5f803e3d5ffd5b505050506040513d5f823e601f3d908101601f19168201604052610f989190810190611821565b506005546040516370a0823160e01b81523060048201525f916001600160a01b0316906370a0823190602401602060405180830381865afa158015610fdf573d5f803e3d5ffd5b505050506040513d601f19601f8201168201806040525081019061100391906118da565b60055460405163a9059cbb60e01b81529192506001600160a01b03169063a9059cbb90611036903390859060040161166e565b6020604051808303815f875af1158015611052573d5f803e3d5ffd5b505050506040513d601f19601f820116820180604052508101906110769190611648565b5050505050565b5f8111801561108c5750606481105b6110d85760405162461bcd60e51b815260206004820152601d60248201527f5269736b206d757374206265206265747765656e203120616e6420393900000060448201526064016101a4565b6003546040516323b872dd60e01b8152336004820152306024820152604481018490526001600160a01b03909116906323b872dd906064016020604051808303815f875af115801561112c573d5f803e3d5ffd5b505050506040513d601f19601f820116820180604052508101906111509190611648565b6111935760405162461bcd60e51b81526020600482015260146024820152731554d110c81d1c985b9cd9995c8819985a5b195960621b60448201526064016101a4565b6003545f5460405163095ea7b360e01b81526001600160a01b039283169263095ea7b3926111c892911690869060040161166e565b6020604051808303815f875af11580156111e4573d5f803e3d5ffd5b505050506040513d601f19601f820116820180604052508101906112089190611648565b505f5460405163140e25ad60e31b8152600481018490526001600160a01b039091169063a0712d68906024015f604051808303815f87803b15801561124b575f80fd5b505af115801561125d573d5f803e3d5ffd5b505050505f806032831161129457839150611279836064611728565b6112838486611741565b61128d9190611758565b90506112b9565b5082826112a2816064611728565b6112ac9086611741565b6112b69190611758565b91505b6004805460015460405163095ea7b360e01b81526001600160a01b039283169363095ea7b3936112ed93169187910161166e565b6020604051808303815f875af1158015611309573d5f803e3d5ffd5b505050506040513d601f19601f8201168201806040525081019061132d9190611648565b5060055460015460405163095ea7b360e01b81526001600160a01b039283169263095ea7b39261136492911690859060040161166e565b6020604051808303815f875af1158015611380573d5f803e3d5ffd5b505050506040513d601f19601f820116820180604052508101906113a49190611648565b506001546004546005546001600160a01b039283169263e8e33700928116911685855f80336113d54261012c61179f565b6040518963ffffffff1660e01b81526004016113f89897969594939291906118f1565b6060604051808303815f875af1158015611414573d5f803e3d5ffd5b505050506040513d601f19601f82011682018060405250810190611438919061193a565b5050600480546040516370a0823160e01b815230928101929092525f92506001600160a01b0316906370a0823190602401602060405180830381865afa158015611484573d5f803e3d5ffd5b505050506040513d601f19601f820116820180604052508101906114a891906118da565b90508015611523576004805460405163a9059cbb60e01b81526001600160a01b039091169163a9059cbb916114e191339186910161166e565b6020604051808303815f875af11580156114fd573d5f803e3d5ffd5b505050506040513d601f19601f820116820180604052508101906115219190611648565b505b6005546040516370a0823160e01b81523060048201525f916001600160a01b0316906370a0823190602401602060405180830381865afa158015611569573d5f803e3d5ffd5b505050506040513d601f19601f8201168201806040525081019061158d91906118da565b905080156116095760055460405163a9059cbb60e01b81526001600160a01b039091169063a9059cbb906115c7903390859060040161166e565b6020604051808303815f875af11580156115e3573d5f803e3d5ffd5b505050506040513d601f19601f820116820180604052508101906116079190611648565b505b505050505050565b5f60208284031215611621575f80fd5b5035919050565b5f8060408385031215611639575f80fd5b50508035926020909101359150565b5f60208284031215611658575f80fd5b81518015158114611667575f80fd5b9392505050565b6001600160a01b03929092168252602082015260400190565b80516001600160701b038116811461169d575f80fd5b919050565b5f805f606084860312156116b4575f80fd5b6116bd84611687565b92506116cb60208501611687565b9150604084015163ffffffff811681146116e3575f80fd5b809150509250925092565b5f602082840312156116fe575f80fd5b81516001600160a01b0381168114611667575f80fd5b634e487b7160e01b5f52601160045260245ffd5b8181038181111561173b5761173b611714565b92915050565b808202811582820484141761173b5761173b611714565b5f8261177257634e487b7160e01b5f52601260045260245ffd5b500490565b634e487b7160e01b5f52604160045260245ffd5b634e487b7160e01b5f52603260045260245ffd5b8082018082111561173b5761173b611714565b5f60a082018783526020878185015260a0604085015281875180845260c08601915082890193505f5b818110156118005784516001600160a01b0316835293830193918301916001016117db565b50506001600160a01b03969096166060850152505050608001529392505050565b5f6020808385031215611832575f80fd5b825167ffffffffffffffff80821115611849575f80fd5b818501915085601f83011261185c575f80fd5b81518181111561186e5761186e611777565b8060051b604051601f19603f8301168101818110858211171561189357611893611777565b6040529182528482019250838101850191888311156118b0575f80fd5b938501935b828510156118ce578451845293850193928501926118b5565b98975050505050505050565b5f602082840312156118ea575f80fd5b5051919050565b6001600160a01b039889168152968816602088015260408701959095526060860193909352608085019190915260a084015290921660c082015260e08101919091526101000190565b5f805f6060848603121561194c575f80fd5b835192506020840151915060408401519050925092509256fea2646970667358221220e06382250a2c830f0862309310f55a73f44cd4ed352efbb75e369fa5021801bc64736f6c63430008150033",
  "immutableReferences": {},
  "source": "// SPDX-License-Identifier: MIT\r\npragma solidity ^0.8.0;\r\n\r\nimport \"@openzeppelin/contracts/token/ERC20/IERC20.sol\";\r\nimport \"@openzeppelin/contracts/utils/math/Math.sol\";\r\nimport \"./MagenVault.sol\";\r\nimport \"./OutcomeToken.sol\";\r\nimport \"./interfaces/IUniswapV2.sol\";\r\n\r\ncontract MagenRouter {\r\n    MagenVault public vault;\r\n    IUniswapV2Router02 public uniswapRouter;\r\n    address public pair;\r\n    \r\n    IERC20 public usdc;\r\n    IERC20 public tokenSI;\r\n    IERC20 public tokenNO;\r\n\r\n    constructor(address _vault, address _uniswapRouter, address _pair, address _usdc, address _tokenSI, address _tokenNO) {\r\n        vault = MagenVault(_vault);\r\n        uniswapRouter = IUniswapV2Router02(_uniswapRouter);\r\n        pair = _pair;\r\n        usdc = IERC20(_usdc);\r\n        tokenSI = IERC20(_tokenSI);\r\n        tokenNO = IERC20(_tokenNO);\r\n    }\r\n\r\n    // Initialize Pool: Mint SI/NO, Deposit based on Risk (Initial Price)\r\n    // Risk is probability (0-100)\r\n    // Price SI = Risk%\r\n    // Ratio Res_NO / Res_SI = P_si / P_no = p / (1-p)\r\n    function initialize(uint256 amount, uint256 risk) external {\r\n        require(risk > 0 && risk < 100, \"Risk must be between 1 and 99\");\r\n        \r\n        // 1. Mint SI/NO\r\n        require(usdc.transferFrom(msg.sender, address(this), amount), \"USDC transfer failed\");\r\n        usdc.approve(address(vault), amount);\r\n        vault.mint(amount);\r\n\r\n        // 2. Calculate Token Distribution\r\n        // We have `amount` of SI and `amount` of NO.\r\n        // We want ratio: NO / SI = risk / (100 - risk)\r\n        \r\n        uint256 amountSI;\r\n        uint256 amountNO;\r\n        \r\n        if (risk <= 50) {\r\n             // Risk low -> Price SI low -> Need MORE SI in pool than NO\r\n             // Ratio NO/SI is small.\r\n             // Ratio < 1. SI is denominator.\r\n             // We use Max SI = amount.\r\n             amountSI = amount;\r\n             // amountNO = amount * risk / (100 - risk)\r\n             amountNO = (amount * risk) / (100 - risk);\r\n        } else {\r\n             // Risk high -> Price SI high -> Need LESS SI in pool (More NO)\r\n             // Ratio NO/SI > 1.\r\n             // We use Max NO = amount.\r\n             amountNO = amount;\r\n             // amountSI = amount * (100 - risk) / risk\r\n             amountSI = (amount * (100 - risk)) / risk;\r\n        }\r\n\r\n        // 3. Approve and Add Liquidity\r\n        tokenSI.approve(address(uniswapRouter), amountSI);\r\n        tokenNO.approve(address(uniswapRouter), amountNO);\r\n\r\n        uniswapRouter.addLiquidity(\r\n            address(tokenSI),\r\n            address(tokenNO),\r\n            amountSI,\r\n            amountNO,\r\n            0, // minSI\r\n            0, // minNO\r\n            msg.sender,\r\n            block.timestamp + 300\r\n        );\r\n        \r\n        // 4. Refund remaining tokens to user\r\n        uint256 remSI = tokenSI.balanceOf(address(this));\r\n        if (remSI > 0) tokenSI.transfer(msg.sender, remSI);\r\n        uint256 remNO = tokenNO.balanceOf(address(this));\r\n        if (remNO > 0) tokenNO.transfer(msg.sender, remNO);\r\n    }\r\n    \r\n    // Smart Add Liquidity: Mint -> Rebalance -> Deposit\r\n    // Matches pool ratio to minimize impact/leftovers\r\n    function addLiquidity(uint256 usdcAmount) external returns (uint liquidity) {\r\n        require(usdcAmount > 0, \"Amount > 0\");\r\n        \r\n        // 1. Mint\r\n        require(usdc.transferFrom(msg.sender, address(this), usdcAmount), \"USDC TF failed\");\r\n        usdc.approve(address(vault), usdcAmount);\r\n        vault.mint(usdcAmount);\r\n        \r\n        // 2. Get Reserves\r\n        (uint112 r0, uint112 r1,) = IUniswapV2Pair(pair).getReserves();\r\n        address t0 = IUniswapV2Pair(pair).token0();\r\n        (uint256 rSI, uint256 rNO) = (address(tokenSI) == t0) ? (uint256(r0), uint256(r1)) : (uint256(r1), uint256(r0));\r\n        \r\n        // 3. Calculate Rebalance\r\n        // Current holding: usdcAmount of SI, usdcAmount of NO\r\n        // Target Ratio: rSI / rNO\r\n        // If rSI > rNO: We need more SI. Sell NO -> SI.\r\n        // If rNO > rSI: We need more NO. Sell SI -> NO.\r\n        \r\n        // Use half-excess approximation for swap amount\r\n        // x = (Amt_Have - Amt_Other * (R_Have/R_Other)) / 2\r\n        \r\n        if (rSI > rNO) {\r\n             // Needed: More SI. Swap NO -> SI.\r\n             // Excess NO.\r\n             // Amt_Have = usdcAmount (NO)\r\n             // Amt_Other = usdcAmount (SI)\r\n             // R_Have = rNO, R_Other = rSI\r\n             // But simpler: We have equal amounts A.\r\n             // We want ratio K = rSI / rNO (> 1).\r\n             // Swap x NO for y SI.\r\n             // (A + y) / (A - x) = K.\r\n             // Approximation: y approx x (price near 1? NO price is NOT near 1).\r\n             // We must use Price. Price(NO in SI) = rSI / rNO.\r\n             // y = x * (rSI / rNO).\r\n             // (A + x(rSI/rNO)) / (A - x) = rSI / rNO.\r\n             // Let R = rSI / rNO.\r\n             // (A + xR) = R(A - x) = RA - Rx.\r\n             // xR + Rx = RA - A.\r\n             // 2Rx = A(R - 1).\r\n             // x = A(R - 1) / 2R = A(1 - 1/R) / 2.\r\n             // x = Amount * (1 - rNO/rSI) / 2.\r\n             \r\n             uint256 swapAmount = (usdcAmount * (rSI - rNO)) / rSI / 2;\r\n             \r\n             if (swapAmount > 0) {\r\n                 tokenNO.approve(address(uniswapRouter), swapAmount);\r\n                 address[] memory path = new address[](2);\r\n                 path[0] = address(tokenNO);\r\n                 path[1] = address(tokenSI);\r\n                 uniswapRouter.swapExactTokensForTokens(swapAmount, 0, path, address(this), block.timestamp + 300);\r\n             }\r\n        } else if (rNO > rSI) {\r\n             // Needed: More NO. Swap SI -> NO.\r\n             // Excess SI? No, Ratio NO/SI > 1. SI is scarce?\r\n             // target NO / SI = K > 1.\r\n             // We have 1:1. We need more NO.\r\n             // Swap SI -> NO.\r\n             // x = Amount * (1 - rSI/rNO) / 2.\r\n             \r\n             uint256 swapAmount = (usdcAmount * (rNO - rSI)) / rNO / 2;\r\n             \r\n             if (swapAmount > 0) {\r\n                 tokenSI.approve(address(uniswapRouter), swapAmount);\r\n                 address[] memory path = new address[](2);\r\n                 path[0] = address(tokenSI);\r\n                 path[1] = address(tokenNO);\r\n                 uniswapRouter.swapExactTokensForTokens(swapAmount, 0, path, address(this), block.timestamp + 300);\r\n             }\r\n        }\r\n        \r\n        // 4. Add Liquidity with whatever we have\r\n        uint256 balSI = tokenSI.balanceOf(address(this));\r\n        uint256 balNO = tokenNO.balanceOf(address(this));\r\n        \r\n        tokenSI.approve(address(uniswapRouter), balSI);\r\n        tokenNO.approve(address(uniswapRouter), balNO);\r\n        \r\n        (,, liquidity) = uniswapRouter.addLiquidity(\r\n            address(tokenSI),\r\n            address(tokenNO),\r\n            balSI,\r\n            balNO,\r\n            0,\r\n            0,\r\n            msg.sender,\r\n            block.timestamp + 300\r\n        );\r\n        \r\n        // Refund dust\r\n        uint256 dustSI = tokenSI.balanceOf(address(this));\r\n        if (dustSI > 0) tokenSI.transfer(msg.sender, dustSI);\r\n        uint256 dustNO = tokenNO.balanceOf(address(this));\r\n        if (dustNO > 0) tokenNO.transfer(msg.sender, dustNO);\r\n    }\r\n\r\n    // Fallback for buyNO\r\n    function buyNO(uint256 usdcAmount) external {\r\n        require(usdc.transferFrom(msg.sender, address(this), usdcAmount), \"USDC transfer failed\");\r\n        usdc.approve(address(vault), usdcAmount);\r\n        vault.mint(usdcAmount);\r\n        \r\n        uint256 siBalance = tokenSI.balanceOf(address(this));\r\n        tokenSI.approve(address(uniswapRouter), siBalance);\r\n        \r\n        address[] memory path = new address[](2);\r\n        path[0] = address(tokenSI);\r\n        path[1] = address(tokenNO);\r\n        \r\n        uniswapRouter.swapExactTokensForTokens(\r\n            siBalance,\r\n            0,\r\n            path,\r\n            address(this),\r\n            block.timestamp + 300\r\n        );\r\n        \r\n        uint256 noBalance = tokenNO.balanceOf(address(this));\r\n        tokenNO.transfer(msg.sender, noBalance);\r\n    }\r\n}\r\n",
  "sourcePath": "C:\\Users\\hanti\\Desktop\\Magen-Protocol\\contracts\\MagenRouter.sol",
  "compiler": {
    "name": "solc",
    "version": "0.8.21+commit.d9974bed.Emscripten.clang"
  },
  "schemaVersion": "3.4.16",
  "updatedAt": "2026-02-10T19:10:52.174Z",
  "devdoc": {
    "kind": "dev",
    "methods": {},
    "version": 1
  },
  "userdoc": {
    "kind": "user",
    "methods": {},
    "version": 1
  }
}