{
  "contractName": "MagenRouter",
  "abi": [
    {
      "inputs": [
        {
          "internalType": "address",
          "name": "_vault",
          "type": "address"
        },
        {
          "internalType": "address",
          "name": "_amm",
          "type": "address"
        },
        {
          "internalType": "address",
          "name": "_usdc",
          "type": "address"
        },
        {
          "internalType": "address",
          "name": "_tokenSI",
          "type": "address"
        },
        {
          "internalType": "address",
          "name": "_tokenNO",
          "type": "address"
        }
      ],
      "stateMutability": "nonpayable",
      "type": "constructor"
    },
    {
      "inputs": [],
      "name": "amm",
      "outputs": [
        {
          "internalType": "contract SimpleAMM",
          "name": "",
          "type": "address"
        }
      ],
      "stateMutability": "view",
      "type": "function"
    },
    {
      "inputs": [],
      "name": "tokenNO",
      "outputs": [
        {
          "internalType": "contract IERC20",
          "name": "",
          "type": "address"
        }
      ],
      "stateMutability": "view",
      "type": "function"
    },
    {
      "inputs": [],
      "name": "tokenSI",
      "outputs": [
        {
          "internalType": "contract IERC20",
          "name": "",
          "type": "address"
        }
      ],
      "stateMutability": "view",
      "type": "function"
    },
    {
      "inputs": [],
      "name": "usdc",
      "outputs": [
        {
          "internalType": "contract IERC20",
          "name": "",
          "type": "address"
        }
      ],
      "stateMutability": "view",
      "type": "function"
    },
    {
      "inputs": [],
      "name": "vault",
      "outputs": [
        {
          "internalType": "contract MagenVault",
          "name": "",
          "type": "address"
        }
      ],
      "stateMutability": "view",
      "type": "function"
    },
    {
      "inputs": [
        {
          "internalType": "uint256",
          "name": "amount",
          "type": "uint256"
        },
        {
          "internalType": "uint256",
          "name": "riskPercentage",
          "type": "uint256"
        }
      ],
      "name": "initialize",
      "outputs": [],
      "stateMutability": "nonpayable",
      "type": "function"
    },
    {
      "inputs": [
        {
          "internalType": "uint256",
          "name": "usdcIn",
          "type": "uint256"
        }
      ],
      "name": "buySI",
      "outputs": [],
      "stateMutability": "nonpayable",
      "type": "function"
    },
    {
      "inputs": [
        {
          "internalType": "uint256",
          "name": "usdcIn",
          "type": "uint256"
        }
      ],
      "name": "buyNO",
      "outputs": [],
      "stateMutability": "nonpayable",
      "type": "function"
    },
    {
      "inputs": [
        {
          "internalType": "uint256",
          "name": "siIn",
          "type": "uint256"
        }
      ],
      "name": "sellSI",
      "outputs": [],
      "stateMutability": "nonpayable",
      "type": "function"
    },
    {
      "inputs": [
        {
          "internalType": "uint256",
          "name": "noIn",
          "type": "uint256"
        }
      ],
      "name": "sellNO",
      "outputs": [],
      "stateMutability": "nonpayable",
      "type": "function"
    },
    {
      "inputs": [
        {
          "internalType": "uint256",
          "name": "usdcAmount",
          "type": "uint256"
        }
      ],
      "name": "addLiquidityZap",
      "outputs": [],
      "stateMutability": "nonpayable",
      "type": "function"
    }
  ],
  "bytecode": "0x608060405234801562000010575f80fd5b5060405162002177380380620021778339810160408190526200003391620000b1565b5f80546001600160a01b03199081166001600160a01b039788161790915560018054821695871695909517909455600280548516938616939093179092556003805484169185169190911790556004805490921692169190911790556200011d565b80516001600160a01b0381168114620000ac575f80fd5b919050565b5f805f805f60a08688031215620000c6575f80fd5b620000d18662000095565b9450620000e16020870162000095565b9350620000f16040870162000095565b9250620001016060870162000095565b9150620001116080870162000095565b90509295509295909350565b61204c806200012b5f395ff3fe608060405234801561000f575f80fd5b50600436106100a6575f3560e01c806341abb2e61161006e57806341abb2e6146101275780636ceec5701461013a5780636ef27a631461014d578063e4a3011614610160578063fbfa77cf14610173578063ff1a277c14610185575f80fd5b80631c09b721146100aa5780632a943945146100d957806336c37fff146100ec5780633e413bee146101015780633ffc1be414610114575b5f80fd5b6003546100bd906001600160a01b031681565b6040516001600160a01b03909116815260200160405180910390f35b6001546100bd906001600160a01b031681565b6100ff6100fa366004611ed4565b610198565b005b6002546100bd906001600160a01b031681565b6100ff610122366004611ed4565b61052c565b6100ff610135366004611ed4565b610d84565b6100ff610148366004611ed4565b6113e8565b6100ff61015b366004611ed4565b611733565b6100ff61016e366004611eeb565b6118a4565b5f546100bd906001600160a01b031681565b6004546100bd906001600160a01b031681565b6002546040516323b872dd60e01b81526001600160a01b03909116906323b872dd906101cc90339030908690600401611f0b565b6020604051808303815f875af11580156101e8573d5f803e3d5ffd5b505050506040513d601f19601f8201168201806040525081019061020c9190611f2f565b6102315760405162461bcd60e51b815260040161022890611f55565b60405180910390fd5b6002545f5460405163095ea7b360e01b81526001600160a01b039283169263095ea7b392610266929116908590600401611f83565b6020604051808303815f875af1158015610282573d5f803e3d5ffd5b505050506040513d601f19601f820116820180604052508101906102a69190611f2f565b505f5460405163140e25ad60e31b8152600481018390526001600160a01b039091169063a0712d68906024015f604051808303815f87803b1580156102e9575f80fd5b505af11580156102fb573d5f803e3d5ffd5b5050600480546040516370a0823160e01b815230928101929092525f93506001600160a01b031691506370a0823190602401602060405180830381865afa158015610348573d5f803e3d5ffd5b505050506040513d601f19601f8201168201806040525081019061036c9190611f9c565b90508015610449576004805460015460405163095ea7b360e01b81526001600160a01b039283169363095ea7b3936103a8931691869101611f83565b6020604051808303815f875af11580156103c4573d5f803e3d5ffd5b505050506040513d601f19601f820116820180604052508101906103e89190611f2f565b50600154604051632aea660560e01b8152600481018390525f60248201526001600160a01b0390911690632aea6605906044015f604051808303815f87803b158015610432575f80fd5b505af1158015610444573d5f803e3d5ffd5b505050505b6003546040516370a0823160e01b81523060048201525f916001600160a01b0316906370a0823190602401602060405180830381865afa15801561048f573d5f803e3d5ffd5b505050506040513d601f19601f820116820180604052508101906104b39190611f9c565b60035460405163a9059cbb60e01b81529192506001600160a01b03169063a9059cbb906104e69033908590600401611f83565b6020604051808303815f875af1158015610502573d5f803e3d5ffd5b505050506040513d601f19601f820116820180604052508101906105269190611f2f565b50505050565b6002546040516323b872dd60e01b81526001600160a01b03909116906323b872dd9061056090339030908690600401611f0b565b6020604051808303815f875af115801561057c573d5f803e3d5ffd5b505050506040513d601f19601f820116820180604052508101906105a09190611f2f565b6105bc5760405162461bcd60e51b815260040161022890611f55565b6002545f5460405163095ea7b360e01b81526001600160a01b039283169263095ea7b3926105f1929116908590600401611f83565b6020604051808303815f875af115801561060d573d5f803e3d5ffd5b505050506040513d601f19601f820116820180604052508101906106319190611f2f565b505f5460405163140e25ad60e31b8152600481018390526001600160a01b039091169063a0712d68906024015f604051808303815f87803b158015610674575f80fd5b505af1158015610686573d5f803e3d5ffd5b50506003546040516370a0823160e01b81523060048201525f93506001600160a01b0390911691506370a0823190602401602060405180830381865afa1580156106d2573d5f803e3d5ffd5b505050506040513d601f19601f820116820180604052508101906106f69190611f9c565b600480546040516370a0823160e01b815230928101929092529192505f916001600160a01b0316906370a0823190602401602060405180830381865afa158015610742573d5f803e3d5ffd5b505050506040513d601f19601f820116820180604052508101906107669190611f9c565b6003546001546040516370a0823160e01b81526001600160a01b0391821660048201529293505f929116906370a0823190602401602060405180830381865afa1580156107b5573d5f803e3d5ffd5b505050506040513d601f19601f820116820180604052508101906107d99190611f9c565b600480546001546040516370a0823160e01b81526001600160a01b03918216938101939093529293505f9216906370a0823190602401602060405180830381865afa15801561082a573d5f803e3d5ffd5b505050506040513d601f19601f8201168201806040525081019061084e9190611f9c565b90508383831580159061086057505f83115b156108a8575f846108718585611fc7565b61087b9190611fe4565b905081811161088c578091506108a6565b5f846108988785611fc7565b6108a29190611fe4565b9350505b505b60035460015460405163095ea7b360e01b81526001600160a01b039283169263095ea7b3926108de929116908690600401611f83565b6020604051808303815f875af11580156108fa573d5f803e3d5ffd5b505050506040513d601f19601f8201168201806040525081019061091e9190611f2f565b506004805460015460405163095ea7b360e01b81526001600160a01b039283169363095ea7b393610953931691869101611f83565b6020604051808303815f875af115801561096f573d5f803e3d5ffd5b505050506040513d601f19601f820116820180604052508101906109939190611f2f565b50600154604051634e6a20ed60e11b815260048101849052602481018390526001600160a01b0390911690639cd441da906044016020604051808303815f875af11580156109e3573d5f803e3d5ffd5b505050506040513d601f19601f82011682018060405250810190610a079190611f9c565b506001546040516370a0823160e01b81523060048201525f916001600160a01b0316906370a0823190602401602060405180830381865afa158015610a4e573d5f803e3d5ffd5b505050506040513d601f19601f82011682018060405250810190610a729190611f9c565b90508015610aee5760015460405163a9059cbb60e01b81526001600160a01b039091169063a9059cbb90610aac9033908590600401611f83565b6020604051808303815f875af1158015610ac8573d5f803e3d5ffd5b505050506040513d601f19601f82011682018060405250810190610aec9190611f2f565b505b6003546040516370a0823160e01b81523060048201525f916001600160a01b0316906370a0823190602401602060405180830381865afa158015610b34573d5f803e3d5ffd5b505050506040513d601f19601f82011682018060405250810190610b589190611f9c565b1115610c31576003546040516370a0823160e01b81523060048201526001600160a01b039091169063a9059cbb90339083906370a0823190602401602060405180830381865afa158015610bae573d5f803e3d5ffd5b505050506040513d601f19601f82011682018060405250810190610bd29190611f9c565b6040518363ffffffff1660e01b8152600401610bef929190611f83565b6020604051808303815f875af1158015610c0b573d5f803e3d5ffd5b505050506040513d601f19601f82011682018060405250810190610c2f9190611f2f565b505b600480546040516370a0823160e01b815230928101929092525f916001600160a01b03909116906370a0823190602401602060405180830381865afa158015610c7c573d5f803e3d5ffd5b505050506040513d601f19601f82011682018060405250810190610ca09190611f9c565b1115610d7a57600480546040516370a0823160e01b815230928101929092526001600160a01b03169063a9059cbb90339083906370a0823190602401602060405180830381865afa158015610cf7573d5f803e3d5ffd5b505050506040513d601f19601f82011682018060405250810190610d1b9190611f9c565b6040518363ffffffff1660e01b8152600401610d38929190611f83565b6020604051808303815f875af1158015610d54573d5f803e3d5ffd5b505050506040513d601f19601f82011682018060405250810190610d789190611f2f565b505b5050505050505050565b6003546040516323b872dd60e01b81526001600160a01b03909116906323b872dd90610db890339030908690600401611f0b565b6020604051808303815f875af1158015610dd4573d5f803e3d5ffd5b505050506040513d601f19601f82011682018060405250810190610df89190611f2f565b610e395760405162461bcd60e51b815260206004820152601260248201527114d2481d1c985b9cd9995c8819985a5b195960721b6044820152606401610228565b5f610e45600283611fe4565b60035460015460405163095ea7b360e01b81529293506001600160a01b039182169263095ea7b392610e7d9216908590600401611f83565b6020604051808303815f875af1158015610e99573d5f803e3d5ffd5b505050506040513d601f19601f82011682018060405250810190610ebd9190611f2f565b5060018054604051632aea660560e01b81526004810184905260248101929092526001600160a01b031690632aea6605906044015b5f604051808303815f87803b158015610f09575f80fd5b505af1158015610f1b573d5f803e3d5ffd5b50506003546040516370a0823160e01b81523060048201525f93506001600160a01b0390911691506370a0823190602401602060405180830381865afa158015610f67573d5f803e3d5ffd5b505050506040513d601f19601f82011682018060405250810190610f8b9190611f9c565b600480546040516370a0823160e01b815230928101929092529192505f916001600160a01b0316906370a0823190602401602060405180830381865afa158015610fd7573d5f803e3d5ffd5b505050506040513d601f19601f82011682018060405250810190610ffb9190611f9c565b90505f81831061100b578161100d565b825b9050801561106e575f54604051630852cd8d60e31b8152600481018390526001600160a01b03909116906342966c68906024015f604051808303815f87803b158015611057575f80fd5b505af1158015611069573d5f803e3d5ffd5b505050505b6002546040516370a0823160e01b81523060048201525f916001600160a01b0316906370a0823190602401602060405180830381865afa1580156110b4573d5f803e3d5ffd5b505050506040513d601f19601f820116820180604052508101906110d89190611f9c565b905080156111545760025460405163a9059cbb60e01b81526001600160a01b039091169063a9059cbb906111129033908590600401611f83565b6020604051808303815f875af115801561112e573d5f803e3d5ffd5b505050506040513d601f19601f820116820180604052508101906111529190611f2f565b505b6003546040516370a0823160e01b81523060048201525f916001600160a01b0316906370a0823190602401602060405180830381865afa15801561119a573d5f803e3d5ffd5b505050506040513d601f19601f820116820180604052508101906111be9190611f9c565b1115611297576003546040516370a0823160e01b81523060048201526001600160a01b039091169063a9059cbb90339083906370a0823190602401602060405180830381865afa158015611214573d5f803e3d5ffd5b505050506040513d601f19601f820116820180604052508101906112389190611f9c565b6040518363ffffffff1660e01b8152600401611255929190611f83565b6020604051808303815f875af1158015611271573d5f803e3d5ffd5b505050506040513d601f19601f820116820180604052508101906112959190611f2f565b505b600480546040516370a0823160e01b815230928101929092525f916001600160a01b03909116906370a0823190602401602060405180830381865afa1580156112e2573d5f803e3d5ffd5b505050506040513d601f19601f820116820180604052508101906113069190611f9c565b11156113e057600480546040516370a0823160e01b815230928101929092526001600160a01b03169063a9059cbb90339083906370a0823190602401602060405180830381865afa15801561135d573d5f803e3d5ffd5b505050506040513d601f19601f820116820180604052508101906113819190611f9c565b6040518363ffffffff1660e01b815260040161139e929190611f83565b6020604051808303815f875af11580156113ba573d5f803e3d5ffd5b505050506040513d601f19601f820116820180604052508101906113de9190611f2f565b505b505050505050565b6002546040516323b872dd60e01b81526001600160a01b03909116906323b872dd9061141c90339030908690600401611f0b565b6020604051808303815f875af1158015611438573d5f803e3d5ffd5b505050506040513d601f19601f8201168201806040525081019061145c9190611f2f565b6114785760405162461bcd60e51b815260040161022890611f55565b6002545f5460405163095ea7b360e01b81526001600160a01b039283169263095ea7b3926114ad929116908590600401611f83565b6020604051808303815f875af11580156114c9573d5f803e3d5ffd5b505050506040513d601f19601f820116820180604052508101906114ed9190611f2f565b505f5460405163140e25ad60e31b8152600481018390526001600160a01b039091169063a0712d68906024015f604051808303815f87803b158015611530575f80fd5b505af1158015611542573d5f803e3d5ffd5b50506003546040516370a0823160e01b81523060048201525f93506001600160a01b0390911691506370a0823190602401602060405180830381865afa15801561158e573d5f803e3d5ffd5b505050506040513d601f19601f820116820180604052508101906115b29190611f9c565b905080156116925760035460015460405163095ea7b360e01b81526001600160a01b039283169263095ea7b3926115f0929116908590600401611f83565b6020604051808303815f875af115801561160c573d5f803e3d5ffd5b505050506040513d601f19601f820116820180604052508101906116309190611f2f565b5060018054604051632aea660560e01b81526004810184905260248101929092526001600160a01b031690632aea6605906044015f604051808303815f87803b15801561167b575f80fd5b505af115801561168d573d5f803e3d5ffd5b505050505b600480546040516370a0823160e01b815230928101929092525f916001600160a01b03909116906370a0823190602401602060405180830381865afa1580156116dd573d5f803e3d5ffd5b505050506040513d601f19601f820116820180604052508101906117019190611f9c565b6004805460405163a9059cbb60e01b81529293506001600160a01b03169163a9059cbb916104e6913391869101611f83565b600480546040516323b872dd60e01b81526001600160a01b03909116916323b872dd916117669133913091879101611f0b565b6020604051808303815f875af1158015611782573d5f803e3d5ffd5b505050506040513d601f19601f820116820180604052508101906117a69190611f2f565b6117e75760405162461bcd60e51b81526020600482015260126024820152711393c81d1c985b9cd9995c8819985a5b195960721b6044820152606401610228565b5f6117f3600283611fe4565b6004805460015460405163095ea7b360e01b81529394506001600160a01b039182169363095ea7b39361182c9390921691869101611f83565b6020604051808303815f875af1158015611848573d5f803e3d5ffd5b505050506040513d601f19601f8201168201806040525081019061186c9190611f2f565b50600154604051632aea660560e01b8152600481018390525f60248201526001600160a01b0390911690632aea660590604401610ef2565b5f811180156118b35750606481105b6118ee5760405162461bcd60e51b815260206004820152600c60248201526b496e76616c6964207269736b60a01b6044820152606401610228565b6002546040516323b872dd60e01b81526001600160a01b03909116906323b872dd9061192290339030908790600401611f0b565b6020604051808303815f875af115801561193e573d5f803e3d5ffd5b505050506040513d601f19601f820116820180604052508101906119629190611f2f565b61197e5760405162461bcd60e51b815260040161022890611f55565b6002545f5460405163095ea7b360e01b81526001600160a01b039283169263095ea7b3926119b3929116908690600401611f83565b6020604051808303815f875af11580156119cf573d5f803e3d5ffd5b505050506040513d601f19601f820116820180604052508101906119f39190611f2f565b505f5460405163140e25ad60e31b8152600481018490526001600160a01b039091169063a0712d68906024015f604051808303815f87803b158015611a36575f80fd5b505af1158015611a48573d5f803e3d5ffd5b505050505f8060328311611a7f57839150611a64836064612003565b611a6e8484611fc7565b611a789190611fe4565b9050611aa4565b508282611a8d816064612003565b611a979083611fc7565b611aa19190611fe4565b91505b60035460015460405163095ea7b360e01b81526001600160a01b039283169263095ea7b392611ada929116908690600401611f83565b6020604051808303815f875af1158015611af6573d5f803e3d5ffd5b505050506040513d601f19601f82011682018060405250810190611b1a9190611f2f565b506004805460015460405163095ea7b360e01b81526001600160a01b039283169363095ea7b393611b4f931691869101611f83565b6020604051808303815f875af1158015611b6b573d5f803e3d5ffd5b505050506040513d601f19601f82011682018060405250810190611b8f9190611f2f565b50600154604051634e6a20ed60e11b815260048101849052602481018390526001600160a01b0390911690639cd441da906044016020604051808303815f875af1158015611bdf573d5f803e3d5ffd5b505050506040513d601f19601f82011682018060405250810190611c039190611f9c565b506001546040516370a0823160e01b81523060048201525f916001600160a01b0316906370a0823190602401602060405180830381865afa158015611c4a573d5f803e3d5ffd5b505050506040513d601f19601f82011682018060405250810190611c6e9190611f9c565b1115611d47576001546040516370a0823160e01b81523060048201526001600160a01b039091169063a9059cbb90339083906370a0823190602401602060405180830381865afa158015611cc4573d5f803e3d5ffd5b505050506040513d601f19601f82011682018060405250810190611ce89190611f9c565b6040518363ffffffff1660e01b8152600401611d05929190611f83565b6020604051808303815f875af1158015611d21573d5f803e3d5ffd5b505050506040513d601f19601f82011682018060405250810190611d459190611f2f565b505b6003546040516370a0823160e01b81523060048201525f916001600160a01b0316906370a0823190602401602060405180830381865afa158015611d8d573d5f803e3d5ffd5b505050506040513d601f19601f82011682018060405250810190611db19190611f9c565b600480546040516370a0823160e01b815230928101929092529192505f916001600160a01b0316906370a0823190602401602060405180830381865afa158015611dfd573d5f803e3d5ffd5b505050506040513d601f19601f82011682018060405250810190611e219190611f9c565b90508115611e9d5760035460405163a9059cbb60e01b81526001600160a01b039091169063a9059cbb90611e5b9033908690600401611f83565b6020604051808303815f875af1158015611e77573d5f803e3d5ffd5b505050506040513d601f19601f82011682018060405250810190611e9b9190611f2f565b505b80156113e0576004805460405163a9059cbb60e01b81526001600160a01b039091169163a9059cbb9161139e913391869101611f83565b5f60208284031215611ee4575f80fd5b5035919050565b5f8060408385031215611efc575f80fd5b50508035926020909101359150565b6001600160a01b039384168152919092166020820152604081019190915260600190565b5f60208284031215611f3f575f80fd5b81518015158114611f4e575f80fd5b9392505050565b6020808252601490820152731554d110c81d1c985b9cd9995c8819985a5b195960621b604082015260600190565b6001600160a01b03929092168252602082015260400190565b5f60208284031215611fac575f80fd5b5051919050565b634e487b7160e01b5f52601160045260245ffd5b8082028115828204841417611fde57611fde611fb3565b92915050565b5f82611ffe57634e487b7160e01b5f52601260045260245ffd5b500490565b81810381811115611fde57611fde611fb356fea2646970667358221220d52fcf450b367c66c421d2cb1c56fc2cfdd45f15ea00b5d30536788725ff578164736f6c63430008150033",
  "immutableReferences": {},
  "source": "// SPDX-License-Identifier: MIT\r\npragma solidity ^0.8.0;\r\n\r\nimport \"@openzeppelin/contracts/token/ERC20/IERC20.sol\";\r\nimport \"./MagenVault.sol\";\r\nimport \"./SimpleAMM.sol\";\r\n\r\ncontract MagenRouter {\r\n    MagenVault public vault;\r\n    SimpleAMM public amm;\r\n    IERC20 public usdc;\r\n    IERC20 public tokenSI;\r\n    IERC20 public tokenNO;\r\n\r\n    constructor(address _vault, address _amm, address _usdc, address _tokenSI, address _tokenNO) {\r\n        vault = MagenVault(_vault);\r\n        amm = SimpleAMM(_amm);\r\n        usdc = IERC20(_usdc);\r\n        tokenSI = IERC20(_tokenSI);\r\n        tokenNO = IERC20(_tokenNO);\r\n    }\r\n\r\n    function initialize(uint256 amount, uint256 riskPercentage) external {\r\n        // riskPercentage is 0-100.\r\n        // Price SI = riskPercentage / 100.\r\n        // Price NO = (100 - riskPercentage) / 100.\r\n        // Ratio R_NO / R_SI = P_SI / P_NO = risk / (100 - risk).\r\n        \r\n        require(riskPercentage > 0 && riskPercentage < 100, \"Invalid risk\");\r\n\r\n        // 1. Transfer USDC from User to Router\r\n        require(usdc.transferFrom(msg.sender, address(this), amount), \"USDC transfer failed\");\r\n        \r\n        // 2. Approve Vault\r\n        usdc.approve(address(vault), amount);\r\n\r\n        // 3. Router calls mint. Vault pulls USDC from Router. Mints SI/NO to Router.\r\n        vault.mint(amount);\r\n\r\n        // 4. Create Pool using MAX liquidity (Zap Style)\r\n        // Strategy: Use as much minted SI/NO as possible to satisfy the risk ratio.\r\n        \r\n        uint256 liqSI;\r\n        uint256 liqNO;\r\n        \r\n        // Ratio R_NO / R_SI = risk / (100 - risk)\r\n        // If risk <= 50, then risk / (100-risk) <= 1. So NO <= SI.\r\n        // We use all SI, and a fraction of NO.\r\n        // Wait, check: if risk = 10. Ratio = 10/90 = 1/9. \r\n        // 1 SI requires 1/9 NO. \r\n        // We have 100 SI, 100 NO. \r\n        // We use 100 SI. We need 11.11 NO. We have 100 NO. OK.\r\n        \r\n        if (riskPercentage <= 50) {\r\n             liqSI = amount;\r\n             liqNO = (liqSI * riskPercentage) / (100 - riskPercentage);\r\n        } else {\r\n             // risk > 50. Ratio > 1. NO > SI.\r\n             // We use all NO.\r\n             liqNO = amount;\r\n             liqSI = (liqNO * (100 - riskPercentage)) / riskPercentage;\r\n        }\r\n\r\n        tokenSI.approve(address(amm), liqSI);\r\n        tokenNO.approve(address(amm), liqNO);\r\n        amm.addLiquidity(liqSI, liqNO);\r\n        \r\n        // 5. Send LP tokens to User\r\n        if (amm.balanceOf(address(this)) > 0) {\r\n            amm.transfer(msg.sender, amm.balanceOf(address(this)));\r\n        }\r\n\r\n        // 6. Refund remaining SI/NO to User\r\n        uint256 remSI = tokenSI.balanceOf(address(this));\r\n        uint256 remNO = tokenNO.balanceOf(address(this));\r\n        \r\n        if (remSI > 0) tokenSI.transfer(msg.sender, remSI);\r\n        if (remNO > 0) tokenNO.transfer(msg.sender, remNO);\r\n    }\r\n\r\n    function buySI(uint256 usdcIn) external {\r\n        // 1. User -> USDC -> Router\r\n        require(usdc.transferFrom(msg.sender, address(this), usdcIn), \"USDC transfer failed\");\r\n        \r\n        // 2. Router -> Vault Mint\r\n        usdc.approve(address(vault), usdcIn);\r\n        vault.mint(usdcIn); // Router gets SI/NO\r\n        \r\n        // 3. Swap NO for SI\r\n        uint256 amountNO = tokenNO.balanceOf(address(this));\r\n        if (amountNO > 0) {\r\n             tokenNO.approve(address(amm), amountNO);\r\n             // Swap NO -> SI\r\n             amm.swap(amountNO, false); // isSIIn = false (selling NO)\r\n        }\r\n\r\n        // 4. Send all SI to User\r\n        uint256 totalSI = tokenSI.balanceOf(address(this));\r\n        tokenSI.transfer(msg.sender, totalSI);\r\n    }\r\n    \r\n    function buyNO(uint256 usdcIn) external {\r\n        // 1. User -> USDC -> Router\r\n        require(usdc.transferFrom(msg.sender, address(this), usdcIn), \"USDC transfer failed\");\r\n        \r\n        // 2. Router -> Vault Mint\r\n        usdc.approve(address(vault), usdcIn);\r\n        vault.mint(usdcIn); // Router gets SI/NO\r\n        \r\n        // 3. Swap SI for NO\r\n        uint256 amountSI = tokenSI.balanceOf(address(this));\r\n        if (amountSI > 0) {\r\n            tokenSI.approve(address(amm), amountSI);\r\n            // Swap SI -> NO\r\n            amm.swap(amountSI, true); // isSIIn = true (selling SI)\r\n        }\r\n\r\n        // 4. Send all NO to User\r\n        uint256 totalNO = tokenNO.balanceOf(address(this));\r\n        tokenNO.transfer(msg.sender, totalNO);\r\n    }\r\n\r\n    function sellSI(uint256 siIn) external {\r\n        // 1. User -> SI -> Router\r\n        require(tokenSI.transferFrom(msg.sender, address(this), siIn), \"SI transfer failed\");\r\n\r\n        // 2. Sell part of SI for NO to match balances for burning.\r\n        // Heuristic: swap roughly half to get the other side.\r\n        // Optimally we'd calc exact capability, but 50% is close enough for MVP.\r\n        uint256 sellAmount = siIn / 2;\r\n        tokenSI.approve(address(amm), sellAmount);\r\n        amm.swap(sellAmount, true); // isSIIn = true (selling SI)\r\n\r\n        // 3. Burn what we have\r\n        uint256 balSI = tokenSI.balanceOf(address(this));\r\n        uint256 balNO = tokenNO.balanceOf(address(this));\r\n        uint256 burnAmount = balSI < balNO ? balSI : balNO;\r\n        \r\n        if (burnAmount > 0) {\r\n            vault.burn(burnAmount);\r\n        }\r\n\r\n        // 4. Send USDC to User + dust SI/NO\r\n        uint256 usdcBal = usdc.balanceOf(address(this));\r\n        if (usdcBal > 0) usdc.transfer(msg.sender, usdcBal);\r\n\r\n        if (tokenSI.balanceOf(address(this)) > 0) tokenSI.transfer(msg.sender, tokenSI.balanceOf(address(this)));\r\n        if (tokenNO.balanceOf(address(this)) > 0) tokenNO.transfer(msg.sender, tokenNO.balanceOf(address(this)));\r\n    }\r\n\r\n    function sellNO(uint256 noIn) external {\r\n        // 1. User -> NO -> Router\r\n        require(tokenNO.transferFrom(msg.sender, address(this), noIn), \"NO transfer failed\");\r\n\r\n        // 2. Sell part of NO for SI\r\n        uint256 sellAmount = noIn / 2;\r\n        tokenNO.approve(address(amm), sellAmount);\r\n        amm.swap(sellAmount, false); // isSIIn = false (selling NO)\r\n\r\n        // 3. Burn what we have\r\n        uint256 balSI = tokenSI.balanceOf(address(this));\r\n        uint256 balNO = tokenNO.balanceOf(address(this));\r\n        uint256 burnAmount = balSI < balNO ? balSI : balNO;\r\n        \r\n        if (burnAmount > 0) {\r\n            vault.burn(burnAmount);\r\n        }\r\n\r\n        // 4. Send USDC to User + dust SI/NO\r\n        uint256 usdcBal = usdc.balanceOf(address(this));\r\n        if (usdcBal > 0) usdc.transfer(msg.sender, usdcBal);\r\n\r\n        if (tokenSI.balanceOf(address(this)) > 0) tokenSI.transfer(msg.sender, tokenSI.balanceOf(address(this)));\r\n        if (tokenNO.balanceOf(address(this)) > 0) tokenNO.transfer(msg.sender, tokenNO.balanceOf(address(this)));\r\n    }\r\n    function addLiquidityZap(uint256 usdcAmount) external {\r\n        // 1. User -> USDC -> Router\r\n        require(usdc.transferFrom(msg.sender, address(this), usdcAmount), \"USDC transfer failed\");\r\n\r\n        // 2. Mint SI + NO\r\n        usdc.approve(address(vault), usdcAmount);\r\n        vault.mint(usdcAmount); \r\n\r\n        // Current Balances\r\n        uint256 balSI = tokenSI.balanceOf(address(this));\r\n        uint256 balNO = tokenNO.balanceOf(address(this));\r\n\r\n        uint256 rSI = tokenSI.balanceOf(address(amm));\r\n        uint256 rNO = tokenNO.balanceOf(address(amm));\r\n\r\n        uint256 amtSI = balSI;\r\n        uint256 amtNO = balNO;\r\n\r\n        if (rSI > 0 && rNO > 0) {\r\n            // Check Optimal NO amount for the available SI\r\n            uint256 optimalNO = (amtSI * rNO) / rSI;\r\n            if (optimalNO <= amtNO) {\r\n                // We have enough NO, so use all SI and optimal NO\r\n                amtNO = optimalNO;\r\n            } else {\r\n                // We don't have enough NO, implies we have \"too much\" SI for the ratio? \r\n                // Wait. if optimalNO > amtNO, it means we need MORE NO than we have to match the SI.\r\n                // So SI is the abundance. We should limit SI.\r\n                uint256 optimalSI = (amtNO * rSI) / rNO;\r\n                amtSI = optimalSI;\r\n            }\r\n        }\r\n\r\n        // 3. Add Liquidity\r\n        tokenSI.approve(address(amm), amtSI);\r\n        tokenNO.approve(address(amm), amtNO);\r\n        amm.addLiquidity(amtSI, amtNO);\r\n\r\n        // 4. Send LP tokens to User\r\n        uint256 lpBal = amm.balanceOf(address(this));\r\n        if (lpBal > 0) {\r\n            amm.transfer(msg.sender, lpBal);\r\n        }\r\n\r\n        // 5. Refund Dust/Difference\r\n        if (tokenSI.balanceOf(address(this)) > 0) tokenSI.transfer(msg.sender, tokenSI.balanceOf(address(this)));\r\n        if (tokenNO.balanceOf(address(this)) > 0) tokenNO.transfer(msg.sender, tokenNO.balanceOf(address(this)));\r\n    }\r\n}\r\n",
  "sourcePath": "C:\\Users\\hanti\\Desktop\\Magen-Protocol\\contracts\\MagenRouter.sol",
  "compiler": {
    "name": "solc",
    "version": "0.8.21+commit.d9974bed.Emscripten.clang"
  },
  "schemaVersion": "3.4.16",
  "updatedAt": "2026-02-07T19:57:27.363Z",
  "devdoc": {
    "kind": "dev",
    "methods": {},
    "version": 1
  },
  "userdoc": {
    "kind": "user",
    "methods": {},
    "version": 1
  }
}