{
  "contractName": "MagenRouter",
  "abi": [
    {
      "inputs": [
        {
          "internalType": "address",
          "name": "_vault",
          "type": "address"
        },
        {
          "internalType": "address",
          "name": "_amm",
          "type": "address"
        },
        {
          "internalType": "address",
          "name": "_usdc",
          "type": "address"
        },
        {
          "internalType": "address",
          "name": "_tokenSI",
          "type": "address"
        },
        {
          "internalType": "address",
          "name": "_tokenNO",
          "type": "address"
        }
      ],
      "stateMutability": "nonpayable",
      "type": "constructor"
    },
    {
      "inputs": [],
      "name": "amm",
      "outputs": [
        {
          "internalType": "contract SimpleAMM",
          "name": "",
          "type": "address"
        }
      ],
      "stateMutability": "view",
      "type": "function"
    },
    {
      "inputs": [],
      "name": "tokenNO",
      "outputs": [
        {
          "internalType": "contract IERC20",
          "name": "",
          "type": "address"
        }
      ],
      "stateMutability": "view",
      "type": "function"
    },
    {
      "inputs": [],
      "name": "tokenSI",
      "outputs": [
        {
          "internalType": "contract IERC20",
          "name": "",
          "type": "address"
        }
      ],
      "stateMutability": "view",
      "type": "function"
    },
    {
      "inputs": [],
      "name": "usdc",
      "outputs": [
        {
          "internalType": "contract IERC20",
          "name": "",
          "type": "address"
        }
      ],
      "stateMutability": "view",
      "type": "function"
    },
    {
      "inputs": [],
      "name": "vault",
      "outputs": [
        {
          "internalType": "contract MagenVault",
          "name": "",
          "type": "address"
        }
      ],
      "stateMutability": "view",
      "type": "function"
    },
    {
      "inputs": [
        {
          "internalType": "uint256",
          "name": "usdcAmount",
          "type": "uint256"
        }
      ],
      "name": "buySI",
      "outputs": [],
      "stateMutability": "nonpayable",
      "type": "function"
    },
    {
      "inputs": [
        {
          "internalType": "uint256",
          "name": "tokenAmount",
          "type": "uint256"
        }
      ],
      "name": "sellSI",
      "outputs": [],
      "stateMutability": "nonpayable",
      "type": "function"
    },
    {
      "inputs": [
        {
          "internalType": "uint256",
          "name": "usdcAmount",
          "type": "uint256"
        }
      ],
      "name": "buyNO",
      "outputs": [],
      "stateMutability": "nonpayable",
      "type": "function"
    },
    {
      "inputs": [
        {
          "internalType": "uint256",
          "name": "tokenAmount",
          "type": "uint256"
        }
      ],
      "name": "sellNO",
      "outputs": [],
      "stateMutability": "nonpayable",
      "type": "function"
    }
  ],
  "bytecode": "0x608060405234801562000010575f80fd5b506040516200161b3803806200161b8339810160408190526200003391620000b1565b5f80546001600160a01b03199081166001600160a01b039788161790915560018054821695871695909517909455600280548516938616939093179092556003805484169185169190911790556004805490921692169190911790556200011d565b80516001600160a01b0381168114620000ac575f80fd5b919050565b5f805f805f60a08688031215620000c6575f80fd5b620000d18662000095565b9450620000e16020870162000095565b9350620000f16040870162000095565b9250620001016060870162000095565b9150620001116080870162000095565b90509295509295909350565b6114f0806200012b5f395ff3fe608060405234801561000f575f80fd5b5060043610610090575f3560e01c806341abb2e61161006357806341abb2e6146100fe5780636ceec570146101115780636ef27a6314610124578063fbfa77cf14610137578063ff1a277c14610149575f80fd5b80631c09b721146100945780632a943945146100c357806336c37fff146100d65780633e413bee146100eb575b5f80fd5b6003546100a7906001600160a01b031681565b6040516001600160a01b03909116815260200160405180910390f35b6001546100a7906001600160a01b031681565b6100e96100e436600461132d565b61015c565b005b6002546100a7906001600160a01b031681565b6100e961010c36600461132d565b610517565b6100e961011f36600461132d565b610aee565b6100e961013236600461132d565b610e62565b5f546100a7906001600160a01b031681565b6004546100a7906001600160a01b031681565b6002546040516323b872dd60e01b81526001600160a01b03909116906323b872dd9061019090339030908690600401611344565b6020604051808303815f875af11580156101ac573d5f803e3d5ffd5b505050506040513d601f19601f820116820180604052508101906101d09190611368565b6102185760405162461bcd60e51b81526020600482015260146024820152731554d110c81d1c985b9cd9995c8819985a5b195960621b60448201526064015b60405180910390fd5b6002545f5460405163095ea7b360e01b81526001600160a01b0391821660048201526024810184905291169063095ea7b3906044016020604051808303815f875af1158015610269573d5f803e3d5ffd5b505050506040513d601f19601f8201168201806040525081019061028d9190611368565b505f5460405163140e25ad60e31b8152600481018390526001600160a01b039091169063a0712d68906024015f604051808303815f87803b1580156102d0575f80fd5b505af11580156102e2573d5f803e3d5ffd5b5050600480546040516370a0823160e01b815230928101929092525f93506001600160a01b031691506370a0823190602401602060405180830381865afa15801561032f573d5f803e3d5ffd5b505050506040513d601f19601f8201168201806040525081019061035391906113a7565b6004805460015460405163095ea7b360e01b81526001600160a01b039182169381019390935260248301849052929350919091169063095ea7b3906044016020604051808303815f875af11580156103ad573d5f803e3d5ffd5b505050506040513d601f19601f820116820180604052508101906103d19190611368565b50600154604051632aea660560e01b8152600481018390525f60248201526001600160a01b0390911690632aea6605906044015f604051808303815f87803b15801561041b575f80fd5b505af115801561042d573d5f803e3d5ffd5b50506003546040516370a0823160e01b81523060048201525f93506001600160a01b0390911691506370a0823190602401602060405180830381865afa158015610479573d5f803e3d5ffd5b505050506040513d601f19601f8201168201806040525081019061049d91906113a7565b60035460405163a9059cbb60e01b8152336004820152602481018390529192506001600160a01b03169063a9059cbb906044015b6020604051808303815f875af11580156104ed573d5f803e3d5ffd5b505050506040513d601f19601f820116820180604052508101906105119190611368565b50505050565b5f811161055b5760405162461bcd60e51b81526020600482015260126024820152710416d6f756e74206d757374206265203e20360741b604482015260640161020f565b6003546040516323b872dd60e01b81526001600160a01b03909116906323b872dd9061058f90339030908690600401611344565b6020604051808303815f875af11580156105ab573d5f803e3d5ffd5b505050506040513d601f19601f820116820180604052508101906105cf9190611368565b6106105760405162461bcd60e51b8152602060048201526012602482015271151c985b9cd9995c8814d24819985a5b195960721b604482015260640161020f565b5f8060015f9054906101000a90046001600160a01b03166001600160a01b031663397151ea6040518163ffffffff1660e01b8152600401602060405180830381865afa158015610662573d5f803e3d5ffd5b505050506040513d601f19601f8201168201806040525081019061068691906113a7565b60015f9054906101000a90046001600160a01b03166001600160a01b031663b76162d76040518163ffffffff1660e01b8152600401602060405180830381865afa1580156106d6573d5f803e3d5ffd5b505050506040513d601f19601f820116820180604052508101906106fa91906113a7565b91509150815f148061070a575080155b156107575760405162461bcd60e51b815260206004820152601f60248201527f496e73756666696369656e74206c697175696469747920666f722073656c6c00604482015260640161020f565b5f828285838161076785856113d2565b61077191906113f9565b90505f61077e858461141f565b61078790611454565b90505f61079582600461141f565b61079f848061141f565b6107a991906113f9565b90505f6107b5826111d5565b90505f816107c286611454565b6107cc91906113d2565b90506107d9600282611482565b60035460015460405163095ea7b360e01b8152929b506001600160a01b039182169a5063095ea7b3995061081b9850169550899450600401925061138e915050565b6020604051808303815f875af1158015610837573d5f803e3d5ffd5b505050506040513d601f19601f8201168201806040525081019061085b9190611368565b5060018054604051632aea660560e01b81526004810184905260248101929092526001600160a01b031690632aea6605906044015b5f604051808303815f87803b1580156108a7575f80fd5b505af11580156108b9573d5f803e3d5ffd5b50506003546040516370a0823160e01b81523060048201525f93506001600160a01b0390911691506370a0823190602401602060405180830381865afa158015610905573d5f803e3d5ffd5b505050506040513d601f19601f8201168201806040525081019061092991906113a7565b600480546040516370a0823160e01b815230928101929092529192505f916001600160a01b0316906370a0823190602401602060405180830381865afa158015610975573d5f803e3d5ffd5b505050506040513d601f19601f8201168201806040525081019061099991906113a7565b90505f8183106109a957816109ab565b825b5f54604051630852cd8d60e31b8152600481018390529192506001600160a01b0316906342966c68906024015f604051808303815f87803b1580156109ee575f80fd5b505af1158015610a00573d5f803e3d5ffd5b50506002546040516370a0823160e01b81523060048201525f93506001600160a01b0390911691506370a0823190602401602060405180830381865afa158015610a4c573d5f803e3d5ffd5b505050506040513d601f19601f82011682018060405250810190610a7091906113a7565b60025460405163a9059cbb60e01b8152336004820152602481018390529192506001600160a01b03169063a9059cbb906044016020604051808303815f875af1158015610abf573d5f803e3d5ffd5b505050506040513d601f19601f82011682018060405250810190610ae39190611368565b505050505050505050565b6002546040516323b872dd60e01b81526001600160a01b03909116906323b872dd90610b2290339030908690600401611344565b6020604051808303815f875af1158015610b3e573d5f803e3d5ffd5b505050506040513d601f19601f82011682018060405250810190610b629190611368565b610ba55760405162461bcd60e51b81526020600482015260146024820152731554d110c81d1c985b9cd9995c8819985a5b195960621b604482015260640161020f565b6002545f5460405163095ea7b360e01b81526001600160a01b0391821660048201526024810184905291169063095ea7b3906044016020604051808303815f875af1158015610bf6573d5f803e3d5ffd5b505050506040513d601f19601f82011682018060405250810190610c1a9190611368565b505f5460405163140e25ad60e31b8152600481018390526001600160a01b039091169063a0712d68906024015f604051808303815f87803b158015610c5d575f80fd5b505af1158015610c6f573d5f803e3d5ffd5b50506003546040516370a0823160e01b81523060048201525f93506001600160a01b0390911691506370a0823190602401602060405180830381865afa158015610cbb573d5f803e3d5ffd5b505050506040513d601f19601f82011682018060405250810190610cdf91906113a7565b60035460015460405163095ea7b360e01b81526001600160a01b03918216600482015260248101849052929350169063095ea7b3906044016020604051808303815f875af1158015610d33573d5f803e3d5ffd5b505050506040513d601f19601f82011682018060405250810190610d579190611368565b5060018054604051632aea660560e01b81526004810184905260248101929092526001600160a01b031690632aea6605906044015f604051808303815f87803b158015610da2575f80fd5b505af1158015610db4573d5f803e3d5ffd5b5050600480546040516370a0823160e01b815230928101929092525f93506001600160a01b031691506370a0823190602401602060405180830381865afa158015610e01573d5f803e3d5ffd5b505050506040513d601f19601f82011682018060405250810190610e2591906113a7565b6004805460405163a9059cbb60e01b81523392810192909252602482018390529192506001600160a01b039091169063a9059cbb906044016104d1565b5f8111610ea65760405162461bcd60e51b81526020600482015260126024820152710416d6f756e74206d757374206265203e20360741b604482015260640161020f565b600480546040516323b872dd60e01b81526001600160a01b03909116916323b872dd91610ed99133913091879101611344565b6020604051808303815f875af1158015610ef5573d5f803e3d5ffd5b505050506040513d601f19601f82011682018060405250810190610f199190611368565b610f5a5760405162461bcd60e51b8152602060048201526012602482015271151c985b9cd9995c881393c819985a5b195960721b604482015260640161020f565b5f8060015f9054906101000a90046001600160a01b03166001600160a01b031663397151ea6040518163ffffffff1660e01b8152600401602060405180830381865afa158015610fac573d5f803e3d5ffd5b505050506040513d601f19601f82011682018060405250810190610fd091906113a7565b60015f9054906101000a90046001600160a01b03166001600160a01b031663b76162d76040518163ffffffff1660e01b8152600401602060405180830381865afa158015611020573d5f803e3d5ffd5b505050506040513d601f19601f8201168201806040525081019061104491906113a7565b91509150815f1480611054575080155b1561109a5760405162461bcd60e51b8152602060048201526016602482015275496e73756666696369656e74206c697175696469747960501b604482015260640161020f565b5f82828583816110aa85856113d2565b6110b491906113f9565b90505f6110c1848461141f565b6110ca90611454565b90505f6110d882600461141f565b6110e2848061141f565b6110ec91906113f9565b90505f6110f8826111d5565b90505f8161110586611454565b61110f91906113d2565b905061111c600282611482565b6004805460015460405163095ea7b360e01b8152939c506001600160a01b039182169b5063095ea7b39a5061115d99501696508a955001925061138e915050565b6020604051808303815f875af1158015611179573d5f803e3d5ffd5b505050506040513d601f19601f8201168201806040525081019061119d9190611368565b50600154604051632aea660560e01b8152600481018390525f60248201526001600160a01b0390911690632aea660590604401610890565b5f600182116111e2575090565b816001600160801b82106111fb5760809190911c9060401b5b6801000000000000000082106112165760409190911c9060201b5b640100000000821061122d5760209190911c9060101b5b6201000082106112425760109190911c9060081b5b61010082106112565760089190911c9060041b5b601082106112695760049190911c9060021b5b600482106112755760011b5b600302600190811c9081858161128d5761128d61146e565b048201901c905060018185816112a5576112a561146e565b048201901c905060018185816112bd576112bd61146e565b048201901c905060018185816112d5576112d561146e565b048201901c905060018185816112ed576112ed61146e565b048201901c905060018185816113055761130561146e565b048201901c905061132481858161131e5761131e61146e565b04821190565b90039392505050565b5f6020828403121561133d575f80fd5b5035919050565b6001600160a01b039384168152919092166020820152604081019190915260600190565b5f60208284031215611378575f80fd5b81518015158114611387575f80fd5b9392505050565b6001600160a01b03929092168252602082015260400190565b5f602082840312156113b7575f80fd5b5051919050565b634e487b7160e01b5f52601160045260245ffd5b8082018281125f8312801582168215821617156113f1576113f16113be565b505092915050565b8181035f831280158383131683831282161715611418576114186113be565b5092915050565b8082025f8212600160ff1b8414161561143a5761143a6113be565b818105831482151761144e5761144e6113be565b92915050565b5f600160ff1b8201611468576114686113be565b505f0390565b634e487b7160e01b5f52601260045260245ffd5b5f8261149c57634e487b7160e01b5f52601260045260245ffd5b600160ff1b82145f19841416156114b5576114b56113be565b50059056fea26469706673582212204eaf03d7fb2e1706c1a64ba27a9c087db10abf75430bf4c0c992b5f03b5f66f164736f6c63430008150033",
  "immutableReferences": {},
  "source": "// SPDX-License-Identifier: MIT\r\npragma solidity ^0.8.0;\r\n\r\nimport \"@openzeppelin/contracts/token/ERC20/IERC20.sol\";\r\nimport \"@openzeppelin/contracts/utils/math/Math.sol\";\r\nimport \"./MagenVault.sol\";\r\nimport \"./SimpleAMM.sol\";\r\n\r\ncontract MagenRouter {\r\n    MagenVault public vault;\r\n    SimpleAMM public amm;\r\n    IERC20 public usdc;\r\n    IERC20 public tokenSI;\r\n    IERC20 public tokenNO;\r\n\r\n    constructor(address _vault, address _amm, address _usdc, address _tokenSI, address _tokenNO) {\r\n        vault = MagenVault(_vault);\r\n        amm = SimpleAMM(_amm);\r\n        usdc = IERC20(_usdc);\r\n        tokenSI = IERC20(_tokenSI);\r\n        tokenNO = IERC20(_tokenNO);\r\n    }\r\n\r\n    // Buy SI with USDC: Mint SI+NO, Swap NO -> SI, Return SI\r\n    function buySI(uint256 usdcAmount) external {\r\n        require(usdc.transferFrom(msg.sender, address(this), usdcAmount), \"USDC transfer failed\");\r\n        \r\n        // Approve Vault to spend USDC\r\n        usdc.approve(address(vault), usdcAmount);\r\n        \r\n        // Mint SI + NO to Router\r\n        vault.mint(usdcAmount);\r\n        \r\n        // Swap NO for SI\r\n        // NO amount to swap is the amount we just minted = usdcAmount\r\n        uint256 noBalance = tokenNO.balanceOf(address(this));\r\n        tokenNO.approve(address(amm), noBalance);\r\n        \r\n        // amm.swap(amountIn, isSIIn) -> isSIIn=false for NO input\r\n        amm.swap(noBalance, false);\r\n        \r\n        // Transfer total SI to user\r\n        uint256 siBalance = tokenSI.balanceOf(address(this));\r\n        tokenSI.transfer(msg.sender, siBalance);\r\n    }\r\n\r\n    // Sell SI for USDC: Swap x SI -> y NO until SI == NO, Burn for USDC\r\n    function sellSI(uint256 tokenAmount) external {\r\n        require(tokenAmount > 0, \"Amount must be > 0\");\r\n        require(tokenSI.transferFrom(msg.sender, address(this), tokenAmount), \"Transfer SI failed\");\r\n\r\n        // Calculate amount of SI to swap for NO to reach 1:1 ratio\r\n        // We want (tokenAmount - x) == (reserveNO * x) / (reserveSI + x)\r\n        // x^2 + (reserveNO + reserveSI - tokenAmount)x - (tokenAmount * reserveSI) = 0\r\n        \r\n        (uint256 reserveSI, uint256 reserveNO) = (amm.reserveSI(), amm.reserveNO());\r\n        \r\n        // If reserves are empty, we can't swap. This implies no liquidity.\r\n        if (reserveSI == 0 || reserveNO == 0) {\r\n            // Fallback: if no liquidity, we can't perform the swap-to-balance.\r\n            // But user wants USDC. If 1:1 is impossible, revert or handle?\r\n            revert(\"Insufficient liquidity for sell\");\r\n        }\r\n\r\n        /*\r\n           Equation: x^2 + bx + c = 0\r\n           b = (reserveNO + reserveSI) - tokenAmount\r\n           c = - (tokenAmount * reserveSI)\r\n           \r\n           We need to be careful with signed integers here since 'b' can be negative.\r\n           Let's use int256 for calculation.\r\n        */\r\n        \r\n        uint256 amountToSwap;\r\n        {\r\n            int256 R_si = int256(reserveSI);\r\n            int256 R_no = int256(reserveNO);\r\n            int256 T = int256(tokenAmount);\r\n            \r\n            int256 b = (R_no + R_si) - T;\r\n            int256 c = -(T * R_si); // This is negative\r\n            \r\n            // Discriminant = b^2 - 4ac (a=1) -> b^2 - 4c\r\n            // Since c is negative, -4c is positive.\r\n            uint256 D = uint256(b * b - (4 * c)); \r\n            uint256 sqrtD = Math.sqrt(D);\r\n            \r\n            // Root x = (-b + sqrtD) / 2\r\n            int256 num = -b + int256(sqrtD);\r\n            amountToSwap = uint256(num / 2);\r\n        }\r\n        \r\n        // Perform Swap\r\n        tokenSI.approve(address(amm), amountToSwap);\r\n        amm.swap(amountToSwap, true); // isSIIn = true (Sell SI, Buy NO)\r\n        \r\n        // Now balances should be roughly equal\r\n        uint256 balSI = tokenSI.balanceOf(address(this));\r\n        uint256 balNO = tokenNO.balanceOf(address(this));\r\n        \r\n        // Burn the minimum of the two to convert to USDC\r\n        uint256 burnAmount = balSI < balNO ? balSI : balNO;\r\n        \r\n        // Approve Vault (OutcomeTokens are burnt by vault, need allowance? \r\n        // No, vault.burn() calls token.burn() from msg.sender. \r\n        // Wait, MagenVault.burn():\r\n        // tokenSI.burn(msg.sender, amount);\r\n        // So Router (msg.sender) must hold the tokens. Correct.\r\n        // Vault DOES NOT transferFrom, it calls burn directly on the token.\r\n        // Token must allow Vault to burn? No, burn is usually restricted.\r\n        \r\n        // Let's check OutcomeToken.sol or MagenVault.burn logic.\r\n        // Vault calls `tokenSI.burn(msg.sender, amount)`\r\n        // If OutcomeToken is standard Ownable ERC20 with burn access control, \r\n        // and Vault is Owner (which it IS from PoolFactory), it can burn from anyone?\r\n        // Or Vault calls burn on ITSELF?\r\n        // \"tokenSI.burn(msg.sender, amount)\" -> Burn from msg.sender (Router).\r\n        // Usually `burn(address account, uint256 amount)` requires `account` to be msg.sender OR allowance.\r\n        // But if Vault is the OWNER of the token, and the token has a `burn` function that allows Owner to burn?\r\n        \r\n        // Let's assume Vault has permission.\r\n        \r\n        vault.burn(burnAmount);\r\n        \r\n        // Return USDC to user\r\n        uint256 usdcBal = usdc.balanceOf(address(this));\r\n        usdc.transfer(msg.sender, usdcBal);\r\n        \r\n        // Refund dust checks? (Remaining SI/NO < epsilon)\r\n        // For now, leave dust in Router.\r\n    }\r\n\r\n    // Buy NO with USDC\r\n    function buyNO(uint256 usdcAmount) external {\r\n        require(usdc.transferFrom(msg.sender, address(this), usdcAmount), \"USDC transfer failed\");\r\n        usdc.approve(address(vault), usdcAmount);\r\n        vault.mint(usdcAmount);\r\n        \r\n        // Swap SI for NO (We have equal SI/NO, swap SI -> NO)\r\n        uint256 siBalance = tokenSI.balanceOf(address(this));\r\n        tokenSI.approve(address(amm), siBalance);\r\n        amm.swap(siBalance, true); // isSIIn=true\r\n        \r\n        uint256 noBalance = tokenNO.balanceOf(address(this));\r\n        tokenNO.transfer(msg.sender, noBalance);\r\n    }\r\n    \r\n    // Sell NO for USDC\r\n    function sellNO(uint256 tokenAmount) external {\r\n         require(tokenAmount > 0, \"Amount must be > 0\");\r\n        require(tokenNO.transferFrom(msg.sender, address(this), tokenAmount), \"Transfer NO failed\");\r\n\r\n        (uint256 reserveSI, uint256 reserveNO) = (amm.reserveSI(), amm.reserveNO());\r\n        \r\n        if (reserveSI == 0 || reserveNO == 0) revert(\"Insufficient liquidity\");\r\n\r\n        // Swap NO -> SI until NO == SI\r\n        // Equation: x^2 + (R_si + R_no - T)x - (T * R_no) = 0\r\n        // Same structure, just swap reserves\r\n        \r\n        uint256 amountToSwap;\r\n        {\r\n            int256 R_si = int256(reserveSI);\r\n            int256 R_no = int256(reserveNO);\r\n            int256 T = int256(tokenAmount);\r\n            \r\n            int256 b = (R_no + R_si) - T;\r\n            int256 c = -(T * R_no);\r\n            \r\n            uint256 D = uint256(b * b - (4 * c));\r\n            uint256 sqrtD = Math.sqrt(D);\r\n            \r\n            int256 num = -b + int256(sqrtD);\r\n            amountToSwap = uint256(num / 2);\r\n        }\r\n        \r\n        tokenNO.approve(address(amm), amountToSwap);\r\n        amm.swap(amountToSwap, false); // isSIIn=false (Sell NO, Buy SI)\r\n        \r\n        uint256 balSI = tokenSI.balanceOf(address(this));\r\n        uint256 balNO = tokenNO.balanceOf(address(this));\r\n        uint256 burnAmount = balSI < balNO ? balSI : balNO;\r\n        \r\n        vault.burn(burnAmount);\r\n        \r\n        uint256 usdcBal = usdc.balanceOf(address(this));\r\n        usdc.transfer(msg.sender, usdcBal);\r\n    }\r\n}\r\n",
  "sourcePath": "C:\\Users\\hanti\\Desktop\\Magen-Protocol\\contracts\\MagenRouter.sol",
  "compiler": {
    "name": "solc",
    "version": "0.8.21+commit.d9974bed.Emscripten.clang"
  },
  "schemaVersion": "3.4.16",
  "updatedAt": "2026-02-09T22:42:22.318Z",
  "devdoc": {
    "kind": "dev",
    "methods": {},
    "version": 1
  },
  "userdoc": {
    "kind": "user",
    "methods": {},
    "version": 1
  }
}