{
  "contractName": "MockUniswapV2Router02",
  "abi": [
    {
      "inputs": [
        {
          "internalType": "address",
          "name": "_factory",
          "type": "address"
        }
      ],
      "stateMutability": "nonpayable",
      "type": "constructor"
    },
    {
      "inputs": [],
      "name": "WETH",
      "outputs": [
        {
          "internalType": "address",
          "name": "",
          "type": "address"
        }
      ],
      "stateMutability": "view",
      "type": "function"
    },
    {
      "inputs": [],
      "name": "factory",
      "outputs": [
        {
          "internalType": "address",
          "name": "",
          "type": "address"
        }
      ],
      "stateMutability": "view",
      "type": "function"
    },
    {
      "inputs": [
        {
          "internalType": "address",
          "name": "tokenA",
          "type": "address"
        },
        {
          "internalType": "address",
          "name": "tokenB",
          "type": "address"
        },
        {
          "internalType": "uint256",
          "name": "amountADesired",
          "type": "uint256"
        },
        {
          "internalType": "uint256",
          "name": "amountBDesired",
          "type": "uint256"
        },
        {
          "internalType": "uint256",
          "name": "",
          "type": "uint256"
        },
        {
          "internalType": "uint256",
          "name": "",
          "type": "uint256"
        },
        {
          "internalType": "address",
          "name": "to",
          "type": "address"
        },
        {
          "internalType": "uint256",
          "name": "",
          "type": "uint256"
        }
      ],
      "name": "addLiquidity",
      "outputs": [
        {
          "internalType": "uint256",
          "name": "amountA",
          "type": "uint256"
        },
        {
          "internalType": "uint256",
          "name": "amountB",
          "type": "uint256"
        },
        {
          "internalType": "uint256",
          "name": "liquidity",
          "type": "uint256"
        }
      ],
      "stateMutability": "nonpayable",
      "type": "function"
    },
    {
      "inputs": [
        {
          "internalType": "uint256",
          "name": "amountIn",
          "type": "uint256"
        },
        {
          "internalType": "uint256",
          "name": "",
          "type": "uint256"
        },
        {
          "internalType": "address[]",
          "name": "path",
          "type": "address[]"
        },
        {
          "internalType": "address",
          "name": "to",
          "type": "address"
        },
        {
          "internalType": "uint256",
          "name": "",
          "type": "uint256"
        }
      ],
      "name": "swapExactTokensForTokens",
      "outputs": [
        {
          "internalType": "uint256[]",
          "name": "amounts",
          "type": "uint256[]"
        }
      ],
      "stateMutability": "nonpayable",
      "type": "function"
    }
  ],
  "bytecode": "0x608060405234801561000f575f80fd5b50604051610bae380380610bae83398101604081905261002e91610059565b5f80546001600160a01b039092166001600160a01b0319928316179055600180549091169055610086565b5f60208284031215610069575f80fd5b81516001600160a01b038116811461007f575f80fd5b9392505050565b610b1b806100935f395ff3fe608060405234801561000f575f80fd5b506004361061004a575f3560e01c806338ed17391461004e578063ad5c464814610077578063c45a0155146100a2578063e8e33700146100b4575b5f80fd5b61006161005c366004610845565b6100e2565b60405161006e91906108df565b60405180910390f35b60015461008a906001600160a01b031681565b6040516001600160a01b03909116815260200161006e565b5f5461008a906001600160a01b031681565b6100c76100c2366004610922565b6105b2565b6040805193845260208401929092529082015260600161006e565b5f8054606091906001600160a01b031663e6a439058787848161010757610107610999565b905060200201602081019061011c91906109ad565b8888600181811061012f5761012f610999565b905060200201602081019061014491906109ad565b6040516001600160e01b031960e085901b1681526001600160a01b03928316600482015291166024820152604401602060405180830381865afa15801561018d573d5f803e3d5ffd5b505050506040513d601f19601f820116820180604052508101906101b191906109cf565b90506001600160a01b0381166101ff5760405162461bcd60e51b815260206004820152600e60248201526d14185a5c881b9bdd08199bdd5b9960921b60448201526064015b60405180910390fd5b85855f81811061021157610211610999565b905060200201602081019061022691906109ad565b6040516323b872dd60e01b81523360048201526001600160a01b038381166024830152604482018b905291909116906323b872dd906064016020604051808303815f875af115801561027a573d5f803e3d5ffd5b505050506040513d601f19601f8201168201806040525081019061029e91906109ea565b505f80826001600160a01b0316630902f1ac6040518163ffffffff1660e01b8152600401606060405180830381865afa1580156102dd573d5f803e3d5ffd5b505050506040513d601f19601f820116820180604052508101906103019190610a1f565b50915091505f836001600160a01b0316630dfe16816040518163ffffffff1660e01b8152600401602060405180830381865afa158015610343573d5f803e3d5ffd5b505050506040513d601f19601f8201168201806040525081019061036791906109cf565b90505f80826001600160a01b03168b8b5f81811061038757610387610999565b905060200201602081019061039c91906109ad565b6001600160a01b0316146103c357836001600160701b0316856001600160701b03166103d8565b846001600160701b0316846001600160701b03165b915091505f821180156103ea57505f81115b61042e5760405162461bcd60e51b8152602060048201526015602482015274496e73756666696369656e7420726573657276657360581b60448201526064016101f6565b60408051600280825260608201835290916020830190803683370190505096508c875f8151811061046157610461610999565b60209081029190910101526104768d83610a7f565b610480828f610a98565b61048a9190610aaf565b8760018151811061049d5761049d610999565b6020026020010181815250505f80846001600160a01b03168d8d5f8181106104c7576104c7610999565b90506020020160208101906104dc91906109ad565b6001600160a01b03161461050b57886001815181106104fd576104fd610999565b60200260200101515f610528565b5f8960018151811061051f5761051f610999565b60200260200101515b60405163022c0d9f60e01b815260048101839052602481018290526001600160a01b038e81166044830152608060648301525f60848301529294509092509089169063022c0d9f9060a4015f604051808303815f87803b15801561058a575f80fd5b505af115801561059c573d5f803e3d5ffd5b5050505050505050505050509695505050505050565b5f805460405163e6a4390560e01b81526001600160a01b038b811660048301528a811660248301528392839283929091169063e6a4390590604401602060405180830381865afa158015610608573d5f803e3d5ffd5b505050506040513d601f19601f8201168201806040525081019061062c91906109cf565b90506001600160a01b0381166106b3575f546040516364e329cb60e11b81526001600160a01b038e811660048301528d811660248301529091169063c9c65396906044016020604051808303815f875af115801561068c573d5f803e3d5ffd5b505050506040513d601f19601f820116820180604052508101906106b091906109cf565b90505b6040516323b872dd60e01b81523360048201526001600160a01b038281166024830152604482018c90528d16906323b872dd906064016020604051808303815f875af1158015610705573d5f803e3d5ffd5b505050506040513d601f19601f8201168201806040525081019061072991906109ea565b506040516323b872dd60e01b81523360048201526001600160a01b038281166024830152604482018b90528c16906323b872dd906064016020604051808303815f875af115801561077c573d5f803e3d5ffd5b505050506040513d601f19601f820116820180604052508101906107a091906109ea565b506040516335313c2160e11b81526001600160a01b038781166004830152821690636a627842906024016020604051808303815f875af11580156107e6573d5f803e3d5ffd5b505050506040513d601f19601f8201168201806040525081019061080a9190610ace565b999c989b5098995096975050505050505050565b6001600160a01b0381168114610832575f80fd5b50565b80356108408161081e565b919050565b5f805f805f8060a0878903121561085a575f80fd5b8635955060208701359450604087013567ffffffffffffffff8082111561087f575f80fd5b818901915089601f830112610892575f80fd5b8135818111156108a0575f80fd5b8a60208260051b85010111156108b4575f80fd5b6020830196508095505050506108cc60608801610835565b9150608087013590509295509295509295565b602080825282518282018190525f9190848201906040850190845b81811015610916578351835292840192918401916001016108fa565b50909695505050505050565b5f805f805f805f80610100898b03121561093a575f80fd5b88356109458161081e565b975060208901356109558161081e565b965060408901359550606089013594506080890135935060a0890135925060c08901356109818161081e565b8092505060e089013590509295985092959890939650565b634e487b7160e01b5f52603260045260245ffd5b5f602082840312156109bd575f80fd5b81356109c88161081e565b9392505050565b5f602082840312156109df575f80fd5b81516109c88161081e565b5f602082840312156109fa575f80fd5b815180151581146109c8575f80fd5b80516001600160701b0381168114610840575f80fd5b5f805f60608486031215610a31575f80fd5b610a3a84610a09565b9250610a4860208501610a09565b9150604084015163ffffffff81168114610a60575f80fd5b809150509250925092565b634e487b7160e01b5f52601160045260245ffd5b80820180821115610a9257610a92610a6b565b92915050565b8082028115828204841417610a9257610a92610a6b565b5f82610ac957634e487b7160e01b5f52601260045260245ffd5b500490565b5f60208284031215610ade575f80fd5b505191905056fea2646970667358221220727f877c89f3503014c5a7f8fdc197a8d4afa830a950e73087b6fb3f6081604564736f6c63430008150033",
  "immutableReferences": {},
  "source": "// SPDX-License-Identifier: MIT\r\npragma solidity ^0.8.0;\r\n\r\nimport \"../interfaces/IUniswapV2.sol\";\r\nimport \"@openzeppelin/contracts/token/ERC20/ERC20.sol\";\r\n\r\ncontract MockUniswapV2Pair is ERC20 {\r\n    address public token0;\r\n    address public token1;\r\n    uint112 private reserve0;\r\n    uint112 private reserve1;\r\n    uint32 private blockTimestampLast;\r\n\r\n    constructor() ERC20(\"Uniswap V2\", \"UNI-V2\") {}\r\n\r\n    function initialize(address _token0, address _token1) external {\r\n        token0 = _token0;\r\n        token1 = _token1;\r\n    }\r\n\r\n    function getReserves() external view returns (uint112, uint112, uint32) {\r\n        return (reserve0, reserve1, blockTimestampLast);\r\n    }\r\n\r\n    function mint(address to) external returns (uint liquidity) {\r\n        uint balance0 = IERC20(token0).balanceOf(address(this));\r\n        uint balance1 = IERC20(token1).balanceOf(address(this));\r\n        uint amount0 = balance0 - reserve0;\r\n        uint amount1 = balance1 - reserve1;\r\n        \r\n        liquidity = amount0; // Simplified\r\n        _mint(to, liquidity);\r\n        \r\n        reserve0 = uint112(balance0);\r\n        reserve1 = uint112(balance1);\r\n    }\r\n\r\n    function burn(address to) external returns (uint amount0, uint amount1) {\r\n        uint balance0 = IERC20(token0).balanceOf(address(this));\r\n        uint balance1 = IERC20(token1).balanceOf(address(this));\r\n        uint liquidity = balanceOf(address(this));\r\n\r\n        amount0 = (liquidity * balance0) / totalSupply();\r\n        amount1 = (liquidity * balance1) / totalSupply();\r\n        \r\n        _burn(address(this), liquidity);\r\n        \r\n        IERC20(token0).transfer(to, amount0);\r\n        IERC20(token1).transfer(to, amount1);\r\n        \r\n        reserve0 = uint112(IERC20(token0).balanceOf(address(this)));\r\n        reserve1 = uint112(IERC20(token1).balanceOf(address(this)));\r\n    }\r\n\r\n    function swap(uint amount0Out, uint amount1Out, address to, bytes calldata) external {\r\n        if (amount0Out > 0) IERC20(token0).transfer(to, amount0Out);\r\n        if (amount1Out > 0) IERC20(token1).transfer(to, amount1Out);\r\n        \r\n        reserve0 = uint112(IERC20(token0).balanceOf(address(this)));\r\n        reserve1 = uint112(IERC20(token1).balanceOf(address(this)));\r\n    }\r\n}\r\n\r\ncontract MockUniswapV2Factory {\r\n    mapping(address => mapping(address => address)) public getPair;\r\n    address[] public allPairs;\r\n\r\n    function createPair(address tokenA, address tokenB) external returns (address pair) {\r\n        MockUniswapV2Pair newPair = new MockUniswapV2Pair();\r\n        newPair.initialize(tokenA, tokenB);\r\n        pair = address(newPair);\r\n        getPair[tokenA][tokenB] = pair;\r\n        getPair[tokenB][tokenA] = pair;\r\n        allPairs.push(pair);\r\n    }\r\n}\r\n\r\ncontract MockUniswapV2Router02 {\r\n    address public factory;\r\n    address public WETH;\r\n\r\n    constructor(address _factory) {\r\n        factory = _factory;\r\n        WETH = address(0); \r\n    }\r\n\r\n    function addLiquidity(\r\n        address tokenA,\r\n        address tokenB,\r\n        uint amountADesired,\r\n        uint amountBDesired,\r\n        uint, uint, address to, uint\r\n    ) external returns (uint amountA, uint amountB, uint liquidity) {\r\n        address pair = MockUniswapV2Factory(factory).getPair(tokenA, tokenB);\r\n        if (pair == address(0)) {\r\n            pair = MockUniswapV2Factory(factory).createPair(tokenA, tokenB);\r\n        }\r\n        \r\n        IERC20(tokenA).transferFrom(msg.sender, pair, amountADesired);\r\n        IERC20(tokenB).transferFrom(msg.sender, pair, amountBDesired);\r\n        \r\n        liquidity = MockUniswapV2Pair(pair).mint(to);\r\n        amountA = amountADesired;\r\n        amountB = amountBDesired;\r\n    }\r\n\r\n    function swapExactTokensForTokens(\r\n        uint amountIn,\r\n        uint,\r\n        address[] calldata path,\r\n        address to,\r\n        uint\r\n    ) external returns (uint[] memory amounts) {\r\n        address pair = MockUniswapV2Factory(factory).getPair(path[0], path[1]);\r\n        require(pair != address(0), \"Pair not found\");\r\n\r\n        // Transfer Input to Pair\r\n        IERC20(path[0]).transferFrom(msg.sender, pair, amountIn);\r\n        \r\n        // Simplified CPAMM Swap Logic (No Fee for Mock)\r\n        // y_out = (x_in * R_y) / (R_x + x_in)\r\n        \r\n        (uint112 r0, uint112 r1,) = MockUniswapV2Pair(pair).getReserves();\r\n        address t0 = MockUniswapV2Pair(pair).token0();\r\n        \r\n        (uint reserveIn, uint reserveOut) = (path[0] == t0) ? (uint(r0), uint(r1)) : (uint(r1), uint(r0));\r\n        \r\n        require(reserveIn > 0 && reserveOut > 0, \"Insufficient reserves\");\r\n\r\n        amounts = new uint[](2);\r\n        amounts[0] = amountIn;\r\n        amounts[1] = (amountIn * reserveOut) / (reserveIn + amountIn);\r\n        \r\n        (uint amount0Out, uint amount1Out) = (path[0] == t0) ? (uint(0), amounts[1]) : (amounts[1], uint(0));\r\n        \r\n        MockUniswapV2Pair(pair).swap(amount0Out, amount1Out, to, \"\");\r\n    }\r\n}\r\n",
  "sourcePath": "C:\\Users\\hanti\\Desktop\\Magen-Protocol\\contracts\\mock\\MockUniswapV2.sol",
  "compiler": {
    "name": "solc",
    "version": "0.8.21+commit.d9974bed.Emscripten.clang"
  },
  "schemaVersion": "3.4.16",
  "updatedAt": "2026-02-10T02:06:27.040Z",
  "networkType": "ethereum",
  "devdoc": {
    "kind": "dev",
    "methods": {},
    "version": 1
  },
  "userdoc": {
    "kind": "user",
    "methods": {},
    "version": 1
  }
}