{
  "contractName": "MockUniswapV2Factory",
  "abi": [
    {
      "inputs": [
        {
          "internalType": "uint256",
          "name": "",
          "type": "uint256"
        }
      ],
      "name": "allPairs",
      "outputs": [
        {
          "internalType": "address",
          "name": "",
          "type": "address"
        }
      ],
      "stateMutability": "view",
      "type": "function"
    },
    {
      "inputs": [
        {
          "internalType": "address",
          "name": "",
          "type": "address"
        },
        {
          "internalType": "address",
          "name": "",
          "type": "address"
        }
      ],
      "name": "getPair",
      "outputs": [
        {
          "internalType": "address",
          "name": "",
          "type": "address"
        }
      ],
      "stateMutability": "view",
      "type": "function"
    },
    {
      "inputs": [
        {
          "internalType": "address",
          "name": "tokenA",
          "type": "address"
        },
        {
          "internalType": "address",
          "name": "tokenB",
          "type": "address"
        }
      ],
      "name": "createPair",
      "outputs": [
        {
          "internalType": "address",
          "name": "pair",
          "type": "address"
        }
      ],
      "stateMutability": "nonpayable",
      "type": "function"
    }
  ],
  "bytecode": "0x608060405234801561000f575f80fd5b5061152d8061001d5f395ff3fe608060405234801561000f575f80fd5b506004361061003f575f3560e01c80631e3dd18b14610043578063c9c6539614610072578063e6a4390514610085575b5f80fd5b610056610051366004610204565b6100b5565b6040516001600160a01b03909116815260200160405180910390f35b610056610080366004610236565b6100dd565b610056610093366004610236565b5f6020818152928152604080822090935290815220546001600160a01b031681565b600181815481106100c4575f80fd5b5f918252602090912001546001600160a01b0316905081565b5f806040516100eb906101f7565b604051809103905ff080158015610104573d5f803e3d5ffd5b5060405163485cc95560e01b81526001600160a01b03868116600483015285811660248301529192509082169063485cc955906044015f604051808303815f87803b158015610151575f80fd5b505af1158015610163573d5f803e3d5ffd5b505050506001600160a01b039384165f81815260208181526040808320968816835295815285822080546001600160a01b0319908116988616988917909155828252868320938352929052938420805482168617905560018054808201825594527fb10e2d527612073b26eecdfd717e6a320cf44b4afac2b0732d9fcbe2b7fa0cf690930180549093169093179091555090565b6112908061026883390190565b5f60208284031215610214575f80fd5b5035919050565b80356001600160a01b0381168114610231575f80fd5b919050565b5f8060408385031215610247575f80fd5b6102508361021b565b915061025e6020840161021b565b9050925092905056fe608060405234801562000010575f80fd5b506040518060400160405280600a8152602001692ab734b9bbb0b8102b1960b11b815250604051806040016040528060068152602001652aa72496ab1960d11b81525081600390816200006491906200011c565b5060046200007382826200011c565b505050620001e4565b634e487b7160e01b5f52604160045260245ffd5b600181811c90821680620000a557607f821691505b602082108103620000c457634e487b7160e01b5f52602260045260245ffd5b50919050565b601f82111562000117575f81815260208120601f850160051c81016020861015620000f25750805b601f850160051c820191505b818110156200011357828155600101620000fe565b5050505b505050565b81516001600160401b038111156200013857620001386200007c565b620001508162000149845462000090565b84620000ca565b602080601f83116001811462000186575f84156200016e5750858301515b5f19600386901b1c1916600185901b17855562000113565b5f85815260208120601f198616915b82811015620001b65788860151825594840194600190910190840162000195565b5085821015620001d457878501515f19600388901b60f8161c191681555b5050505050600190811b01905550565b61109e80620001f25f395ff3fe608060405234801561000f575f80fd5b50600436106100fb575f3560e01c8063485cc9551161009357806395d89b411161006357806395d89b411461028e578063a9059cbb14610296578063d21220a7146102a9578063dd62ed3e146102bc575f80fd5b8063485cc955146101ef5780636a6278421461022b57806370a082311461023e57806389afcb4414610266575f80fd5b80630dfe1681116100ce5780630dfe16811461019057806318160ddd146101bb57806323b872dd146101cd578063313ce567146101e0575f80fd5b8063022c0d9f146100ff57806306fdde03146101145780630902f1ac14610132578063095ea7b31461016d575b5f80fd5b61011261010d366004610e01565b6102f4565b005b61011c61050d565b6040516101299190610e8d565b60405180910390f35b600754604080516001600160701b038084168252600160701b8404166020820152600160e01b90920463ffffffff1690820152606001610129565b61018061017b366004610ed8565b61059d565b6040519015158152602001610129565b6005546101a3906001600160a01b031681565b6040516001600160a01b039091168152602001610129565b6002545b604051908152602001610129565b6101806101db366004610f00565b6105b6565b60405160128152602001610129565b6101126101fd366004610f39565b600580546001600160a01b039384166001600160a01b03199182161790915560068054929093169116179055565b6101bf610239366004610f6a565b6105d9565b6101bf61024c366004610f6a565b6001600160a01b03165f9081526020819052604090205490565b610279610274366004610f6a565b610738565b60408051928352602083019190915201610129565b61011c610a76565b6101806102a4366004610ed8565b610a85565b6006546101a3906001600160a01b031681565b6101bf6102ca366004610f39565b6001600160a01b039182165f90815260016020908152604080832093909416825291909152205490565b84156103705760055460405163a9059cbb60e01b81526001600160a01b038581166004830152602482018890529091169063a9059cbb906044016020604051808303815f875af115801561034a573d5f803e3d5ffd5b505050506040513d601f19601f8201168201806040525081019061036e9190610f8a565b505b83156103ec5760065460405163a9059cbb60e01b81526001600160a01b038581166004830152602482018790529091169063a9059cbb906044016020604051808303815f875af11580156103c6573d5f803e3d5ffd5b505050506040513d601f19601f820116820180604052508101906103ea9190610f8a565b505b6005546040516370a0823160e01b81523060048201526001600160a01b03909116906370a0823190602401602060405180830381865afa158015610432573d5f803e3d5ffd5b505050506040513d601f19601f820116820180604052508101906104569190610fa9565b600780546001600160701b0319166001600160701b03929092169190911790556006546040516370a0823160e01b81523060048201526001600160a01b03909116906370a0823190602401602060405180830381865afa1580156104bc573d5f803e3d5ffd5b505050506040513d601f19601f820116820180604052508101906104e09190610fa9565b6007600e6101000a8154816001600160701b0302191690836001600160701b031602179055505050505050565b60606003805461051c90610fc0565b80601f016020809104026020016040519081016040528092919081815260200182805461054890610fc0565b80156105935780601f1061056a57610100808354040283529160200191610593565b820191905f5260205f20905b81548152906001019060200180831161057657829003601f168201915b5050505050905090565b5f336105aa818585610a92565b60019150505b92915050565b5f336105c3858285610aa4565b6105ce858585610b25565b506001949350505050565b6005546040516370a0823160e01b81523060048201525f9182916001600160a01b03909116906370a0823190602401602060405180830381865afa158015610623573d5f803e3d5ffd5b505050506040513d601f19601f820116820180604052508101906106479190610fa9565b6006546040516370a0823160e01b81523060048201529192505f916001600160a01b03909116906370a0823190602401602060405180830381865afa158015610692573d5f803e3d5ffd5b505050506040513d601f19601f820116820180604052508101906106b69190610fa9565b6007549091505f906106d1906001600160701b03168461100c565b6007549091505f906106f390600160701b90046001600160701b03168461100c565b90508194506107028686610b82565b5050600780546001600160701b03928316600160701b026001600160e01b03199091169290931691909117919091179055919050565b6005546040516370a0823160e01b81523060048201525f91829182916001600160a01b0316906370a0823190602401602060405180830381865afa158015610782573d5f803e3d5ffd5b505050506040513d601f19601f820116820180604052508101906107a69190610fa9565b6006546040516370a0823160e01b81523060048201529192505f916001600160a01b03909116906370a0823190602401602060405180830381865afa1580156107f1573d5f803e3d5ffd5b505050506040513d601f19601f820116820180604052508101906108159190610fa9565b305f9081526020819052604090205460025491925090610835848361101f565b61083f9190611036565b945061084a60025490565b610854838361101f565b61085e9190611036565b935061086a3082610bba565b60055460405163a9059cbb60e01b81526001600160a01b038881166004830152602482018890529091169063a9059cbb906044016020604051808303815f875af11580156108ba573d5f803e3d5ffd5b505050506040513d601f19601f820116820180604052508101906108de9190610f8a565b5060065460405163a9059cbb60e01b81526001600160a01b038881166004830152602482018790529091169063a9059cbb906044016020604051808303815f875af115801561092f573d5f803e3d5ffd5b505050506040513d601f19601f820116820180604052508101906109539190610f8a565b506005546040516370a0823160e01b81523060048201526001600160a01b03909116906370a0823190602401602060405180830381865afa15801561099a573d5f803e3d5ffd5b505050506040513d601f19601f820116820180604052508101906109be9190610fa9565b600780546001600160701b0319166001600160701b03929092169190911790556006546040516370a0823160e01b81523060048201526001600160a01b03909116906370a0823190602401602060405180830381865afa158015610a24573d5f803e3d5ffd5b505050506040513d601f19601f82011682018060405250810190610a489190610fa9565b6007600e6101000a8154816001600160701b0302191690836001600160701b03160217905550505050915091565b60606004805461051c90610fc0565b5f336105aa818585610b25565b610a9f8383836001610bee565b505050565b6001600160a01b038381165f908152600160209081526040808320938616835292905220545f19811015610b1f5781811015610b1157604051637dc7a0d960e11b81526001600160a01b038416600482015260248101829052604481018390526064015b60405180910390fd5b610b1f84848484035f610bee565b50505050565b6001600160a01b038316610b4e57604051634b637e8f60e11b81525f6004820152602401610b08565b6001600160a01b038216610b775760405163ec442f0560e01b81525f6004820152602401610b08565b610a9f838383610cc0565b6001600160a01b038216610bab5760405163ec442f0560e01b81525f6004820152602401610b08565b610bb65f8383610cc0565b5050565b6001600160a01b038216610be357604051634b637e8f60e11b81525f6004820152602401610b08565b610bb6825f83610cc0565b6001600160a01b038416610c175760405163e602df0560e01b81525f6004820152602401610b08565b6001600160a01b038316610c4057604051634a1406b160e11b81525f6004820152602401610b08565b6001600160a01b038085165f9081526001602090815260408083209387168352929052208290558015610b1f57826001600160a01b0316846001600160a01b03167f8c5be1e5ebec7d5bd14f71427d1e84f3dd0314c0f7b2291e5b200ac8c7c3b92584604051610cb291815260200190565b60405180910390a350505050565b6001600160a01b038316610cea578060025f828254610cdf9190611055565b90915550610d5a9050565b6001600160a01b0383165f9081526020819052604090205481811015610d3c5760405163391434e360e21b81526001600160a01b03851660048201526024810182905260448101839052606401610b08565b6001600160a01b0384165f9081526020819052604090209082900390555b6001600160a01b038216610d7657600280548290039055610d94565b6001600160a01b0382165f9081526020819052604090208054820190555b816001600160a01b0316836001600160a01b03167fddf252ad1be2c89b69c2b068fc378daa952ba7f163c4a11628f55a4df523b3ef83604051610dd991815260200190565b60405180910390a3505050565b80356001600160a01b0381168114610dfc575f80fd5b919050565b5f805f805f60808688031215610e15575f80fd5b8535945060208601359350610e2c60408701610de6565b9250606086013567ffffffffffffffff80821115610e48575f80fd5b818801915088601f830112610e5b575f80fd5b813581811115610e69575f80fd5b896020828501011115610e7a575f80fd5b9699959850939650602001949392505050565b5f6020808352835180828501525f5b81811015610eb857858101830151858201604001528201610e9c565b505f604082860101526040601f19601f8301168501019250505092915050565b5f8060408385031215610ee9575f80fd5b610ef283610de6565b946020939093013593505050565b5f805f60608486031215610f12575f80fd5b610f1b84610de6565b9250610f2960208501610de6565b9150604084013590509250925092565b5f8060408385031215610f4a575f80fd5b610f5383610de6565b9150610f6160208401610de6565b90509250929050565b5f60208284031215610f7a575f80fd5b610f8382610de6565b9392505050565b5f60208284031215610f9a575f80fd5b81518015158114610f83575f80fd5b5f60208284031215610fb9575f80fd5b5051919050565b600181811c90821680610fd457607f821691505b602082108103610ff257634e487b7160e01b5f52602260045260245ffd5b50919050565b634e487b7160e01b5f52601160045260245ffd5b818103818111156105b0576105b0610ff8565b80820281158282048414176105b0576105b0610ff8565b5f8261105057634e487b7160e01b5f52601260045260245ffd5b500490565b808201808211156105b0576105b0610ff856fea2646970667358221220a66014f9b59098c2d45d9b754d00477fa1dc06cddf5c1520e150679edd96244c64736f6c63430008150033a2646970667358221220a424ad432f1114431ec075241c96020425e9bce78172299aa04244368480a07e64736f6c63430008150033",
  "immutableReferences": {},
  "source": "// SPDX-License-Identifier: MIT\r\npragma solidity ^0.8.0;\r\n\r\nimport \"../interfaces/IUniswapV2.sol\";\r\nimport \"@openzeppelin/contracts/token/ERC20/ERC20.sol\";\r\n\r\ncontract MockUniswapV2Pair is ERC20 {\r\n    address public token0;\r\n    address public token1;\r\n    uint112 private reserve0;\r\n    uint112 private reserve1;\r\n    uint32 private blockTimestampLast;\r\n\r\n    constructor() ERC20(\"Uniswap V2\", \"UNI-V2\") {}\r\n\r\n    function initialize(address _token0, address _token1) external {\r\n        token0 = _token0;\r\n        token1 = _token1;\r\n    }\r\n\r\n    function getReserves() external view returns (uint112, uint112, uint32) {\r\n        return (reserve0, reserve1, blockTimestampLast);\r\n    }\r\n\r\n    function mint(address to) external returns (uint liquidity) {\r\n        uint balance0 = IERC20(token0).balanceOf(address(this));\r\n        uint balance1 = IERC20(token1).balanceOf(address(this));\r\n        uint amount0 = balance0 - reserve0;\r\n        uint amount1 = balance1 - reserve1;\r\n        \r\n        liquidity = amount0; // Simplified\r\n        _mint(to, liquidity);\r\n        \r\n        reserve0 = uint112(balance0);\r\n        reserve1 = uint112(balance1);\r\n    }\r\n\r\n    function burn(address to) external returns (uint amount0, uint amount1) {\r\n        uint balance0 = IERC20(token0).balanceOf(address(this));\r\n        uint balance1 = IERC20(token1).balanceOf(address(this));\r\n        uint liquidity = balanceOf(address(this));\r\n\r\n        amount0 = (liquidity * balance0) / totalSupply();\r\n        amount1 = (liquidity * balance1) / totalSupply();\r\n        \r\n        _burn(address(this), liquidity);\r\n        \r\n        IERC20(token0).transfer(to, amount0);\r\n        IERC20(token1).transfer(to, amount1);\r\n        \r\n        reserve0 = uint112(IERC20(token0).balanceOf(address(this)));\r\n        reserve1 = uint112(IERC20(token1).balanceOf(address(this)));\r\n    }\r\n\r\n    function swap(uint amount0Out, uint amount1Out, address to, bytes calldata) external {\r\n        if (amount0Out > 0) IERC20(token0).transfer(to, amount0Out);\r\n        if (amount1Out > 0) IERC20(token1).transfer(to, amount1Out);\r\n        \r\n        reserve0 = uint112(IERC20(token0).balanceOf(address(this)));\r\n        reserve1 = uint112(IERC20(token1).balanceOf(address(this)));\r\n    }\r\n}\r\n\r\ncontract MockUniswapV2Factory {\r\n    mapping(address => mapping(address => address)) public getPair;\r\n    address[] public allPairs;\r\n\r\n    function createPair(address tokenA, address tokenB) external returns (address pair) {\r\n        MockUniswapV2Pair newPair = new MockUniswapV2Pair();\r\n        newPair.initialize(tokenA, tokenB);\r\n        pair = address(newPair);\r\n        getPair[tokenA][tokenB] = pair;\r\n        getPair[tokenB][tokenA] = pair;\r\n        allPairs.push(pair);\r\n    }\r\n}\r\n\r\ncontract MockUniswapV2Router02 {\r\n    address public factory;\r\n    address public WETH;\r\n\r\n    constructor(address _factory) {\r\n        factory = _factory;\r\n        WETH = address(0); \r\n    }\r\n\r\n    function addLiquidity(\r\n        address tokenA,\r\n        address tokenB,\r\n        uint amountADesired,\r\n        uint amountBDesired,\r\n        uint, uint, address to, uint\r\n    ) external returns (uint amountA, uint amountB, uint liquidity) {\r\n        address pair = MockUniswapV2Factory(factory).getPair(tokenA, tokenB);\r\n        if (pair == address(0)) {\r\n            pair = MockUniswapV2Factory(factory).createPair(tokenA, tokenB);\r\n        }\r\n        \r\n        IERC20(tokenA).transferFrom(msg.sender, pair, amountADesired);\r\n        IERC20(tokenB).transferFrom(msg.sender, pair, amountBDesired);\r\n        \r\n        liquidity = MockUniswapV2Pair(pair).mint(to);\r\n        amountA = amountADesired;\r\n        amountB = amountBDesired;\r\n    }\r\n\r\n    function swapExactTokensForTokens(\r\n        uint amountIn,\r\n        uint,\r\n        address[] calldata path,\r\n        address to,\r\n        uint\r\n    ) external returns (uint[] memory amounts) {\r\n        address pair = MockUniswapV2Factory(factory).getPair(path[0], path[1]);\r\n        require(pair != address(0), \"Pair not found\");\r\n\r\n        // Transfer Input to Pair\r\n        IERC20(path[0]).transferFrom(msg.sender, pair, amountIn);\r\n        \r\n        // Simplified CPAMM Swap Logic (No Fee for Mock)\r\n        // y_out = (x_in * R_y) / (R_x + x_in)\r\n        \r\n        (uint112 r0, uint112 r1,) = MockUniswapV2Pair(pair).getReserves();\r\n        address t0 = MockUniswapV2Pair(pair).token0();\r\n        \r\n        (uint reserveIn, uint reserveOut) = (path[0] == t0) ? (uint(r0), uint(r1)) : (uint(r1), uint(r0));\r\n        \r\n        require(reserveIn > 0 && reserveOut > 0, \"Insufficient reserves\");\r\n\r\n        amounts = new uint[](2);\r\n        amounts[0] = amountIn;\r\n        amounts[1] = (amountIn * reserveOut) / (reserveIn + amountIn);\r\n        \r\n        (uint amount0Out, uint amount1Out) = (path[0] == t0) ? (uint(0), amounts[1]) : (amounts[1], uint(0));\r\n        \r\n        MockUniswapV2Pair(pair).swap(amount0Out, amount1Out, to, \"\");\r\n    }\r\n}\r\n",
  "sourcePath": "C:\\Users\\hanti\\Desktop\\Magen-Protocol\\contracts\\mock\\MockUniswapV2.sol",
  "compiler": {
    "name": "solc",
    "version": "0.8.21+commit.d9974bed.Emscripten.clang"
  },
  "schemaVersion": "3.4.16",
  "updatedAt": "2026-02-10T02:04:49.437Z",
  "devdoc": {
    "kind": "dev",
    "methods": {},
    "version": 1
  },
  "userdoc": {
    "kind": "user",
    "methods": {},
    "version": 1
  }
}