{
  "contractName": "PoolFactory",
  "abi": [
    {
      "inputs": [
        {
          "internalType": "address",
          "name": "_usdcToken",
          "type": "address"
        },
        {
          "internalType": "address",
          "name": "_uniswapFactory",
          "type": "address"
        },
        {
          "internalType": "address",
          "name": "_uniswapRouter",
          "type": "address"
        }
      ],
      "stateMutability": "nonpayable",
      "type": "constructor"
    },
    {
      "anonymous": false,
      "inputs": [
        {
          "indexed": true,
          "internalType": "uint256",
          "name": "poolId",
          "type": "uint256"
        },
        {
          "indexed": false,
          "internalType": "string",
          "name": "name",
          "type": "string"
        },
        {
          "indexed": false,
          "internalType": "address",
          "name": "router",
          "type": "address"
        },
        {
          "indexed": false,
          "internalType": "address",
          "name": "vault",
          "type": "address"
        },
        {
          "indexed": false,
          "internalType": "address",
          "name": "pair",
          "type": "address"
        },
        {
          "indexed": false,
          "internalType": "address",
          "name": "tokenSI",
          "type": "address"
        },
        {
          "indexed": false,
          "internalType": "address",
          "name": "tokenNO",
          "type": "address"
        }
      ],
      "name": "PoolCreated",
      "type": "event"
    },
    {
      "inputs": [
        {
          "internalType": "uint256",
          "name": "",
          "type": "uint256"
        }
      ],
      "name": "pools",
      "outputs": [
        {
          "internalType": "string",
          "name": "name",
          "type": "string"
        },
        {
          "internalType": "address",
          "name": "router",
          "type": "address"
        },
        {
          "internalType": "address",
          "name": "vault",
          "type": "address"
        },
        {
          "internalType": "address",
          "name": "pair",
          "type": "address"
        },
        {
          "internalType": "address",
          "name": "tokenSI",
          "type": "address"
        },
        {
          "internalType": "address",
          "name": "tokenNO",
          "type": "address"
        }
      ],
      "stateMutability": "view",
      "type": "function",
      "constant": true
    },
    {
      "inputs": [],
      "name": "uniswapFactory",
      "outputs": [
        {
          "internalType": "address",
          "name": "",
          "type": "address"
        }
      ],
      "stateMutability": "view",
      "type": "function",
      "constant": true
    },
    {
      "inputs": [],
      "name": "uniswapRouter",
      "outputs": [
        {
          "internalType": "address",
          "name": "",
          "type": "address"
        }
      ],
      "stateMutability": "view",
      "type": "function",
      "constant": true
    },
    {
      "inputs": [],
      "name": "usdcToken",
      "outputs": [
        {
          "internalType": "address",
          "name": "",
          "type": "address"
        }
      ],
      "stateMutability": "view",
      "type": "function",
      "constant": true
    },
    {
      "inputs": [
        {
          "internalType": "string",
          "name": "name",
          "type": "string"
        },
        {
          "internalType": "string",
          "name": "symbolSI",
          "type": "string"
        },
        {
          "internalType": "string",
          "name": "symbolNO",
          "type": "string"
        }
      ],
      "name": "createPool",
      "outputs": [],
      "stateMutability": "nonpayable",
      "type": "function"
    },
    {
      "inputs": [],
      "name": "getPoolsLength",
      "outputs": [
        {
          "internalType": "uint256",
          "name": "",
          "type": "uint256"
        }
      ],
      "stateMutability": "view",
      "type": "function",
      "constant": true
    },
    {
      "inputs": [
        {
          "internalType": "uint256",
          "name": "index",
          "type": "uint256"
        }
      ],
      "name": "getPool",
      "outputs": [
        {
          "components": [
            {
              "internalType": "string",
              "name": "name",
              "type": "string"
            },
            {
              "internalType": "address",
              "name": "router",
              "type": "address"
            },
            {
              "internalType": "address",
              "name": "vault",
              "type": "address"
            },
            {
              "internalType": "address",
              "name": "pair",
              "type": "address"
            },
            {
              "internalType": "address",
              "name": "tokenSI",
              "type": "address"
            },
            {
              "internalType": "address",
              "name": "tokenNO",
              "type": "address"
            }
          ],
          "internalType": "struct PoolFactory.Pool",
          "name": "",
          "type": "tuple"
        }
      ],
      "stateMutability": "view",
      "type": "function",
      "constant": true
    }
  ],
  "bytecode": "0x608060405234801561000f575f80fd5b506040516141bb3803806141bb83398101604081905261002e9161008a565b5f80546001600160a01b039485166001600160a01b0319918216179091556001805493851693821693909317909255600280549190931691161790556100ca565b80516001600160a01b0381168114610085575f80fd5b919050565b5f805f6060848603121561009c575f80fd5b6100a58461006f565b92506100b36020850161006f565b91506100c16040850161006f565b90509250925092565b6140e4806100d75f395ff3fe608060405234801562000010575f80fd5b506004361062000084575f3560e01c80638bdb2afa116200005f5780638bdb2afa14620000f7578063ac4afa38146200010b578063b0ed44501462000136578063ce883cdb146200014f575f80fd5b8063068bcd8d146200008857806311eac85514620000b7578063735de9f714620000e3575b5f80fd5b6200009f620000993660046200083f565b62000161565b604051620000ae9190620008a8565b60405180910390f35b5f54620000ca906001600160a01b031681565b6040516001600160a01b039091168152602001620000ae565b600254620000ca906001600160a01b031681565b600154620000ca906001600160a01b031681565b620001226200011c3660046200083f565b620002a3565b604051620000ae9695949392919062000917565b6200014d6200014736600462000a0a565b6200038d565b005b600354604051908152602001620000ae565b6040805160c08101825260608082525f6020830181905292820183905281018290526080810182905260a081019190915260038281548110620001a857620001a862000a96565b905f5260205f2090600602016040518060c00160405290815f82018054620001d09062000aaa565b80601f0160208091040260200160405190810160405280929190818152602001828054620001fe9062000aaa565b80156200024d5780601f1062000223576101008083540402835291602001916200024d565b820191905f5260205f20905b8154815290600101906020018083116200022f57829003601f168201915b505050918352505060018201546001600160a01b03908116602083015260028301548116604083015260038301548116606083015260048301548116608083015260059092015490911660a09091015292915050565b60038181548110620002b3575f80fd5b905f5260205f2090600602015f91509050805f018054620002d49062000aaa565b80601f0160208091040260200160405190810160405280929190818152602001828054620003029062000aaa565b8015620003515780601f10620003275761010080835404028352916020019162000351565b820191905f5260205f20905b8154815290600101906020018083116200033357829003601f168201915b505050600184015460028501546003860154600487015460059097015495966001600160a01b0393841696928416955090831693508216911686565b5f83604051602001620003a1919062000ae4565b60405160208183030381529060405283604051620003bf9062000815565b620003cc92919062000b20565b604051809103905ff080158015620003e6573d5f803e3d5ffd5b5090505f84604051602001620003fd919062000b51565b604051602081830303815290604052836040516200041b9062000815565b6200042892919062000b20565b604051809103905ff08015801562000442573d5f803e3d5ffd5b5090505f805f9054906101000a90046001600160a01b031683836040516200046a9062000823565b6001600160a01b03938416815291831660208301529091166040820152606001604051809103905ff080158015620004a4573d5f803e3d5ffd5b506001546040516364e329cb60e11b81526001600160a01b03868116600483015285811660248301529293505f929091169063c9c65396906044016020604051808303815f875af1158015620004fc573d5f803e3d5ffd5b505050506040513d601f19601f8201168201806040525081019062000522919062000b8d565b6002545f8054604051939450909285926001600160a01b0390811692869291169089908990620005529062000831565b6001600160a01b0396871681529486166020860152928516604085015290841660608401528316608083015290911660a082015260c001604051809103905ff080158015620005a3573d5f803e3d5ffd5b5060405163f2fde38b60e01b81526001600160a01b0385811660048301529192509086169063f2fde38b906024015f604051808303815f87803b158015620005e9575f80fd5b505af1158015620005fc573d5f803e3d5ffd5b505060405163f2fde38b60e01b81526001600160a01b0386811660048301528716925063f2fde38b91506024015f604051808303815f87803b15801562000641575f80fd5b505af115801562000654573d5f803e3d5ffd5b505060405163f2fde38b60e01b81523360048201526001600160a01b038616925063f2fde38b91506024015f604051808303815f87803b15801562000697575f80fd5b505af1158015620006aa573d5f803e3d5ffd5b50506040805160c0810182528b81526001600160a01b038086166020830152878116928201929092528582166060820152888216608082015290871660a0820152600380546001810182555f9190915281519193506006027fc2575a0e9e593c00f959f8c92f12db2869c3395a3b0502d05e2516446f71f85b019150819062000734908262000c0e565b506020820151600182810180546001600160a01b03199081166001600160a01b0394851617909155604085015160028501805483169185169190911790556060850151600380860180548416928616929092179091556080860151600486018054841691861691909117905560a09095015160059094018054909116939092169290921790559054620007c8919062000cd7565b7fd7b6588d117c6e57a98ccaee8aaabe03db982f60308e29d1edd54ded78beef99898386868a8a604051620008039695949392919062000917565b60405180910390a25050505050505050565b610c798062000cfe83390190565b610c51806200197783390190565b611ae780620025c883390190565b5f6020828403121562000850575f80fd5b5035919050565b5f5b838110156200087357818101518382015260200162000859565b50505f910152565b5f81518084526200089481602086016020860162000857565b601f01601f19169290920160200192915050565b602081525f825160c06020840152620008c560e08401826200087b565b9050602084015160018060a01b0380821660408601528060408701511660608601528060608701511660808601528060808701511660a08601528060a08701511660c086015250508091505092915050565b60c081525f6200092b60c08301896200087b565b6001600160a01b0397881660208401529587166040830152509285166060840152908416608083015290921660a090920191909152919050565b634e487b7160e01b5f52604160045260245ffd5b5f82601f83011262000989575f80fd5b813567ffffffffffffffff80821115620009a757620009a762000965565b604051601f8301601f19908116603f01168101908282118183101715620009d257620009d262000965565b81604052838152866020858801011115620009eb575f80fd5b836020870160208301375f602085830101528094505050505092915050565b5f805f6060848603121562000a1d575f80fd5b833567ffffffffffffffff8082111562000a35575f80fd5b62000a438783880162000979565b9450602086013591508082111562000a59575f80fd5b62000a678783880162000979565b9350604086013591508082111562000a7d575f80fd5b5062000a8c8682870162000979565b9150509250925092565b634e487b7160e01b5f52603260045260245ffd5b600181811c9082168062000abf57607f821691505b60208210810362000ade57634e487b7160e01b5f52602260045260245ffd5b50919050565b65026b0b3b2b7160d51b81525f825162000b0681600685016020870162000857565b6220534960e81b6006939091019283015250600901919050565b604081525f62000b3460408301856200087b565b828103602084015262000b4881856200087b565b95945050505050565b65026b0b3b2b7160d51b81525f825162000b7381600685016020870162000857565b62204e4f60e81b6006939091019283015250600901919050565b5f6020828403121562000b9e575f80fd5b81516001600160a01b038116811462000bb5575f80fd5b9392505050565b601f82111562000c09575f81815260208120601f850160051c8101602086101562000be45750805b601f850160051c820191505b8181101562000c055782815560010162000bf0565b5050505b505050565b815167ffffffffffffffff81111562000c2b5762000c2b62000965565b62000c438162000c3c845462000aaa565b8462000bbc565b602080601f83116001811462000c79575f841562000c615750858301515b5f19600386901b1c1916600185901b17855562000c05565b5f85815260208120601f198616915b8281101562000ca95788860151825594840194600190910190840162000c88565b508582101562000cc757878501515f19600388901b60f8161c191681555b5050505050600190811b01905550565b8181038181111562000cf757634e487b7160e01b5f52601160045260245ffd5b9291505056fe608060405234801562000010575f80fd5b5060405162000c7938038062000c798339810160408190526200003391620001a7565b338282600362000044838262000299565b50600462000053828262000299565b5050506001600160a01b0381166200008457604051631e4fbdf760e01b81525f600482015260240160405180910390fd5b6200008f8162000098565b50505062000361565b600580546001600160a01b038381166001600160a01b0319831681179093556040519116919082907f8be0079c531659141344cd1fd0a4f28419497f9722a3daafe3b4186f6b6457e0905f90a35050565b634e487b7160e01b5f52604160045260245ffd5b5f82601f8301126200010d575f80fd5b81516001600160401b03808211156200012a576200012a620000e9565b604051601f8301601f19908116603f01168101908282118183101715620001555762000155620000e9565b8160405283815260209250868385880101111562000171575f80fd5b5f91505b8382101562000194578582018301518183018401529082019062000175565b5f93810190920192909252949350505050565b5f8060408385031215620001b9575f80fd5b82516001600160401b0380821115620001d0575f80fd5b620001de86838701620000fd565b93506020850151915080821115620001f4575f80fd5b506200020385828601620000fd565b9150509250929050565b600181811c908216806200022257607f821691505b6020821081036200024157634e487b7160e01b5f52602260045260245ffd5b50919050565b601f82111562000294575f81815260208120601f850160051c810160208610156200026f5750805b601f850160051c820191505b8181101562000290578281556001016200027b565b5050505b505050565b81516001600160401b03811115620002b557620002b5620000e9565b620002cd81620002c684546200020d565b8462000247565b602080601f83116001811462000303575f8415620002eb5750858301515b5f19600386901b1c1916600185901b17855562000290565b5f85815260208120601f198616915b82811015620003335788860151825594840194600190910190840162000312565b50858210156200035157878501515f19600388901b60f8161c191681555b5050505050600190811b01905550565b61090a806200036f5f395ff3fe608060405234801561000f575f80fd5b50600436106100e5575f3560e01c8063715018a6116100885780639dc29fac116100635780639dc29fac146101c6578063a9059cbb146101d9578063dd62ed3e146101ec578063f2fde38b14610224575f80fd5b8063715018a61461019b5780638da5cb5b146101a357806395d89b41146101be575f80fd5b806323b872dd116100c357806323b872dd1461013c578063313ce5671461014f57806340c10f191461015e57806370a0823114610173575f80fd5b806306fdde03146100e9578063095ea7b31461010757806318160ddd1461012a575b5f80fd5b6100f1610237565b6040516100fe9190610765565b60405180910390f35b61011a6101153660046107cb565b6102c7565b60405190151581526020016100fe565b6002545b6040519081526020016100fe565b61011a61014a3660046107f3565b6102e0565b604051601281526020016100fe565b61017161016c3660046107cb565b610303565b005b61012e61018136600461082c565b6001600160a01b03165f9081526020819052604090205490565b610171610319565b6005546040516001600160a01b0390911681526020016100fe565b6100f161032c565b6101716101d43660046107cb565b61033b565b61011a6101e73660046107cb565b61034d565b61012e6101fa36600461084c565b6001600160a01b039182165f90815260016020908152604080832093909416825291909152205490565b61017161023236600461082c565b61035a565b6060600380546102469061087d565b80601f01602080910402602001604051908101604052809291908181526020018280546102729061087d565b80156102bd5780601f10610294576101008083540402835291602001916102bd565b820191905f5260205f20905b8154815290600101906020018083116102a057829003601f168201915b5050505050905090565b5f336102d481858561039c565b60019150505b92915050565b5f336102ed8582856103ae565b6102f885858561042a565b506001949350505050565b61030b610487565b61031582826104b4565b5050565b610321610487565b61032a5f6104e8565b565b6060600480546102469061087d565b610343610487565b6103158282610539565b5f336102d481858561042a565b610362610487565b6001600160a01b03811661039057604051631e4fbdf760e01b81525f60048201526024015b60405180910390fd5b610399816104e8565b50565b6103a9838383600161056d565b505050565b6001600160a01b038381165f908152600160209081526040808320938616835292905220545f19811015610424578181101561041657604051637dc7a0d960e11b81526001600160a01b03841660048201526024810182905260448101839052606401610387565b61042484848484035f61056d565b50505050565b6001600160a01b03831661045357604051634b637e8f60e11b81525f6004820152602401610387565b6001600160a01b03821661047c5760405163ec442f0560e01b81525f6004820152602401610387565b6103a983838361063f565b6005546001600160a01b0316331461032a5760405163118cdaa760e01b8152336004820152602401610387565b6001600160a01b0382166104dd5760405163ec442f0560e01b81525f6004820152602401610387565b6103155f838361063f565b600580546001600160a01b038381166001600160a01b0319831681179093556040519116919082907f8be0079c531659141344cd1fd0a4f28419497f9722a3daafe3b4186f6b6457e0905f90a35050565b6001600160a01b03821661056257604051634b637e8f60e11b81525f6004820152602401610387565b610315825f8361063f565b6001600160a01b0384166105965760405163e602df0560e01b81525f6004820152602401610387565b6001600160a01b0383166105bf57604051634a1406b160e11b81525f6004820152602401610387565b6001600160a01b038085165f908152600160209081526040808320938716835292905220829055801561042457826001600160a01b0316846001600160a01b03167f8c5be1e5ebec7d5bd14f71427d1e84f3dd0314c0f7b2291e5b200ac8c7c3b9258460405161063191815260200190565b60405180910390a350505050565b6001600160a01b038316610669578060025f82825461065e91906108b5565b909155506106d99050565b6001600160a01b0383165f90815260208190526040902054818110156106bb5760405163391434e360e21b81526001600160a01b03851660048201526024810182905260448101839052606401610387565b6001600160a01b0384165f9081526020819052604090209082900390555b6001600160a01b0382166106f557600280548290039055610713565b6001600160a01b0382165f9081526020819052604090208054820190555b816001600160a01b0316836001600160a01b03167fddf252ad1be2c89b69c2b068fc378daa952ba7f163c4a11628f55a4df523b3ef8360405161075891815260200190565b60405180910390a3505050565b5f6020808352835180828501525f5b8181101561079057858101830151858201604001528201610774565b505f604082860101526040601f19601f8301168501019250505092915050565b80356001600160a01b03811681146107c6575f80fd5b919050565b5f80604083850312156107dc575f80fd5b6107e5836107b0565b946020939093013593505050565b5f805f60608486031215610805575f80fd5b61080e846107b0565b925061081c602085016107b0565b9150604084013590509250925092565b5f6020828403121561083c575f80fd5b610845826107b0565b9392505050565b5f806040838503121561085d575f80fd5b610866836107b0565b9150610874602084016107b0565b90509250929050565b600181811c9082168061089157607f821691505b6020821081036108af57634e487b7160e01b5f52602260045260245ffd5b50919050565b808201808211156102da57634e487b7160e01b5f52601160045260245ffdfea2646970667358221220c8d50c233e62ac8d676de3a48064082e7cec7161668fa40a045f8c8e70ffc3b064736f6c63430008150033608060405234801561000f575f80fd5b50604051610c51380380610c5183398101604081905261002e91610109565b338061005357604051631e4fbdf760e01b81525f600482015260240160405180910390fd5b61005c8161009f565b50600180546001600160a01b039485166001600160a01b031991821617909155600280549385169382169390931790925560038054919093169116179055610149565b5f80546001600160a01b038381166001600160a01b0319831681178455604051919092169283917f8be0079c531659141344cd1fd0a4f28419497f9722a3daafe3b4186f6b6457e09190a35050565b80516001600160a01b0381168114610104575f80fd5b919050565b5f805f6060848603121561011b575f80fd5b610124846100ee565b9250610132602085016100ee565b9150610140604085016100ee565b90509250925092565b610afb806101565f395ff3fe608060405234801561000f575f80fd5b50600436106100b1575f3560e01c806371baa1af1161006e57806371baa1af1461014c57806379ed76661461015f5780638da5cb5b14610176578063a0712d6814610186578063f2fde38b14610199578063ff1a277c146101ac575f80fd5b80631c09b721146100b55780633e413bee146100e55780633f6fa655146100f857806342966c681461011c5780634f896d4f14610131578063715018a614610144575b5f80fd5b6002546100c8906001600160a01b031681565b6040516001600160a01b0390911681526020015b60405180910390f35b6001546100c8906001600160a01b031681565b60035461010c90600160a01b900460ff1681565b60405190151581526020016100dc565b61012f61012a3660046109c8565b6101bf565b005b61012f61013f3660046109c8565b6103ba565b61012f6104ac565b61012f61015a3660046109ec565b6104bf565b61016860045481565b6040519081526020016100dc565b5f546001600160a01b03166100c8565b61012f6101943660046109c8565b610719565b61012f6101a7366004610a1a565b610910565b6003546100c8906001600160a01b031681565b600354600160a01b900460ff16156102105760405162461bcd60e51b815260206004820152600f60248201526e13585c9ad95d081c995cdbdb1d9959608a1b60448201526064015b60405180910390fd5b600254604051632770a7eb60e21b8152336004820152602481018390526001600160a01b0390911690639dc29fac906044015f604051808303815f87803b158015610259575f80fd5b505af115801561026b573d5f803e3d5ffd5b5050600354604051632770a7eb60e21b8152336004820152602481018590526001600160a01b039091169250639dc29fac91506044015f604051808303815f87803b1580156102b8575f80fd5b505af11580156102ca573d5f803e3d5ffd5b505060015460405163a9059cbb60e01b8152336004820152602481018590526001600160a01b03909116925063a9059cbb91506044016020604051808303815f875af115801561031c573d5f803e3d5ffd5b505050506040513d601f19601f820116820180604052508101906103409190610a47565b6103815760405162461bcd60e51b81526020600482015260126024820152711554d110c81c995d1d5c9b8819985a5b195960721b6044820152606401610207565b60405181815233907f696de425f79f4a40bc6d2122ca50507f0efbeabbff86a84871b7196ab8ea8df7906020015b60405180910390a250565b6103c261094d565b600354600160a01b900460ff161561040f5760405162461bcd60e51b815260206004820152601060248201526f105b1c9958591e481c995cdbdb1d995960821b6044820152606401610207565b670de0b6b3a76400008111156104575760405162461bcd60e51b815260206004820152600d60248201526c496e76616c6964207363616c6560981b6044820152606401610207565b60048190556003805460ff60a01b1916600160a01b1790556040517f148a25ee2a7671350ab878ff183447de8ae5afa2ee0ae7d5ee1ad6b25c4868c2906104a19083815260200190565b60405180910390a150565b6104b461094d565b6104bd5f610979565b565b600354600160a01b900460ff1661050e5760405162461bcd60e51b815260206004820152601360248201527213585c9ad95d081b9bdd081c995cdbdb1d9959606a1b6044820152606401610207565b5f811561059c57600254604051632770a7eb60e21b8152336004820152602481018590526001600160a01b0390911690639dc29fac906044015f604051808303815f87803b15801561055e575f80fd5b505af1158015610570573d5f803e3d5ffd5b50505050670de0b6b3a76400006004548461058b9190610a76565b6105959190610a93565b9050610631565b600354604051632770a7eb60e21b8152336004820152602481018590526001600160a01b0390911690639dc29fac906044015f604051808303815f87803b1580156105e5575f80fd5b505af11580156105f7573d5f803e3d5ffd5b50505050670de0b6b3a7640000600454670de0b6b3a764000061061a9190610ab2565b6106249085610a76565b61062e9190610a93565b90505b60015460405163a9059cbb60e01b8152336004820152602481018390526001600160a01b039091169063a9059cbb906044016020604051808303815f875af115801561067f573d5f803e3d5ffd5b505050506040513d601f19601f820116820180604052508101906106a39190610a47565b6106df5760405162461bcd60e51b815260206004820152600d60248201526c14185e5bdd5d0819985a5b1959609a1b6044820152606401610207565b60405181815233907fd8138f8a3f377c5259ca548e70e4c2de94f129f5a11036a15b69513cba2b426a9060200160405180910390a2505050565b600354600160a01b900460ff16156107655760405162461bcd60e51b815260206004820152600f60248201526e13585c9ad95d081c995cdbdb1d9959608a1b6044820152606401610207565b6001546040516323b872dd60e01b8152336004820152306024820152604481018390526001600160a01b03909116906323b872dd906064016020604051808303815f875af11580156107b9573d5f803e3d5ffd5b505050506040513d601f19601f820116820180604052508101906107dd9190610a47565b6108205760405162461bcd60e51b81526020600482015260146024820152731554d110c81d1c985b9cd9995c8819985a5b195960621b6044820152606401610207565b6002546040516340c10f1960e01b8152336004820152602481018390526001600160a01b03909116906340c10f19906044015f604051808303815f87803b158015610869575f80fd5b505af115801561087b573d5f803e3d5ffd5b50506003546040516340c10f1960e01b8152336004820152602481018590526001600160a01b0390911692506340c10f1991506044015f604051808303815f87803b1580156108c8575f80fd5b505af11580156108da573d5f803e3d5ffd5b50506040518381523392507f30385c845b448a36257a6a1716e6ad2e1bc2cbe333cde1e69fe849ad6511adfe91506020016103af565b61091861094d565b6001600160a01b03811661094157604051631e4fbdf760e01b81525f6004820152602401610207565b61094a81610979565b50565b5f546001600160a01b031633146104bd5760405163118cdaa760e01b8152336004820152602401610207565b5f80546001600160a01b038381166001600160a01b0319831681178455604051919092169283917f8be0079c531659141344cd1fd0a4f28419497f9722a3daafe3b4186f6b6457e09190a35050565b5f602082840312156109d8575f80fd5b5035919050565b801515811461094a575f80fd5b5f80604083850312156109fd575f80fd5b823591506020830135610a0f816109df565b809150509250929050565b5f60208284031215610a2a575f80fd5b81356001600160a01b0381168114610a40575f80fd5b9392505050565b5f60208284031215610a57575f80fd5b8151610a40816109df565b634e487b7160e01b5f52601160045260245ffd5b8082028115828204841417610a8d57610a8d610a62565b92915050565b5f82610aad57634e487b7160e01b5f52601260045260245ffd5b500490565b81810381811115610a8d57610a8d610a6256fea26469706673582212200ef825dd47acbcdf7b1910642ce8e9aa45bcf0b7fdfbcbcd33655823b5c3b83364736f6c63430008150033608060405234801562000010575f80fd5b5060405162001ae738038062001ae78339810160408190526200003391620000c1565b5f80546001600160a01b03199081166001600160a01b03988916179091556001805482169688169690961790955560028054861694871694909417909355600380548516928616929092179091556004805484169185169190911790556005805490921692169190911790556200013e565b80516001600160a01b0381168114620000bc575f80fd5b919050565b5f805f805f8060c08789031215620000d7575f80fd5b620000e287620000a5565b9550620000f260208801620000a5565b94506200010260408801620000a5565b93506200011260608801620000a5565b92506200012260808801620000a5565b91506200013260a08801620000a5565b90509295509295509295565b61199b806200014c5f395ff3fe608060405234801561000f575f80fd5b5060043610610090575f3560e01c8063735de9f711610063578063735de9f71461010d578063a8aa1b3114610120578063e4a3011614610133578063fbfa77cf14610146578063ff1a277c14610158575f80fd5b80631c09b721146100945780633e413bee146100c457806351c6590a146100d75780636ceec570146100f8575b5f80fd5b6004546100a7906001600160a01b031681565b6040516001600160a01b0390911681526020015b60405180910390f35b6003546100a7906001600160a01b031681565b6100ea6100e5366004611611565b61016b565b6040519081526020016100bb565b61010b610106366004611611565b610c27565b005b6001546100a7906001600160a01b031681565b6002546100a7906001600160a01b031681565b61010b610141366004611628565b61107d565b5f546100a7906001600160a01b031681565b6005546100a7906001600160a01b031681565b5f8082116101ad5760405162461bcd60e51b815260206004820152600a6024820152690416d6f756e74203e20360b41b60448201526064015b60405180910390fd5b6003546040516323b872dd60e01b8152336004820152306024820152604481018490526001600160a01b03909116906323b872dd906064016020604051808303815f875af1158015610201573d5f803e3d5ffd5b505050506040513d601f19601f820116820180604052508101906102259190611648565b6102625760405162461bcd60e51b815260206004820152600e60248201526d1554d110c815118819985a5b195960921b60448201526064016101a4565b6003545f5460405163095ea7b360e01b81526001600160a01b039283169263095ea7b39261029792911690869060040161166e565b6020604051808303815f875af11580156102b3573d5f803e3d5ffd5b505050506040513d601f19601f820116820180604052508101906102d79190611648565b505f5460405163140e25ad60e31b8152600481018490526001600160a01b039091169063a0712d68906024015f604051808303815f87803b15801561031a575f80fd5b505af115801561032c573d5f803e3d5ffd5b505050505f8060025f9054906101000a90046001600160a01b03166001600160a01b0316630902f1ac6040518163ffffffff1660e01b8152600401606060405180830381865afa158015610382573d5f803e3d5ffd5b505050506040513d601f19601f820116820180604052508101906103a691906116a2565b50915091505f60025f9054906101000a90046001600160a01b03166001600160a01b0316630dfe16816040518163ffffffff1660e01b8152600401602060405180830381865afa1580156103fc573d5f803e3d5ffd5b505050506040513d601f19601f8201168201806040525081019061042091906116ee565b6004549091505f9081906001600160a01b0380851691161461045557836001600160701b0316856001600160701b031661046a565b846001600160701b0316846001600160701b03165b915091508082111561062b575f6002836104848482611728565b61048e908b611741565b6104989190611758565b6104a29190611758565b905080156106255760055460015460405163095ea7b360e01b81526001600160a01b039283169263095ea7b3926104e092911690859060040161166e565b6020604051808303815f875af11580156104fc573d5f803e3d5ffd5b505050506040513d601f19601f820116820180604052508101906105209190611648565b506040805160028082526060820183525f92602083019080368337505060055482519293506001600160a01b0316918391505f906105605761056061178b565b6001600160a01b0392831660209182029290920101526004548251911690829060019081106105915761059161178b565b6001600160a01b039283166020918202929092010152600154166338ed1739835f84306105c04261012c61179f565b6040518663ffffffff1660e01b81526004016105e09594939291906117b2565b5f604051808303815f875af11580156105fb573d5f803e3d5ffd5b505050506040513d5f823e601f3d908101601f191682016040526106229190810190611821565b50505b506107e2565b818111156107e2575f6002826106418582611728565b61064b908b611741565b6106559190611758565b61065f9190611758565b905080156107e0576004805460015460405163095ea7b360e01b81526001600160a01b039283169363095ea7b39361069b93169186910161166e565b6020604051808303815f875af11580156106b7573d5f803e3d5ffd5b505050506040513d601f19601f820116820180604052508101906106db9190611648565b506040805160028082526060820183525f92602083019080368337505060045482519293506001600160a01b0316918391505f9061071b5761071b61178b565b6001600160a01b03928316602091820292909201015260055482519116908290600190811061074c5761074c61178b565b6001600160a01b039283166020918202929092010152600154166338ed1739835f843061077b4261012c61179f565b6040518663ffffffff1660e01b815260040161079b9594939291906117b2565b5f604051808303815f875af11580156107b6573d5f803e3d5ffd5b505050506040513d5f823e601f3d908101601f191682016040526107dd9190810190611821565b50505b505b600480546040516370a0823160e01b815230928101929092525f916001600160a01b03909116906370a0823190602401602060405180830381865afa15801561082d573d5f803e3d5ffd5b505050506040513d601f19601f8201168201806040525081019061085191906118da565b6005546040516370a0823160e01b81523060048201529192505f916001600160a01b03909116906370a0823190602401602060405180830381865afa15801561089c573d5f803e3d5ffd5b505050506040513d601f19601f820116820180604052508101906108c091906118da565b6004805460015460405163095ea7b360e01b81529394506001600160a01b039182169363095ea7b3936108f9939092169187910161166e565b6020604051808303815f875af1158015610915573d5f803e3d5ffd5b505050506040513d601f19601f820116820180604052508101906109399190611648565b5060055460015460405163095ea7b360e01b81526001600160a01b039283169263095ea7b39261097092911690859060040161166e565b6020604051808303815f875af115801561098c573d5f803e3d5ffd5b505050506040513d601f19601f820116820180604052508101906109b09190611648565b506001546004546005546001600160a01b039283169263e8e33700928116911685855f80336109e14261012c61179f565b6040518963ffffffff1660e01b8152600401610a049897969594939291906118f1565b6060604051808303815f875af1158015610a20573d5f803e3d5ffd5b505050506040513d601f19601f82011682018060405250810190610a44919061193a565b600480546040516370a0823160e01b81523092810192909252919b505f93506001600160a01b0390911691506370a0823190602401602060405180830381865afa158015610a94573d5f803e3d5ffd5b505050506040513d601f19601f82011682018060405250810190610ab891906118da565b90508015610b33576004805460405163a9059cbb60e01b81526001600160a01b039091169163a9059cbb91610af191339186910161166e565b6020604051808303815f875af1158015610b0d573d5f803e3d5ffd5b505050506040513d601f19601f82011682018060405250810190610b319190611648565b505b6005546040516370a0823160e01b81523060048201525f916001600160a01b0316906370a0823190602401602060405180830381865afa158015610b79573d5f803e3d5ffd5b505050506040513d601f19601f82011682018060405250810190610b9d91906118da565b90508015610c195760055460405163a9059cbb60e01b81526001600160a01b039091169063a9059cbb90610bd7903390859060040161166e565b6020604051808303815f875af1158015610bf3573d5f803e3d5ffd5b505050506040513d601f19601f82011682018060405250810190610c179190611648565b505b505050505050505050919050565b6003546040516323b872dd60e01b8152336004820152306024820152604481018390526001600160a01b03909116906323b872dd906064016020604051808303815f875af1158015610c7b573d5f803e3d5ffd5b505050506040513d601f19601f82011682018060405250810190610c9f9190611648565b610ce25760405162461bcd60e51b81526020600482015260146024820152731554d110c81d1c985b9cd9995c8819985a5b195960621b60448201526064016101a4565b6003545f5460405163095ea7b360e01b81526001600160a01b039283169263095ea7b392610d1792911690859060040161166e565b6020604051808303815f875af1158015610d33573d5f803e3d5ffd5b505050506040513d601f19601f82011682018060405250810190610d579190611648565b505f5460405163140e25ad60e31b8152600481018390526001600160a01b039091169063a0712d68906024015f604051808303815f87803b158015610d9a575f80fd5b505af1158015610dac573d5f803e3d5ffd5b5050600480546040516370a0823160e01b815230928101929092525f93506001600160a01b031691506370a0823190602401602060405180830381865afa158015610df9573d5f803e3d5ffd5b505050506040513d601f19601f82011682018060405250810190610e1d91906118da565b6004805460015460405163095ea7b360e01b81529394506001600160a01b039182169363095ea7b393610e56939092169186910161166e565b6020604051808303815f875af1158015610e72573d5f803e3d5ffd5b505050506040513d601f19601f82011682018060405250810190610e969190611648565b506040805160028082526060820183525f92602083019080368337505060045482519293506001600160a01b0316918391505f90610ed657610ed661178b565b6001600160a01b039283166020918202929092010152600554825191169082906001908110610f0757610f0761178b565b6001600160a01b039283166020918202929092010152600154166338ed1739835f8430610f364261012c61179f565b6040518663ffffffff1660e01b8152600401610f569594939291906117b2565b5f604051808303815f875af1158015610f71573d5f803e3d5ffd5b505050506040513d5f823e601f3d908101601f19168201604052610f989190810190611821565b506005546040516370a0823160e01b81523060048201525f916001600160a01b0316906370a0823190602401602060405180830381865afa158015610fdf573d5f803e3d5ffd5b505050506040513d601f19601f8201168201806040525081019061100391906118da565b60055460405163a9059cbb60e01b81529192506001600160a01b03169063a9059cbb90611036903390859060040161166e565b6020604051808303815f875af1158015611052573d5f803e3d5ffd5b505050506040513d601f19601f820116820180604052508101906110769190611648565b5050505050565b5f8111801561108c5750606481105b6110d85760405162461bcd60e51b815260206004820152601d60248201527f5269736b206d757374206265206265747765656e203120616e6420393900000060448201526064016101a4565b6003546040516323b872dd60e01b8152336004820152306024820152604481018490526001600160a01b03909116906323b872dd906064016020604051808303815f875af115801561112c573d5f803e3d5ffd5b505050506040513d601f19601f820116820180604052508101906111509190611648565b6111935760405162461bcd60e51b81526020600482015260146024820152731554d110c81d1c985b9cd9995c8819985a5b195960621b60448201526064016101a4565b6003545f5460405163095ea7b360e01b81526001600160a01b039283169263095ea7b3926111c892911690869060040161166e565b6020604051808303815f875af11580156111e4573d5f803e3d5ffd5b505050506040513d601f19601f820116820180604052508101906112089190611648565b505f5460405163140e25ad60e31b8152600481018490526001600160a01b039091169063a0712d68906024015f604051808303815f87803b15801561124b575f80fd5b505af115801561125d573d5f803e3d5ffd5b505050505f806032831161129457839150611279836064611728565b6112838486611741565b61128d9190611758565b90506112b9565b5082826112a2816064611728565b6112ac9086611741565b6112b69190611758565b91505b6004805460015460405163095ea7b360e01b81526001600160a01b039283169363095ea7b3936112ed93169187910161166e565b6020604051808303815f875af1158015611309573d5f803e3d5ffd5b505050506040513d601f19601f8201168201806040525081019061132d9190611648565b5060055460015460405163095ea7b360e01b81526001600160a01b039283169263095ea7b39261136492911690859060040161166e565b6020604051808303815f875af1158015611380573d5f803e3d5ffd5b505050506040513d601f19601f820116820180604052508101906113a49190611648565b506001546004546005546001600160a01b039283169263e8e33700928116911685855f80336113d54261012c61179f565b6040518963ffffffff1660e01b81526004016113f89897969594939291906118f1565b6060604051808303815f875af1158015611414573d5f803e3d5ffd5b505050506040513d601f19601f82011682018060405250810190611438919061193a565b5050600480546040516370a0823160e01b815230928101929092525f92506001600160a01b0316906370a0823190602401602060405180830381865afa158015611484573d5f803e3d5ffd5b505050506040513d601f19601f820116820180604052508101906114a891906118da565b90508015611523576004805460405163a9059cbb60e01b81526001600160a01b039091169163a9059cbb916114e191339186910161166e565b6020604051808303815f875af11580156114fd573d5f803e3d5ffd5b505050506040513d601f19601f820116820180604052508101906115219190611648565b505b6005546040516370a0823160e01b81523060048201525f916001600160a01b0316906370a0823190602401602060405180830381865afa158015611569573d5f803e3d5ffd5b505050506040513d601f19601f8201168201806040525081019061158d91906118da565b905080156116095760055460405163a9059cbb60e01b81526001600160a01b039091169063a9059cbb906115c7903390859060040161166e565b6020604051808303815f875af11580156115e3573d5f803e3d5ffd5b505050506040513d601f19601f820116820180604052508101906116079190611648565b505b505050505050565b5f60208284031215611621575f80fd5b5035919050565b5f8060408385031215611639575f80fd5b50508035926020909101359150565b5f60208284031215611658575f80fd5b81518015158114611667575f80fd5b9392505050565b6001600160a01b03929092168252602082015260400190565b80516001600160701b038116811461169d575f80fd5b919050565b5f805f606084860312156116b4575f80fd5b6116bd84611687565b92506116cb60208501611687565b9150604084015163ffffffff811681146116e3575f80fd5b809150509250925092565b5f602082840312156116fe575f80fd5b81516001600160a01b0381168114611667575f80fd5b634e487b7160e01b5f52601160045260245ffd5b8181038181111561173b5761173b611714565b92915050565b808202811582820484141761173b5761173b611714565b5f8261177257634e487b7160e01b5f52601260045260245ffd5b500490565b634e487b7160e01b5f52604160045260245ffd5b634e487b7160e01b5f52603260045260245ffd5b8082018082111561173b5761173b611714565b5f60a082018783526020878185015260a0604085015281875180845260c08601915082890193505f5b818110156118005784516001600160a01b0316835293830193918301916001016117db565b50506001600160a01b03969096166060850152505050608001529392505050565b5f6020808385031215611832575f80fd5b825167ffffffffffffffff80821115611849575f80fd5b818501915085601f83011261185c575f80fd5b81518181111561186e5761186e611777565b8060051b604051601f19603f8301168101818110858211171561189357611893611777565b6040529182528482019250838101850191888311156118b0575f80fd5b938501935b828510156118ce578451845293850193928501926118b5565b98975050505050505050565b5f602082840312156118ea575f80fd5b5051919050565b6001600160a01b039889168152968816602088015260408701959095526060860193909352608085019190915260a084015290921660c082015260e08101919091526101000190565b5f805f6060848603121561194c575f80fd5b835192506020840151915060408401519050925092509256fea2646970667358221220e06382250a2c830f0862309310f55a73f44cd4ed352efbb75e369fa5021801bc64736f6c63430008150033a2646970667358221220dd6f80237b4afac489c0e82dc031eaead91d0cbcfbcba09e52e37983d6546b9d64736f6c63430008150033",
  "immutableReferences": {},
  "source": "// SPDX-License-Identifier: MIT\r\npragma solidity ^0.8.0;\r\n\r\nimport \"./MagenRouter.sol\";\r\nimport \"./MagenVault.sol\";\r\nimport \"./OutcomeToken.sol\";\r\nimport \"./interfaces/IUniswapV2.sol\";\r\n\r\ncontract PoolFactory {\r\n    address public usdcToken;\r\n    address public uniswapFactory;\r\n    address public uniswapRouter;\r\n\r\n    struct Pool {\r\n        string name;\r\n        address router;     // MagenRouter\r\n        address vault;\r\n        address pair;       // Uniswap Pair (SI/NO)\r\n        address tokenSI;\r\n        address tokenNO;\r\n    }\r\n\r\n    Pool[] public pools;\r\n\r\n    event PoolCreated(uint256 indexed poolId, string name, address router, address vault, address pair, address tokenSI, address tokenNO);\r\n\r\n    constructor(address _usdcToken, address _uniswapFactory, address _uniswapRouter) {\r\n        usdcToken = _usdcToken;\r\n        uniswapFactory = _uniswapFactory;\r\n        uniswapRouter = _uniswapRouter;\r\n    }\r\n\r\n    function createPool(string memory name, string memory symbolSI, string memory symbolNO) external {\r\n        // 1. Deploy Outcome Tokens\r\n        OutcomeToken si = new OutcomeToken(string(abi.encodePacked(\"Magen \", name, \" SI\")), symbolSI);\r\n        OutcomeToken no = new OutcomeToken(string(abi.encodePacked(\"Magen \", name, \" NO\")), symbolNO);\r\n\r\n        // 2. Deploy Vault\r\n        MagenVault vault = new MagenVault(usdcToken, address(si), address(no));\r\n\r\n        // 3. Create Uniswap Pair for SI/NO\r\n        address pair = IUniswapV2Factory(uniswapFactory).createPair(address(si), address(no));\r\n\r\n        // 4. Deploy Router (MagenRouter wrapping UniswapRouter)\r\n        MagenRouter router = new MagenRouter(address(vault), uniswapRouter, pair, usdcToken, address(si), address(no));\r\n\r\n        // 5. Transfer Ownership of Tokens to Vault\r\n        si.transferOwnership(address(vault));\r\n        no.transferOwnership(address(vault));\r\n\r\n        // 6. Transfer Ownership of Vault to Msg.Sender\r\n        vault.transferOwnership(msg.sender);\r\n\r\n        pools.push(Pool({\r\n            name: name,\r\n            router: address(router),\r\n            vault: address(vault),\r\n            pair: pair,\r\n            tokenSI: address(si),\r\n            tokenNO: address(no)\r\n        }));\r\n\r\n        emit PoolCreated(pools.length - 1, name, address(router), address(vault), pair, address(si), address(no));\r\n    }\r\n\r\n    function getPoolsLength() external view returns (uint256) {\r\n        return pools.length;\r\n    }\r\n    \r\n    function getPool(uint256 index) external view returns (Pool memory) {\r\n        return pools[index];\r\n    }\r\n}\r\n",
  "sourcePath": "C:\\Users\\hanti\\Desktop\\Magen-Protocol\\contracts\\PoolFactory.sol",
  "compiler": {
    "name": "solc",
    "version": "0.8.21+commit.d9974bed.Emscripten.clang"
  },
  "schemaVersion": "3.4.16",
  "updatedAt": "2026-02-10T19:11:38.840Z",
  "networkType": "ethereum",
  "devdoc": {
    "kind": "dev",
    "methods": {},
    "version": 1
  },
  "userdoc": {
    "kind": "user",
    "methods": {},
    "version": 1
  }
}