{
  "contractName": "PoolFactory",
  "abi": [
    {
      "inputs": [
        {
          "internalType": "address",
          "name": "_usdcToken",
          "type": "address"
        }
      ],
      "stateMutability": "nonpayable",
      "type": "constructor"
    },
    {
      "anonymous": false,
      "inputs": [
        {
          "indexed": true,
          "internalType": "uint256",
          "name": "poolId",
          "type": "uint256"
        },
        {
          "indexed": false,
          "internalType": "string",
          "name": "name",
          "type": "string"
        },
        {
          "indexed": false,
          "internalType": "address",
          "name": "router",
          "type": "address"
        },
        {
          "indexed": false,
          "internalType": "address",
          "name": "vault",
          "type": "address"
        },
        {
          "indexed": false,
          "internalType": "address",
          "name": "amm",
          "type": "address"
        },
        {
          "indexed": false,
          "internalType": "address",
          "name": "tokenSI",
          "type": "address"
        },
        {
          "indexed": false,
          "internalType": "address",
          "name": "tokenNO",
          "type": "address"
        }
      ],
      "name": "PoolCreated",
      "type": "event"
    },
    {
      "inputs": [
        {
          "internalType": "uint256",
          "name": "",
          "type": "uint256"
        }
      ],
      "name": "pools",
      "outputs": [
        {
          "internalType": "string",
          "name": "name",
          "type": "string"
        },
        {
          "internalType": "address",
          "name": "router",
          "type": "address"
        },
        {
          "internalType": "address",
          "name": "vault",
          "type": "address"
        },
        {
          "internalType": "address",
          "name": "amm",
          "type": "address"
        },
        {
          "internalType": "address",
          "name": "tokenSI",
          "type": "address"
        },
        {
          "internalType": "address",
          "name": "tokenNO",
          "type": "address"
        }
      ],
      "stateMutability": "view",
      "type": "function",
      "constant": true
    },
    {
      "inputs": [],
      "name": "usdcToken",
      "outputs": [
        {
          "internalType": "address",
          "name": "",
          "type": "address"
        }
      ],
      "stateMutability": "view",
      "type": "function",
      "constant": true
    },
    {
      "inputs": [
        {
          "internalType": "string",
          "name": "name",
          "type": "string"
        },
        {
          "internalType": "string",
          "name": "symbolSI",
          "type": "string"
        },
        {
          "internalType": "string",
          "name": "symbolNO",
          "type": "string"
        }
      ],
      "name": "createPool",
      "outputs": [],
      "stateMutability": "nonpayable",
      "type": "function"
    },
    {
      "inputs": [],
      "name": "getPoolsLength",
      "outputs": [
        {
          "internalType": "uint256",
          "name": "",
          "type": "uint256"
        }
      ],
      "stateMutability": "view",
      "type": "function",
      "constant": true
    },
    {
      "inputs": [
        {
          "internalType": "uint256",
          "name": "index",
          "type": "uint256"
        }
      ],
      "name": "getPool",
      "outputs": [
        {
          "components": [
            {
              "internalType": "string",
              "name": "name",
              "type": "string"
            },
            {
              "internalType": "address",
              "name": "router",
              "type": "address"
            },
            {
              "internalType": "address",
              "name": "vault",
              "type": "address"
            },
            {
              "internalType": "address",
              "name": "amm",
              "type": "address"
            },
            {
              "internalType": "address",
              "name": "tokenSI",
              "type": "address"
            },
            {
              "internalType": "address",
              "name": "tokenNO",
              "type": "address"
            }
          ],
          "internalType": "struct PoolFactory.Pool",
          "name": "",
          "type": "tuple"
        }
      ],
      "stateMutability": "view",
      "type": "function",
      "constant": true
    }
  ],
  "bytecode": "0x608060405234801561000f575f80fd5b506040516150c23803806150c283398101604081905261002e91610052565b5f80546001600160a01b0319166001600160a01b039290921691909117905561007f565b5f60208284031215610062575f80fd5b81516001600160a01b0381168114610078575f80fd5b9392505050565b6150368061008c5f395ff3fe608060405234801562000010575f80fd5b50600436106200005c575f3560e01c8063068bcd8d146200006057806311eac855146200008f578063ac4afa3814620000bb578063b0ed445014620000e6578063ce883cdb14620000ff575b5f80fd5b6200007762000071366004620007b3565b62000111565b6040516200008691906200081c565b60405180910390f35b5f54620000a2906001600160a01b031681565b6040516001600160a01b03909116815260200162000086565b620000d2620000cc366004620007b3565b62000253565b60405162000086969594939291906200088b565b620000fd620000f73660046200097e565b6200033d565b005b60015460405190815260200162000086565b6040805160c08101825260608082525f6020830181905292820183905281018290526080810182905260a08101919091526001828154811062000158576200015862000a0a565b905f5260205f2090600602016040518060c00160405290815f82018054620001809062000a1e565b80601f0160208091040260200160405190810160405280929190818152602001828054620001ae9062000a1e565b8015620001fd5780601f10620001d357610100808354040283529160200191620001fd565b820191905f5260205f20905b815481529060010190602001808311620001df57829003601f168201915b505050918352505060018201546001600160a01b03908116602083015260028301548116604083015260038301548116606083015260048301548116608083015260059092015490911660a09091015292915050565b6001818154811062000263575f80fd5b905f5260205f2090600602015f91509050805f018054620002849062000a1e565b80601f0160208091040260200160405190810160405280929190818152602001828054620002b29062000a1e565b8015620003015780601f10620002d75761010080835404028352916020019162000301565b820191905f5260205f20905b815481529060010190602001808311620002e357829003601f168201915b505050600184015460028501546003860154600487015460059097015495966001600160a01b0393841696928416955090831693508216911686565b5f8360405160200162000351919062000a58565b604051602081830303815290604052836040516200036f906200077b565b6200037c92919062000a94565b604051809103905ff08015801562000396573d5f803e3d5ffd5b5090505f84604051602001620003ad919062000ac5565b60405160208183030381529060405283604051620003cb906200077b565b620003d892919062000a94565b604051809103905ff080158015620003f2573d5f803e3d5ffd5b5090505f805f9054906101000a90046001600160a01b031683836040516200041a9062000789565b6001600160a01b03938416815291831660208301529091166040820152606001604051809103905ff08015801562000454573d5f803e3d5ffd5b5090505f8383604051620004689062000797565b6001600160a01b03928316815291166020820152604001604051809103905ff08015801562000499573d5f803e3d5ffd5b5090505f82825f8054906101000a90046001600160a01b03168787604051620004c290620007a5565b6001600160a01b0395861681529385166020850152918416604084015283166060830152909116608082015260a001604051809103905ff0801580156200050b573d5f803e3d5ffd5b5060405163f2fde38b60e01b81526001600160a01b0385811660048301529192509086169063f2fde38b906024015f604051808303815f87803b15801562000551575f80fd5b505af115801562000564573d5f803e3d5ffd5b505060405163f2fde38b60e01b81526001600160a01b0386811660048301528716925063f2fde38b91506024015f604051808303815f87803b158015620005a9575f80fd5b505af1158015620005bc573d5f803e3d5ffd5b505060405163f2fde38b60e01b81523360048201526001600160a01b038616925063f2fde38b91506024015f604051808303815f87803b158015620005ff575f80fd5b505af115801562000612573d5f803e3d5ffd5b50506040805160c0810182528b81526001600160a01b038086166020830152878116928201929092528582166060820152888216608082015290871660a08201526001805480820182555f9190915281519193506006027fb10e2d527612073b26eecdfd717e6a320cf44b4afac2b0732d9fcbe2b7fa0cf601915081906200069b908262000b53565b506020820151600182810180546001600160a01b03199081166001600160a01b039485161790915560408501516002850180548316918516919091179055606085015160038501805483169185169190911790556080850151600485018054831691851691909117905560a09094015160059093018054909416929091169190911790915580546200072e919062000c1c565b7fd7b6588d117c6e57a98ccaee8aaabe03db982f60308e29d1edd54ded78beef99898386868a8a60405162000769969594939291906200088b565b60405180910390a25050505050505050565b610c798062000c4383390190565b610c5180620018bc83390190565b6114d9806200250d83390190565b61161b80620039e683390190565b5f60208284031215620007c4575f80fd5b5035919050565b5f5b83811015620007e7578181015183820152602001620007cd565b50505f910152565b5f815180845262000808816020860160208601620007cb565b601f01601f19169290920160200192915050565b602081525f825160c060208401526200083960e0840182620007ef565b9050602084015160018060a01b0380821660408601528060408701511660608601528060608701511660808601528060808701511660a08601528060a08701511660c086015250508091505092915050565b60c081525f6200089f60c0830189620007ef565b6001600160a01b0397881660208401529587166040830152509285166060840152908416608083015290921660a090920191909152919050565b634e487b7160e01b5f52604160045260245ffd5b5f82601f830112620008fd575f80fd5b813567ffffffffffffffff808211156200091b576200091b620008d9565b604051601f8301601f19908116603f01168101908282118183101715620009465762000946620008d9565b816040528381528660208588010111156200095f575f80fd5b836020870160208301375f602085830101528094505050505092915050565b5f805f6060848603121562000991575f80fd5b833567ffffffffffffffff80821115620009a9575f80fd5b620009b787838801620008ed565b94506020860135915080821115620009cd575f80fd5b620009db87838801620008ed565b93506040860135915080821115620009f1575f80fd5b5062000a0086828701620008ed565b9150509250925092565b634e487b7160e01b5f52603260045260245ffd5b600181811c9082168062000a3357607f821691505b60208210810362000a5257634e487b7160e01b5f52602260045260245ffd5b50919050565b65026b0b3b2b7160d51b81525f825162000a7a816006850160208701620007cb565b6220534960e81b6006939091019283015250600901919050565b604081525f62000aa86040830185620007ef565b828103602084015262000abc8185620007ef565b95945050505050565b65026b0b3b2b7160d51b81525f825162000ae7816006850160208701620007cb565b62204e4f60e81b6006939091019283015250600901919050565b601f82111562000b4e575f81815260208120601f850160051c8101602086101562000b295750805b601f850160051c820191505b8181101562000b4a5782815560010162000b35565b5050505b505050565b815167ffffffffffffffff81111562000b705762000b70620008d9565b62000b888162000b81845462000a1e565b8462000b01565b602080601f83116001811462000bbe575f841562000ba65750858301515b5f19600386901b1c1916600185901b17855562000b4a565b5f85815260208120601f198616915b8281101562000bee5788860151825594840194600190910190840162000bcd565b508582101562000c0c57878501515f19600388901b60f8161c191681555b5050505050600190811b01905550565b8181038181111562000c3c57634e487b7160e01b5f52601160045260245ffd5b9291505056fe608060405234801562000010575f80fd5b5060405162000c7938038062000c798339810160408190526200003391620001a7565b338282600362000044838262000299565b50600462000053828262000299565b5050506001600160a01b0381166200008457604051631e4fbdf760e01b81525f600482015260240160405180910390fd5b6200008f8162000098565b50505062000361565b600580546001600160a01b038381166001600160a01b0319831681179093556040519116919082907f8be0079c531659141344cd1fd0a4f28419497f9722a3daafe3b4186f6b6457e0905f90a35050565b634e487b7160e01b5f52604160045260245ffd5b5f82601f8301126200010d575f80fd5b81516001600160401b03808211156200012a576200012a620000e9565b604051601f8301601f19908116603f01168101908282118183101715620001555762000155620000e9565b8160405283815260209250868385880101111562000171575f80fd5b5f91505b8382101562000194578582018301518183018401529082019062000175565b5f93810190920192909252949350505050565b5f8060408385031215620001b9575f80fd5b82516001600160401b0380821115620001d0575f80fd5b620001de86838701620000fd565b93506020850151915080821115620001f4575f80fd5b506200020385828601620000fd565b9150509250929050565b600181811c908216806200022257607f821691505b6020821081036200024157634e487b7160e01b5f52602260045260245ffd5b50919050565b601f82111562000294575f81815260208120601f850160051c810160208610156200026f5750805b601f850160051c820191505b8181101562000290578281556001016200027b565b5050505b505050565b81516001600160401b03811115620002b557620002b5620000e9565b620002cd81620002c684546200020d565b8462000247565b602080601f83116001811462000303575f8415620002eb5750858301515b5f19600386901b1c1916600185901b17855562000290565b5f85815260208120601f198616915b82811015620003335788860151825594840194600190910190840162000312565b50858210156200035157878501515f19600388901b60f8161c191681555b5050505050600190811b01905550565b61090a806200036f5f395ff3fe608060405234801561000f575f80fd5b50600436106100e5575f3560e01c8063715018a6116100885780639dc29fac116100635780639dc29fac146101c6578063a9059cbb146101d9578063dd62ed3e146101ec578063f2fde38b14610224575f80fd5b8063715018a61461019b5780638da5cb5b146101a357806395d89b41146101be575f80fd5b806323b872dd116100c357806323b872dd1461013c578063313ce5671461014f57806340c10f191461015e57806370a0823114610173575f80fd5b806306fdde03146100e9578063095ea7b31461010757806318160ddd1461012a575b5f80fd5b6100f1610237565b6040516100fe9190610765565b60405180910390f35b61011a6101153660046107cb565b6102c7565b60405190151581526020016100fe565b6002545b6040519081526020016100fe565b61011a61014a3660046107f3565b6102e0565b604051601281526020016100fe565b61017161016c3660046107cb565b610303565b005b61012e61018136600461082c565b6001600160a01b03165f9081526020819052604090205490565b610171610319565b6005546040516001600160a01b0390911681526020016100fe565b6100f161032c565b6101716101d43660046107cb565b61033b565b61011a6101e73660046107cb565b61034d565b61012e6101fa36600461084c565b6001600160a01b039182165f90815260016020908152604080832093909416825291909152205490565b61017161023236600461082c565b61035a565b6060600380546102469061087d565b80601f01602080910402602001604051908101604052809291908181526020018280546102729061087d565b80156102bd5780601f10610294576101008083540402835291602001916102bd565b820191905f5260205f20905b8154815290600101906020018083116102a057829003601f168201915b5050505050905090565b5f336102d481858561039c565b60019150505b92915050565b5f336102ed8582856103ae565b6102f885858561042a565b506001949350505050565b61030b610487565b61031582826104b4565b5050565b610321610487565b61032a5f6104e8565b565b6060600480546102469061087d565b610343610487565b6103158282610539565b5f336102d481858561042a565b610362610487565b6001600160a01b03811661039057604051631e4fbdf760e01b81525f60048201526024015b60405180910390fd5b610399816104e8565b50565b6103a9838383600161056d565b505050565b6001600160a01b038381165f908152600160209081526040808320938616835292905220545f19811015610424578181101561041657604051637dc7a0d960e11b81526001600160a01b03841660048201526024810182905260448101839052606401610387565b61042484848484035f61056d565b50505050565b6001600160a01b03831661045357604051634b637e8f60e11b81525f6004820152602401610387565b6001600160a01b03821661047c5760405163ec442f0560e01b81525f6004820152602401610387565b6103a983838361063f565b6005546001600160a01b0316331461032a5760405163118cdaa760e01b8152336004820152602401610387565b6001600160a01b0382166104dd5760405163ec442f0560e01b81525f6004820152602401610387565b6103155f838361063f565b600580546001600160a01b038381166001600160a01b0319831681179093556040519116919082907f8be0079c531659141344cd1fd0a4f28419497f9722a3daafe3b4186f6b6457e0905f90a35050565b6001600160a01b03821661056257604051634b637e8f60e11b81525f6004820152602401610387565b610315825f8361063f565b6001600160a01b0384166105965760405163e602df0560e01b81525f6004820152602401610387565b6001600160a01b0383166105bf57604051634a1406b160e11b81525f6004820152602401610387565b6001600160a01b038085165f908152600160209081526040808320938716835292905220829055801561042457826001600160a01b0316846001600160a01b03167f8c5be1e5ebec7d5bd14f71427d1e84f3dd0314c0f7b2291e5b200ac8c7c3b9258460405161063191815260200190565b60405180910390a350505050565b6001600160a01b038316610669578060025f82825461065e91906108b5565b909155506106d99050565b6001600160a01b0383165f90815260208190526040902054818110156106bb5760405163391434e360e21b81526001600160a01b03851660048201526024810182905260448101839052606401610387565b6001600160a01b0384165f9081526020819052604090209082900390555b6001600160a01b0382166106f557600280548290039055610713565b6001600160a01b0382165f9081526020819052604090208054820190555b816001600160a01b0316836001600160a01b03167fddf252ad1be2c89b69c2b068fc378daa952ba7f163c4a11628f55a4df523b3ef8360405161075891815260200190565b60405180910390a3505050565b5f6020808352835180828501525f5b8181101561079057858101830151858201604001528201610774565b505f604082860101526040601f19601f8301168501019250505092915050565b80356001600160a01b03811681146107c6575f80fd5b919050565b5f80604083850312156107dc575f80fd5b6107e5836107b0565b946020939093013593505050565b5f805f60608486031215610805575f80fd5b61080e846107b0565b925061081c602085016107b0565b9150604084013590509250925092565b5f6020828403121561083c575f80fd5b610845826107b0565b9392505050565b5f806040838503121561085d575f80fd5b610866836107b0565b9150610874602084016107b0565b90509250929050565b600181811c9082168061089157607f821691505b6020821081036108af57634e487b7160e01b5f52602260045260245ffd5b50919050565b808201808211156102da57634e487b7160e01b5f52601160045260245ffdfea2646970667358221220c8d50c233e62ac8d676de3a48064082e7cec7161668fa40a045f8c8e70ffc3b064736f6c63430008150033608060405234801561000f575f80fd5b50604051610c51380380610c5183398101604081905261002e91610109565b338061005357604051631e4fbdf760e01b81525f600482015260240160405180910390fd5b61005c8161009f565b50600180546001600160a01b039485166001600160a01b031991821617909155600280549385169382169390931790925560038054919093169116179055610149565b5f80546001600160a01b038381166001600160a01b0319831681178455604051919092169283917f8be0079c531659141344cd1fd0a4f28419497f9722a3daafe3b4186f6b6457e09190a35050565b80516001600160a01b0381168114610104575f80fd5b919050565b5f805f6060848603121561011b575f80fd5b610124846100ee565b9250610132602085016100ee565b9150610140604085016100ee565b90509250925092565b610afb806101565f395ff3fe608060405234801561000f575f80fd5b50600436106100b1575f3560e01c806371baa1af1161006e57806371baa1af1461014c57806379ed76661461015f5780638da5cb5b14610176578063a0712d6814610186578063f2fde38b14610199578063ff1a277c146101ac575f80fd5b80631c09b721146100b55780633e413bee146100e55780633f6fa655146100f857806342966c681461011c5780634f896d4f14610131578063715018a614610144575b5f80fd5b6002546100c8906001600160a01b031681565b6040516001600160a01b0390911681526020015b60405180910390f35b6001546100c8906001600160a01b031681565b60035461010c90600160a01b900460ff1681565b60405190151581526020016100dc565b61012f61012a3660046109c8565b6101bf565b005b61012f61013f3660046109c8565b6103ba565b61012f6104ac565b61012f61015a3660046109ec565b6104bf565b61016860045481565b6040519081526020016100dc565b5f546001600160a01b03166100c8565b61012f6101943660046109c8565b610719565b61012f6101a7366004610a1a565b610910565b6003546100c8906001600160a01b031681565b600354600160a01b900460ff16156102105760405162461bcd60e51b815260206004820152600f60248201526e13585c9ad95d081c995cdbdb1d9959608a1b60448201526064015b60405180910390fd5b600254604051632770a7eb60e21b8152336004820152602481018390526001600160a01b0390911690639dc29fac906044015f604051808303815f87803b158015610259575f80fd5b505af115801561026b573d5f803e3d5ffd5b5050600354604051632770a7eb60e21b8152336004820152602481018590526001600160a01b039091169250639dc29fac91506044015f604051808303815f87803b1580156102b8575f80fd5b505af11580156102ca573d5f803e3d5ffd5b505060015460405163a9059cbb60e01b8152336004820152602481018590526001600160a01b03909116925063a9059cbb91506044016020604051808303815f875af115801561031c573d5f803e3d5ffd5b505050506040513d601f19601f820116820180604052508101906103409190610a47565b6103815760405162461bcd60e51b81526020600482015260126024820152711554d110c81c995d1d5c9b8819985a5b195960721b6044820152606401610207565b60405181815233907f696de425f79f4a40bc6d2122ca50507f0efbeabbff86a84871b7196ab8ea8df7906020015b60405180910390a250565b6103c261094d565b600354600160a01b900460ff161561040f5760405162461bcd60e51b815260206004820152601060248201526f105b1c9958591e481c995cdbdb1d995960821b6044820152606401610207565b670de0b6b3a76400008111156104575760405162461bcd60e51b815260206004820152600d60248201526c496e76616c6964207363616c6560981b6044820152606401610207565b60048190556003805460ff60a01b1916600160a01b1790556040517f148a25ee2a7671350ab878ff183447de8ae5afa2ee0ae7d5ee1ad6b25c4868c2906104a19083815260200190565b60405180910390a150565b6104b461094d565b6104bd5f610979565b565b600354600160a01b900460ff1661050e5760405162461bcd60e51b815260206004820152601360248201527213585c9ad95d081b9bdd081c995cdbdb1d9959606a1b6044820152606401610207565b5f811561059c57600254604051632770a7eb60e21b8152336004820152602481018590526001600160a01b0390911690639dc29fac906044015f604051808303815f87803b15801561055e575f80fd5b505af1158015610570573d5f803e3d5ffd5b50505050670de0b6b3a76400006004548461058b9190610a76565b6105959190610a93565b9050610631565b600354604051632770a7eb60e21b8152336004820152602481018590526001600160a01b0390911690639dc29fac906044015f604051808303815f87803b1580156105e5575f80fd5b505af11580156105f7573d5f803e3d5ffd5b50505050670de0b6b3a7640000600454670de0b6b3a764000061061a9190610ab2565b6106249085610a76565b61062e9190610a93565b90505b60015460405163a9059cbb60e01b8152336004820152602481018390526001600160a01b039091169063a9059cbb906044016020604051808303815f875af115801561067f573d5f803e3d5ffd5b505050506040513d601f19601f820116820180604052508101906106a39190610a47565b6106df5760405162461bcd60e51b815260206004820152600d60248201526c14185e5bdd5d0819985a5b1959609a1b6044820152606401610207565b60405181815233907fd8138f8a3f377c5259ca548e70e4c2de94f129f5a11036a15b69513cba2b426a9060200160405180910390a2505050565b600354600160a01b900460ff16156107655760405162461bcd60e51b815260206004820152600f60248201526e13585c9ad95d081c995cdbdb1d9959608a1b6044820152606401610207565b6001546040516323b872dd60e01b8152336004820152306024820152604481018390526001600160a01b03909116906323b872dd906064016020604051808303815f875af11580156107b9573d5f803e3d5ffd5b505050506040513d601f19601f820116820180604052508101906107dd9190610a47565b6108205760405162461bcd60e51b81526020600482015260146024820152731554d110c81d1c985b9cd9995c8819985a5b195960621b6044820152606401610207565b6002546040516340c10f1960e01b8152336004820152602481018390526001600160a01b03909116906340c10f19906044015f604051808303815f87803b158015610869575f80fd5b505af115801561087b573d5f803e3d5ffd5b50506003546040516340c10f1960e01b8152336004820152602481018590526001600160a01b0390911692506340c10f1991506044015f604051808303815f87803b1580156108c8575f80fd5b505af11580156108da573d5f803e3d5ffd5b50506040518381523392507f30385c845b448a36257a6a1716e6ad2e1bc2cbe333cde1e69fe849ad6511adfe91506020016103af565b61091861094d565b6001600160a01b03811661094157604051631e4fbdf760e01b81525f6004820152602401610207565b61094a81610979565b50565b5f546001600160a01b031633146104bd5760405163118cdaa760e01b8152336004820152602401610207565b5f80546001600160a01b038381166001600160a01b0319831681178455604051919092169283917f8be0079c531659141344cd1fd0a4f28419497f9722a3daafe3b4186f6b6457e09190a35050565b5f602082840312156109d8575f80fd5b5035919050565b801515811461094a575f80fd5b5f80604083850312156109fd575f80fd5b823591506020830135610a0f816109df565b809150509250929050565b5f60208284031215610a2a575f80fd5b81356001600160a01b0381168114610a40575f80fd5b9392505050565b5f60208284031215610a57575f80fd5b8151610a40816109df565b634e487b7160e01b5f52601160045260245ffd5b8082028115828204841417610a8d57610a8d610a62565b92915050565b5f82610aad57634e487b7160e01b5f52601260045260245ffd5b500490565b81810381811115610a8d57610a8d610a6256fea26469706673582212200ef825dd47acbcdf7b1910642ce8e9aa45bcf0b7fdfbcbcd33655823b5c3b83364736f6c63430008150033608060405234801562000010575f80fd5b50604051620014d9380380620014d98339810160408190526200003391620000e3565b604080518082018252600881526704d6167656e204c560c41b6020808301919091528251808401909352600383526204d4c560ec1b9083015260015f559060046200007f8382620001b9565b5060056200008e8282620001b9565b5050600680546001600160a01b039485166001600160a01b03199182161790915560078054939094169216919091179091555062000281565b80516001600160a01b0381168114620000de575f80fd5b919050565b5f8060408385031215620000f5575f80fd5b6200010083620000c7565b91506200011060208401620000c7565b90509250929050565b634e487b7160e01b5f52604160045260245ffd5b600181811c908216806200014257607f821691505b6020821081036200016157634e487b7160e01b5f52602260045260245ffd5b50919050565b601f821115620001b4575f81815260208120601f850160051c810160208610156200018f5750805b601f850160051c820191505b81811015620001b0578281556001016200019b565b5050505b505050565b81516001600160401b03811115620001d557620001d562000119565b620001ed81620001e684546200012d565b8462000167565b602080601f83116001811462000223575f84156200020b5750858301515b5f19600386901b1c1916600185901b178555620001b0565b5f85815260208120601f198616915b82811015620002535788860151825594840194600190910190840162000232565b50858210156200027157878501515f19600388901b60f8161c191681555b5050505050600190811b01905550565b61124a806200028f5f395ff3fe608060405234801561000f575f80fd5b5060043610610106575f3560e01c8063397151ea1161009e5780639cd441da1161006e5780639cd441da14610237578063a9059cbb1461024a578063b76162d71461025d578063dd62ed3e14610266578063ff1a277c1461029e575f80fd5b8063397151ea146101d657806370a08231146101df57806395d89b41146102075780639c8f9f231461020f575f80fd5b80631c09b721116100d95780631c09b7211461017457806323b872dd1461019f5780632aea6605146101b2578063313ce567146101c7575f80fd5b806306fdde031461010a578063095ea7b31461012857806311106ee21461014b57806318160ddd1461016c575b5f80fd5b6101126102b1565b60405161011f9190610f53565b60405180910390f35b61013b610136366004610fb4565b610341565b604051901515815260200161011f565b61015e610159366004610fec565b61035a565b60405190815260200161011f565b60035461015e565b600654610187906001600160a01b031681565b6040516001600160a01b03909116815260200161011f565b61013b6101ad36600461101a565b610409565b6101c56101c0366004610fec565b61042c565b005b6040516012815260200161011f565b61015e60085481565b61015e6101ed366004611053565b6001600160a01b03165f9081526001602052604090205490565b610112610734565b61022261021d366004611073565b610743565b6040805192835260208301919091520161011f565b61015e61024536600461108a565b61093f565b61013b610258366004610fb4565b610b65565b61015e60095481565b61015e6102743660046110aa565b6001600160a01b039182165f90815260026020908152604080832093909416825291909152205490565b600754610187906001600160a01b031681565b6060600480546102c0906110db565b80601f01602080910402602001604051908101604052809291908181526020018280546102ec906110db565b80156103375780601f1061030e57610100808354040283529160200191610337565b820191905f5260205f20905b81548152906001019060200180831161031a57829003601f168201915b5050505050905090565b5f3361034e818585610b72565b60019150505b92915050565b5f80826103695760095461036d565b6008545b90505f8361037d57600854610381565b6009545b90505f8211801561039157505f81115b6103da5760405162461bcd60e51b8152602060048201526015602482015274496e73756666696369656e7420726573657276657360581b60448201526064015b60405180910390fd5b5f6103e58683611121565b90505f6103f28785611138565b90506103fe818361114b565b979650505050505050565b5f33610416858285610b84565b610421858585610c00565b506001949350505050565b610434610c5d565b5f82116104745760405162461bcd60e51b815260206004820152600e60248201526d125b9d985b1a5908185b5bdd5b9d60921b60448201526064016103d1565b5f61047f838361035a565b905081156105d9576006546040516323b872dd60e01b81526001600160a01b03909116906323b872dd906104bb9033903090889060040161116a565b6020604051808303815f875af11580156104d7573d5f803e3d5ffd5b505050506040513d601f19601f820116820180604052508101906104fb919061118e565b6105175760405162461bcd60e51b81526004016103d1906111a9565b60075460405163a9059cbb60e01b8152336004820152602481018390526001600160a01b039091169063a9059cbb906044016020604051808303815f875af1158015610565573d5f803e3d5ffd5b505050506040513d601f19601f82011682018060405250810190610589919061118e565b6105a55760405162461bcd60e51b81526004016103d1906111d5565b8260085f8282546105b69190611138565b925050819055508060095f8282546105ce9190611201565b909155506107269050565b6007546040516323b872dd60e01b81526001600160a01b03909116906323b872dd9061060d9033903090889060040161116a565b6020604051808303815f875af1158015610629573d5f803e3d5ffd5b505050506040513d601f19601f8201168201806040525081019061064d919061118e565b6106695760405162461bcd60e51b81526004016103d1906111d5565b60065460405163a9059cbb60e01b8152336004820152602481018390526001600160a01b039091169063a9059cbb906044016020604051808303815f875af11580156106b7573d5f803e3d5ffd5b505050506040513d601f19601f820116820180604052508101906106db919061118e565b6106f75760405162461bcd60e51b81526004016103d1906111a9565b8260095f8282546107089190611138565b925050819055508060085f8282546107209190611201565b90915550505b5061073060015f55565b5050565b6060600580546102c0906110db565b335f9081526001602052604081205481908311156107a35760405162461bcd60e51b815260206004820152601760248201527f496e73756666696369656e74204c502062616c616e636500000000000000000060448201526064016103d1565b5f6107ad60035490565b905080600854856107be9190611121565b6107c8919061114b565b925080600954856107d99190611121565b6107e3919061114b565b91506107ef3385610c85565b8260085f8282546108009190611201565b925050819055508160095f8282546108189190611201565b909155505060065460405163a9059cbb60e01b8152336004820152602481018590526001600160a01b039091169063a9059cbb906044016020604051808303815f875af115801561086b573d5f803e3d5ffd5b505050506040513d601f19601f8201168201806040525081019061088f919061118e565b6108ab5760405162461bcd60e51b81526004016103d1906111a9565b60075460405163a9059cbb60e01b8152336004820152602481018490526001600160a01b039091169063a9059cbb906044016020604051808303815f875af11580156108f9573d5f803e3d5ffd5b505050506040513d601f19601f8201168201806040525081019061091d919061118e565b6109395760405162461bcd60e51b81526004016103d1906111d5565b50915091565b6006546040516323b872dd60e01b81525f916001600160a01b0316906323b872dd906109739033903090889060040161116a565b6020604051808303815f875af115801561098f573d5f803e3d5ffd5b505050506040513d601f19601f820116820180604052508101906109b3919061118e565b6109cf5760405162461bcd60e51b81526004016103d1906111a9565b6007546040516323b872dd60e01b81526001600160a01b03909116906323b872dd90610a039033903090879060040161116a565b6020604051808303815f875af1158015610a1f573d5f803e3d5ffd5b505050506040513d601f19601f82011682018060405250810190610a43919061118e565b610a5f5760405162461bcd60e51b81526004016103d1906111d5565b5f610a6960035490565b9050805f03610a8b57610a84610a7f8486611121565b610cb9565b9150610ad6565b6008545f90610a9a8387611121565b610aa4919061114b565b90505f6009548386610ab69190611121565b610ac0919061114b565b9050808210610acf5780610ad1565b815b935050505b5f8211610b255760405162461bcd60e51b815260206004820152601d60248201527f496e73756666696369656e74206c6971756964697479206d696e74656400000060448201526064016103d1565b610b2f3383610d27565b8360085f828254610b409190611138565b925050819055508260095f828254610b589190611138565b9091555091949350505050565b5f3361034e818585610c00565b610b7f8383836001610d5b565b505050565b6001600160a01b038381165f908152600260209081526040808320938616835292905220545f19811015610bfa5781811015610bec57604051637dc7a0d960e11b81526001600160a01b038416600482015260248101829052604481018390526064016103d1565b610bfa84848484035f610d5b565b50505050565b6001600160a01b038316610c2957604051634b637e8f60e11b81525f60048201526024016103d1565b6001600160a01b038216610c525760405163ec442f0560e01b81525f60048201526024016103d1565b610b7f838383610e2d565b60025f5403610c7f57604051633ee5aeb560e01b815260040160405180910390fd5b60025f55565b6001600160a01b038216610cae57604051634b637e8f60e11b81525f60048201526024016103d1565b610730825f83610e2d565b5f6003821115610d185750805f610cd160028361114b565b610cdc906001611138565b90505b81811015610d1257905080600281610cf7818661114b565b610d019190611138565b610d0b919061114b565b9050610cdf565b50919050565b8115610d22575060015b919050565b6001600160a01b038216610d505760405163ec442f0560e01b81525f60048201526024016103d1565b6107305f8383610e2d565b6001600160a01b038416610d845760405163e602df0560e01b81525f60048201526024016103d1565b6001600160a01b038316610dad57604051634a1406b160e11b81525f60048201526024016103d1565b6001600160a01b038085165f9081526002602090815260408083209387168352929052208290558015610bfa57826001600160a01b0316846001600160a01b03167f8c5be1e5ebec7d5bd14f71427d1e84f3dd0314c0f7b2291e5b200ac8c7c3b92584604051610e1f91815260200190565b60405180910390a350505050565b6001600160a01b038316610e57578060035f828254610e4c9190611138565b90915550610ec79050565b6001600160a01b0383165f9081526001602052604090205481811015610ea95760405163391434e360e21b81526001600160a01b038516600482015260248101829052604481018390526064016103d1565b6001600160a01b0384165f9081526001602052604090209082900390555b6001600160a01b038216610ee357600380548290039055610f01565b6001600160a01b0382165f9081526001602052604090208054820190555b816001600160a01b0316836001600160a01b03167fddf252ad1be2c89b69c2b068fc378daa952ba7f163c4a11628f55a4df523b3ef83604051610f4691815260200190565b60405180910390a3505050565b5f6020808352835180828501525f5b81811015610f7e57858101830151858201604001528201610f62565b505f604082860101526040601f19601f8301168501019250505092915050565b80356001600160a01b0381168114610d22575f80fd5b5f8060408385031215610fc5575f80fd5b610fce83610f9e565b946020939093013593505050565b8015158114610fe9575f80fd5b50565b5f8060408385031215610ffd575f80fd5b82359150602083013561100f81610fdc565b809150509250929050565b5f805f6060848603121561102c575f80fd5b61103584610f9e565b925061104360208501610f9e565b9150604084013590509250925092565b5f60208284031215611063575f80fd5b61106c82610f9e565b9392505050565b5f60208284031215611083575f80fd5b5035919050565b5f806040838503121561109b575f80fd5b50508035926020909101359150565b5f80604083850312156110bb575f80fd5b6110c483610f9e565b91506110d260208401610f9e565b90509250929050565b600181811c908216806110ef57607f821691505b602082108103610d1257634e487b7160e01b5f52602260045260245ffd5b634e487b7160e01b5f52601160045260245ffd5b80820281158282048414176103545761035461110d565b808201808211156103545761035461110d565b5f8261116557634e487b7160e01b5f52601260045260245ffd5b500490565b6001600160a01b039384168152919092166020820152604081019190915260600190565b5f6020828403121561119e575f80fd5b815161106c81610fdc565b602080825260129082015271151c985b9cd9995c8814d24819985a5b195960721b604082015260600190565b602080825260129082015271151c985b9cd9995c881393c819985a5b195960721b604082015260600190565b818103818111156103545761035461110d56fea2646970667358221220ff3112d1518334bc12980775d6941413a94bb51eed9b58e52d5d86e0fc9bdd9d64736f6c63430008150033608060405234801562000010575f80fd5b506040516200161b3803806200161b8339810160408190526200003391620000b1565b5f80546001600160a01b03199081166001600160a01b039788161790915560018054821695871695909517909455600280548516938616939093179092556003805484169185169190911790556004805490921692169190911790556200011d565b80516001600160a01b0381168114620000ac575f80fd5b919050565b5f805f805f60a08688031215620000c6575f80fd5b620000d18662000095565b9450620000e16020870162000095565b9350620000f16040870162000095565b9250620001016060870162000095565b9150620001116080870162000095565b90509295509295909350565b6114f0806200012b5f395ff3fe608060405234801561000f575f80fd5b5060043610610090575f3560e01c806341abb2e61161006357806341abb2e6146100fe5780636ceec570146101115780636ef27a6314610124578063fbfa77cf14610137578063ff1a277c14610149575f80fd5b80631c09b721146100945780632a943945146100c357806336c37fff146100d65780633e413bee146100eb575b5f80fd5b6003546100a7906001600160a01b031681565b6040516001600160a01b03909116815260200160405180910390f35b6001546100a7906001600160a01b031681565b6100e96100e436600461132d565b61015c565b005b6002546100a7906001600160a01b031681565b6100e961010c36600461132d565b610517565b6100e961011f36600461132d565b610aee565b6100e961013236600461132d565b610e62565b5f546100a7906001600160a01b031681565b6004546100a7906001600160a01b031681565b6002546040516323b872dd60e01b81526001600160a01b03909116906323b872dd9061019090339030908690600401611344565b6020604051808303815f875af11580156101ac573d5f803e3d5ffd5b505050506040513d601f19601f820116820180604052508101906101d09190611368565b6102185760405162461bcd60e51b81526020600482015260146024820152731554d110c81d1c985b9cd9995c8819985a5b195960621b60448201526064015b60405180910390fd5b6002545f5460405163095ea7b360e01b81526001600160a01b0391821660048201526024810184905291169063095ea7b3906044016020604051808303815f875af1158015610269573d5f803e3d5ffd5b505050506040513d601f19601f8201168201806040525081019061028d9190611368565b505f5460405163140e25ad60e31b8152600481018390526001600160a01b039091169063a0712d68906024015f604051808303815f87803b1580156102d0575f80fd5b505af11580156102e2573d5f803e3d5ffd5b5050600480546040516370a0823160e01b815230928101929092525f93506001600160a01b031691506370a0823190602401602060405180830381865afa15801561032f573d5f803e3d5ffd5b505050506040513d601f19601f8201168201806040525081019061035391906113a7565b6004805460015460405163095ea7b360e01b81526001600160a01b039182169381019390935260248301849052929350919091169063095ea7b3906044016020604051808303815f875af11580156103ad573d5f803e3d5ffd5b505050506040513d601f19601f820116820180604052508101906103d19190611368565b50600154604051632aea660560e01b8152600481018390525f60248201526001600160a01b0390911690632aea6605906044015f604051808303815f87803b15801561041b575f80fd5b505af115801561042d573d5f803e3d5ffd5b50506003546040516370a0823160e01b81523060048201525f93506001600160a01b0390911691506370a0823190602401602060405180830381865afa158015610479573d5f803e3d5ffd5b505050506040513d601f19601f8201168201806040525081019061049d91906113a7565b60035460405163a9059cbb60e01b8152336004820152602481018390529192506001600160a01b03169063a9059cbb906044015b6020604051808303815f875af11580156104ed573d5f803e3d5ffd5b505050506040513d601f19601f820116820180604052508101906105119190611368565b50505050565b5f811161055b5760405162461bcd60e51b81526020600482015260126024820152710416d6f756e74206d757374206265203e20360741b604482015260640161020f565b6003546040516323b872dd60e01b81526001600160a01b03909116906323b872dd9061058f90339030908690600401611344565b6020604051808303815f875af11580156105ab573d5f803e3d5ffd5b505050506040513d601f19601f820116820180604052508101906105cf9190611368565b6106105760405162461bcd60e51b8152602060048201526012602482015271151c985b9cd9995c8814d24819985a5b195960721b604482015260640161020f565b5f8060015f9054906101000a90046001600160a01b03166001600160a01b031663397151ea6040518163ffffffff1660e01b8152600401602060405180830381865afa158015610662573d5f803e3d5ffd5b505050506040513d601f19601f8201168201806040525081019061068691906113a7565b60015f9054906101000a90046001600160a01b03166001600160a01b031663b76162d76040518163ffffffff1660e01b8152600401602060405180830381865afa1580156106d6573d5f803e3d5ffd5b505050506040513d601f19601f820116820180604052508101906106fa91906113a7565b91509150815f148061070a575080155b156107575760405162461bcd60e51b815260206004820152601f60248201527f496e73756666696369656e74206c697175696469747920666f722073656c6c00604482015260640161020f565b5f828285838161076785856113d2565b61077191906113f9565b90505f61077e858461141f565b61078790611454565b90505f61079582600461141f565b61079f848061141f565b6107a991906113f9565b90505f6107b5826111d5565b90505f816107c286611454565b6107cc91906113d2565b90506107d9600282611482565b60035460015460405163095ea7b360e01b8152929b506001600160a01b039182169a5063095ea7b3995061081b9850169550899450600401925061138e915050565b6020604051808303815f875af1158015610837573d5f803e3d5ffd5b505050506040513d601f19601f8201168201806040525081019061085b9190611368565b5060018054604051632aea660560e01b81526004810184905260248101929092526001600160a01b031690632aea6605906044015b5f604051808303815f87803b1580156108a7575f80fd5b505af11580156108b9573d5f803e3d5ffd5b50506003546040516370a0823160e01b81523060048201525f93506001600160a01b0390911691506370a0823190602401602060405180830381865afa158015610905573d5f803e3d5ffd5b505050506040513d601f19601f8201168201806040525081019061092991906113a7565b600480546040516370a0823160e01b815230928101929092529192505f916001600160a01b0316906370a0823190602401602060405180830381865afa158015610975573d5f803e3d5ffd5b505050506040513d601f19601f8201168201806040525081019061099991906113a7565b90505f8183106109a957816109ab565b825b5f54604051630852cd8d60e31b8152600481018390529192506001600160a01b0316906342966c68906024015f604051808303815f87803b1580156109ee575f80fd5b505af1158015610a00573d5f803e3d5ffd5b50506002546040516370a0823160e01b81523060048201525f93506001600160a01b0390911691506370a0823190602401602060405180830381865afa158015610a4c573d5f803e3d5ffd5b505050506040513d601f19601f82011682018060405250810190610a7091906113a7565b60025460405163a9059cbb60e01b8152336004820152602481018390529192506001600160a01b03169063a9059cbb906044016020604051808303815f875af1158015610abf573d5f803e3d5ffd5b505050506040513d601f19601f82011682018060405250810190610ae39190611368565b505050505050505050565b6002546040516323b872dd60e01b81526001600160a01b03909116906323b872dd90610b2290339030908690600401611344565b6020604051808303815f875af1158015610b3e573d5f803e3d5ffd5b505050506040513d601f19601f82011682018060405250810190610b629190611368565b610ba55760405162461bcd60e51b81526020600482015260146024820152731554d110c81d1c985b9cd9995c8819985a5b195960621b604482015260640161020f565b6002545f5460405163095ea7b360e01b81526001600160a01b0391821660048201526024810184905291169063095ea7b3906044016020604051808303815f875af1158015610bf6573d5f803e3d5ffd5b505050506040513d601f19601f82011682018060405250810190610c1a9190611368565b505f5460405163140e25ad60e31b8152600481018390526001600160a01b039091169063a0712d68906024015f604051808303815f87803b158015610c5d575f80fd5b505af1158015610c6f573d5f803e3d5ffd5b50506003546040516370a0823160e01b81523060048201525f93506001600160a01b0390911691506370a0823190602401602060405180830381865afa158015610cbb573d5f803e3d5ffd5b505050506040513d601f19601f82011682018060405250810190610cdf91906113a7565b60035460015460405163095ea7b360e01b81526001600160a01b03918216600482015260248101849052929350169063095ea7b3906044016020604051808303815f875af1158015610d33573d5f803e3d5ffd5b505050506040513d601f19601f82011682018060405250810190610d579190611368565b5060018054604051632aea660560e01b81526004810184905260248101929092526001600160a01b031690632aea6605906044015f604051808303815f87803b158015610da2575f80fd5b505af1158015610db4573d5f803e3d5ffd5b5050600480546040516370a0823160e01b815230928101929092525f93506001600160a01b031691506370a0823190602401602060405180830381865afa158015610e01573d5f803e3d5ffd5b505050506040513d601f19601f82011682018060405250810190610e2591906113a7565b6004805460405163a9059cbb60e01b81523392810192909252602482018390529192506001600160a01b039091169063a9059cbb906044016104d1565b5f8111610ea65760405162461bcd60e51b81526020600482015260126024820152710416d6f756e74206d757374206265203e20360741b604482015260640161020f565b600480546040516323b872dd60e01b81526001600160a01b03909116916323b872dd91610ed99133913091879101611344565b6020604051808303815f875af1158015610ef5573d5f803e3d5ffd5b505050506040513d601f19601f82011682018060405250810190610f199190611368565b610f5a5760405162461bcd60e51b8152602060048201526012602482015271151c985b9cd9995c881393c819985a5b195960721b604482015260640161020f565b5f8060015f9054906101000a90046001600160a01b03166001600160a01b031663397151ea6040518163ffffffff1660e01b8152600401602060405180830381865afa158015610fac573d5f803e3d5ffd5b505050506040513d601f19601f82011682018060405250810190610fd091906113a7565b60015f9054906101000a90046001600160a01b03166001600160a01b031663b76162d76040518163ffffffff1660e01b8152600401602060405180830381865afa158015611020573d5f803e3d5ffd5b505050506040513d601f19601f8201168201806040525081019061104491906113a7565b91509150815f1480611054575080155b1561109a5760405162461bcd60e51b8152602060048201526016602482015275496e73756666696369656e74206c697175696469747960501b604482015260640161020f565b5f82828583816110aa85856113d2565b6110b491906113f9565b90505f6110c1848461141f565b6110ca90611454565b90505f6110d882600461141f565b6110e2848061141f565b6110ec91906113f9565b90505f6110f8826111d5565b90505f8161110586611454565b61110f91906113d2565b905061111c600282611482565b6004805460015460405163095ea7b360e01b8152939c506001600160a01b039182169b5063095ea7b39a5061115d99501696508a955001925061138e915050565b6020604051808303815f875af1158015611179573d5f803e3d5ffd5b505050506040513d601f19601f8201168201806040525081019061119d9190611368565b50600154604051632aea660560e01b8152600481018390525f60248201526001600160a01b0390911690632aea660590604401610890565b5f600182116111e2575090565b816001600160801b82106111fb5760809190911c9060401b5b6801000000000000000082106112165760409190911c9060201b5b640100000000821061122d5760209190911c9060101b5b6201000082106112425760109190911c9060081b5b61010082106112565760089190911c9060041b5b601082106112695760049190911c9060021b5b600482106112755760011b5b600302600190811c9081858161128d5761128d61146e565b048201901c905060018185816112a5576112a561146e565b048201901c905060018185816112bd576112bd61146e565b048201901c905060018185816112d5576112d561146e565b048201901c905060018185816112ed576112ed61146e565b048201901c905060018185816113055761130561146e565b048201901c905061132481858161131e5761131e61146e565b04821190565b90039392505050565b5f6020828403121561133d575f80fd5b5035919050565b6001600160a01b039384168152919092166020820152604081019190915260600190565b5f60208284031215611378575f80fd5b81518015158114611387575f80fd5b9392505050565b6001600160a01b03929092168252602082015260400190565b5f602082840312156113b7575f80fd5b5051919050565b634e487b7160e01b5f52601160045260245ffd5b8082018281125f8312801582168215821617156113f1576113f16113be565b505092915050565b8181035f831280158383131683831282161715611418576114186113be565b5092915050565b8082025f8212600160ff1b8414161561143a5761143a6113be565b818105831482151761144e5761144e6113be565b92915050565b5f600160ff1b8201611468576114686113be565b505f0390565b634e487b7160e01b5f52601260045260245ffd5b5f8261149c57634e487b7160e01b5f52601260045260245ffd5b600160ff1b82145f19841416156114b5576114b56113be565b50059056fea26469706673582212204eaf03d7fb2e1706c1a64ba27a9c087db10abf75430bf4c0c992b5f03b5f66f164736f6c63430008150033a264697066735822122032d93444ae5c3fcd5ff21589889a1901222841e82bdb24d239a378bfaa8e818664736f6c63430008150033",
  "immutableReferences": {},
  "source": "// SPDX-License-Identifier: MIT\r\npragma solidity ^0.8.0;\r\n\r\nimport \"./MagenRouter.sol\";\r\nimport \"./MagenVault.sol\";\r\nimport \"./SimpleAMM.sol\";\r\nimport \"./OutcomeToken.sol\";\r\n\r\ncontract PoolFactory {\r\n    address public usdcToken;\r\n\r\n    struct Pool {\r\n        string name;\r\n        address router;\r\n        address vault;\r\n        address amm;\r\n        address tokenSI;\r\n        address tokenNO;\r\n    }\r\n\r\n    Pool[] public pools;\r\n\r\n    event PoolCreated(uint256 indexed poolId, string name, address router, address vault, address amm, address tokenSI, address tokenNO);\r\n\r\n    constructor(address _usdcToken) {\r\n        usdcToken = _usdcToken;\r\n    }\r\n\r\n    function createPool(string memory name, string memory symbolSI, string memory symbolNO) external {\r\n        // 1. Deploy Outcome Tokens\r\n        // Name construction could be better, but basic is fine.\r\n        OutcomeToken si = new OutcomeToken(string(abi.encodePacked(\"Magen \", name, \" SI\")), symbolSI);\r\n        OutcomeToken no = new OutcomeToken(string(abi.encodePacked(\"Magen \", name, \" NO\")), symbolNO);\r\n\r\n        // 2. Deploy Vault\r\n        MagenVault vault = new MagenVault(usdcToken, address(si), address(no));\r\n\r\n        // 3. Deploy AMM\r\n        SimpleAMM amm = new SimpleAMM(address(si), address(no));\r\n\r\n        // 4. Deploy Router\r\n        MagenRouter router = new MagenRouter(address(vault), address(amm), usdcToken, address(si), address(no));\r\n\r\n        // 5. Transfer Ownership of Tokens to Vault (so Vault can mint/burn)\r\n        si.transferOwnership(address(vault));\r\n        no.transferOwnership(address(vault));\r\n\r\n        // 6. Transfer Ownership of Vault to Msg.Sender (so Creator can Resolve)\r\n        vault.transferOwnership(msg.sender);\r\n\r\n        pools.push(Pool({\r\n            name: name,\r\n            router: address(router),\r\n            vault: address(vault),\r\n            amm: address(amm),\r\n            tokenSI: address(si),\r\n            tokenNO: address(no)\r\n        }));\r\n\r\n        emit PoolCreated(pools.length - 1, name, address(router), address(vault), address(amm), address(si), address(no));\r\n    }\r\n\r\n    function getPoolsLength() external view returns (uint256) {\r\n        return pools.length;\r\n    }\r\n    \r\n    function getPool(uint256 index) external view returns (Pool memory) {\r\n        return pools[index];\r\n    }\r\n}\r\n",
  "sourcePath": "C:\\Users\\hanti\\Desktop\\Magen-Protocol\\contracts\\PoolFactory.sol",
  "compiler": {
    "name": "solc",
    "version": "0.8.21+commit.d9974bed.Emscripten.clang"
  },
  "schemaVersion": "3.4.16",
  "updatedAt": "2026-02-09T22:43:50.108Z",
  "networkType": "ethereum",
  "devdoc": {
    "kind": "dev",
    "methods": {},
    "version": 1
  },
  "userdoc": {
    "kind": "user",
    "methods": {},
    "version": 1
  }
}