{
  "contractName": "SimpleAMM",
  "abi": [
    {
      "inputs": [
        {
          "internalType": "address",
          "name": "_tokenSI",
          "type": "address"
        },
        {
          "internalType": "address",
          "name": "_tokenNO",
          "type": "address"
        }
      ],
      "stateMutability": "nonpayable",
      "type": "constructor"
    },
    {
      "inputs": [
        {
          "internalType": "address",
          "name": "spender",
          "type": "address"
        },
        {
          "internalType": "uint256",
          "name": "allowance",
          "type": "uint256"
        },
        {
          "internalType": "uint256",
          "name": "needed",
          "type": "uint256"
        }
      ],
      "name": "ERC20InsufficientAllowance",
      "type": "error"
    },
    {
      "inputs": [
        {
          "internalType": "address",
          "name": "sender",
          "type": "address"
        },
        {
          "internalType": "uint256",
          "name": "balance",
          "type": "uint256"
        },
        {
          "internalType": "uint256",
          "name": "needed",
          "type": "uint256"
        }
      ],
      "name": "ERC20InsufficientBalance",
      "type": "error"
    },
    {
      "inputs": [
        {
          "internalType": "address",
          "name": "approver",
          "type": "address"
        }
      ],
      "name": "ERC20InvalidApprover",
      "type": "error"
    },
    {
      "inputs": [
        {
          "internalType": "address",
          "name": "receiver",
          "type": "address"
        }
      ],
      "name": "ERC20InvalidReceiver",
      "type": "error"
    },
    {
      "inputs": [
        {
          "internalType": "address",
          "name": "sender",
          "type": "address"
        }
      ],
      "name": "ERC20InvalidSender",
      "type": "error"
    },
    {
      "inputs": [
        {
          "internalType": "address",
          "name": "spender",
          "type": "address"
        }
      ],
      "name": "ERC20InvalidSpender",
      "type": "error"
    },
    {
      "inputs": [],
      "name": "ReentrancyGuardReentrantCall",
      "type": "error"
    },
    {
      "anonymous": false,
      "inputs": [
        {
          "indexed": true,
          "internalType": "address",
          "name": "owner",
          "type": "address"
        },
        {
          "indexed": true,
          "internalType": "address",
          "name": "spender",
          "type": "address"
        },
        {
          "indexed": false,
          "internalType": "uint256",
          "name": "value",
          "type": "uint256"
        }
      ],
      "name": "Approval",
      "type": "event"
    },
    {
      "anonymous": false,
      "inputs": [
        {
          "indexed": true,
          "internalType": "address",
          "name": "from",
          "type": "address"
        },
        {
          "indexed": true,
          "internalType": "address",
          "name": "to",
          "type": "address"
        },
        {
          "indexed": false,
          "internalType": "uint256",
          "name": "value",
          "type": "uint256"
        }
      ],
      "name": "Transfer",
      "type": "event"
    },
    {
      "inputs": [
        {
          "internalType": "address",
          "name": "owner",
          "type": "address"
        },
        {
          "internalType": "address",
          "name": "spender",
          "type": "address"
        }
      ],
      "name": "allowance",
      "outputs": [
        {
          "internalType": "uint256",
          "name": "",
          "type": "uint256"
        }
      ],
      "stateMutability": "view",
      "type": "function"
    },
    {
      "inputs": [
        {
          "internalType": "address",
          "name": "spender",
          "type": "address"
        },
        {
          "internalType": "uint256",
          "name": "value",
          "type": "uint256"
        }
      ],
      "name": "approve",
      "outputs": [
        {
          "internalType": "bool",
          "name": "",
          "type": "bool"
        }
      ],
      "stateMutability": "nonpayable",
      "type": "function"
    },
    {
      "inputs": [
        {
          "internalType": "address",
          "name": "account",
          "type": "address"
        }
      ],
      "name": "balanceOf",
      "outputs": [
        {
          "internalType": "uint256",
          "name": "",
          "type": "uint256"
        }
      ],
      "stateMutability": "view",
      "type": "function"
    },
    {
      "inputs": [],
      "name": "decimals",
      "outputs": [
        {
          "internalType": "uint8",
          "name": "",
          "type": "uint8"
        }
      ],
      "stateMutability": "view",
      "type": "function"
    },
    {
      "inputs": [],
      "name": "name",
      "outputs": [
        {
          "internalType": "string",
          "name": "",
          "type": "string"
        }
      ],
      "stateMutability": "view",
      "type": "function"
    },
    {
      "inputs": [],
      "name": "reserveNO",
      "outputs": [
        {
          "internalType": "uint256",
          "name": "",
          "type": "uint256"
        }
      ],
      "stateMutability": "view",
      "type": "function"
    },
    {
      "inputs": [],
      "name": "reserveSI",
      "outputs": [
        {
          "internalType": "uint256",
          "name": "",
          "type": "uint256"
        }
      ],
      "stateMutability": "view",
      "type": "function"
    },
    {
      "inputs": [],
      "name": "symbol",
      "outputs": [
        {
          "internalType": "string",
          "name": "",
          "type": "string"
        }
      ],
      "stateMutability": "view",
      "type": "function"
    },
    {
      "inputs": [],
      "name": "tokenNO",
      "outputs": [
        {
          "internalType": "contract IERC20",
          "name": "",
          "type": "address"
        }
      ],
      "stateMutability": "view",
      "type": "function"
    },
    {
      "inputs": [],
      "name": "tokenSI",
      "outputs": [
        {
          "internalType": "contract IERC20",
          "name": "",
          "type": "address"
        }
      ],
      "stateMutability": "view",
      "type": "function"
    },
    {
      "inputs": [],
      "name": "totalSupply",
      "outputs": [
        {
          "internalType": "uint256",
          "name": "",
          "type": "uint256"
        }
      ],
      "stateMutability": "view",
      "type": "function"
    },
    {
      "inputs": [
        {
          "internalType": "address",
          "name": "to",
          "type": "address"
        },
        {
          "internalType": "uint256",
          "name": "value",
          "type": "uint256"
        }
      ],
      "name": "transfer",
      "outputs": [
        {
          "internalType": "bool",
          "name": "",
          "type": "bool"
        }
      ],
      "stateMutability": "nonpayable",
      "type": "function"
    },
    {
      "inputs": [
        {
          "internalType": "address",
          "name": "from",
          "type": "address"
        },
        {
          "internalType": "address",
          "name": "to",
          "type": "address"
        },
        {
          "internalType": "uint256",
          "name": "value",
          "type": "uint256"
        }
      ],
      "name": "transferFrom",
      "outputs": [
        {
          "internalType": "bool",
          "name": "",
          "type": "bool"
        }
      ],
      "stateMutability": "nonpayable",
      "type": "function"
    },
    {
      "inputs": [
        {
          "internalType": "uint256",
          "name": "amountSI",
          "type": "uint256"
        },
        {
          "internalType": "uint256",
          "name": "amountNO",
          "type": "uint256"
        }
      ],
      "name": "addLiquidity",
      "outputs": [
        {
          "internalType": "uint256",
          "name": "liquidity",
          "type": "uint256"
        }
      ],
      "stateMutability": "nonpayable",
      "type": "function"
    },
    {
      "inputs": [
        {
          "internalType": "uint256",
          "name": "liquidity",
          "type": "uint256"
        }
      ],
      "name": "removeLiquidity",
      "outputs": [
        {
          "internalType": "uint256",
          "name": "amountSI",
          "type": "uint256"
        },
        {
          "internalType": "uint256",
          "name": "amountNO",
          "type": "uint256"
        }
      ],
      "stateMutability": "nonpayable",
      "type": "function"
    },
    {
      "inputs": [
        {
          "internalType": "uint256",
          "name": "amountIn",
          "type": "uint256"
        },
        {
          "internalType": "bool",
          "name": "isSIIn",
          "type": "bool"
        }
      ],
      "name": "getAmountOut",
      "outputs": [
        {
          "internalType": "uint256",
          "name": "",
          "type": "uint256"
        }
      ],
      "stateMutability": "view",
      "type": "function"
    },
    {
      "inputs": [
        {
          "internalType": "uint256",
          "name": "amountIn",
          "type": "uint256"
        },
        {
          "internalType": "bool",
          "name": "isSIIn",
          "type": "bool"
        }
      ],
      "name": "swap",
      "outputs": [],
      "stateMutability": "nonpayable",
      "type": "function"
    }
  ],
  "bytecode": "0x608060405234801562000010575f80fd5b50604051620014d9380380620014d98339810160408190526200003391620000e3565b604080518082018252600881526704d6167656e204c560c41b6020808301919091528251808401909352600383526204d4c560ec1b9083015260015f559060046200007f8382620001b9565b5060056200008e8282620001b9565b5050600680546001600160a01b039485166001600160a01b03199182161790915560078054939094169216919091179091555062000281565b80516001600160a01b0381168114620000de575f80fd5b919050565b5f8060408385031215620000f5575f80fd5b6200010083620000c7565b91506200011060208401620000c7565b90509250929050565b634e487b7160e01b5f52604160045260245ffd5b600181811c908216806200014257607f821691505b6020821081036200016157634e487b7160e01b5f52602260045260245ffd5b50919050565b601f821115620001b4575f81815260208120601f850160051c810160208610156200018f5750805b601f850160051c820191505b81811015620001b0578281556001016200019b565b5050505b505050565b81516001600160401b03811115620001d557620001d562000119565b620001ed81620001e684546200012d565b8462000167565b602080601f83116001811462000223575f84156200020b5750858301515b5f19600386901b1c1916600185901b178555620001b0565b5f85815260208120601f198616915b82811015620002535788860151825594840194600190910190840162000232565b50858210156200027157878501515f19600388901b60f8161c191681555b5050505050600190811b01905550565b61124a806200028f5f395ff3fe608060405234801561000f575f80fd5b5060043610610106575f3560e01c8063397151ea1161009e5780639cd441da1161006e5780639cd441da14610237578063a9059cbb1461024a578063b76162d71461025d578063dd62ed3e14610266578063ff1a277c1461029e575f80fd5b8063397151ea146101d657806370a08231146101df57806395d89b41146102075780639c8f9f231461020f575f80fd5b80631c09b721116100d95780631c09b7211461017457806323b872dd1461019f5780632aea6605146101b2578063313ce567146101c7575f80fd5b806306fdde031461010a578063095ea7b31461012857806311106ee21461014b57806318160ddd1461016c575b5f80fd5b6101126102b1565b60405161011f9190610f53565b60405180910390f35b61013b610136366004610fb4565b610341565b604051901515815260200161011f565b61015e610159366004610fec565b61035a565b60405190815260200161011f565b60035461015e565b600654610187906001600160a01b031681565b6040516001600160a01b03909116815260200161011f565b61013b6101ad36600461101a565b610409565b6101c56101c0366004610fec565b61042c565b005b6040516012815260200161011f565b61015e60085481565b61015e6101ed366004611053565b6001600160a01b03165f9081526001602052604090205490565b610112610734565b61022261021d366004611073565b610743565b6040805192835260208301919091520161011f565b61015e61024536600461108a565b61093f565b61013b610258366004610fb4565b610b65565b61015e60095481565b61015e6102743660046110aa565b6001600160a01b039182165f90815260026020908152604080832093909416825291909152205490565b600754610187906001600160a01b031681565b6060600480546102c0906110db565b80601f01602080910402602001604051908101604052809291908181526020018280546102ec906110db565b80156103375780601f1061030e57610100808354040283529160200191610337565b820191905f5260205f20905b81548152906001019060200180831161031a57829003601f168201915b5050505050905090565b5f3361034e818585610b72565b60019150505b92915050565b5f80826103695760095461036d565b6008545b90505f8361037d57600854610381565b6009545b90505f8211801561039157505f81115b6103da5760405162461bcd60e51b8152602060048201526015602482015274496e73756666696369656e7420726573657276657360581b60448201526064015b60405180910390fd5b5f6103e58683611121565b90505f6103f28785611138565b90506103fe818361114b565b979650505050505050565b5f33610416858285610b84565b610421858585610c00565b506001949350505050565b610434610c5d565b5f82116104745760405162461bcd60e51b815260206004820152600e60248201526d125b9d985b1a5908185b5bdd5b9d60921b60448201526064016103d1565b5f61047f838361035a565b905081156105d9576006546040516323b872dd60e01b81526001600160a01b03909116906323b872dd906104bb9033903090889060040161116a565b6020604051808303815f875af11580156104d7573d5f803e3d5ffd5b505050506040513d601f19601f820116820180604052508101906104fb919061118e565b6105175760405162461bcd60e51b81526004016103d1906111a9565b60075460405163a9059cbb60e01b8152336004820152602481018390526001600160a01b039091169063a9059cbb906044016020604051808303815f875af1158015610565573d5f803e3d5ffd5b505050506040513d601f19601f82011682018060405250810190610589919061118e565b6105a55760405162461bcd60e51b81526004016103d1906111d5565b8260085f8282546105b69190611138565b925050819055508060095f8282546105ce9190611201565b909155506107269050565b6007546040516323b872dd60e01b81526001600160a01b03909116906323b872dd9061060d9033903090889060040161116a565b6020604051808303815f875af1158015610629573d5f803e3d5ffd5b505050506040513d601f19601f8201168201806040525081019061064d919061118e565b6106695760405162461bcd60e51b81526004016103d1906111d5565b60065460405163a9059cbb60e01b8152336004820152602481018390526001600160a01b039091169063a9059cbb906044016020604051808303815f875af11580156106b7573d5f803e3d5ffd5b505050506040513d601f19601f820116820180604052508101906106db919061118e565b6106f75760405162461bcd60e51b81526004016103d1906111a9565b8260095f8282546107089190611138565b925050819055508060085f8282546107209190611201565b90915550505b5061073060015f55565b5050565b6060600580546102c0906110db565b335f9081526001602052604081205481908311156107a35760405162461bcd60e51b815260206004820152601760248201527f496e73756666696369656e74204c502062616c616e636500000000000000000060448201526064016103d1565b5f6107ad60035490565b905080600854856107be9190611121565b6107c8919061114b565b925080600954856107d99190611121565b6107e3919061114b565b91506107ef3385610c85565b8260085f8282546108009190611201565b925050819055508160095f8282546108189190611201565b909155505060065460405163a9059cbb60e01b8152336004820152602481018590526001600160a01b039091169063a9059cbb906044016020604051808303815f875af115801561086b573d5f803e3d5ffd5b505050506040513d601f19601f8201168201806040525081019061088f919061118e565b6108ab5760405162461bcd60e51b81526004016103d1906111a9565b60075460405163a9059cbb60e01b8152336004820152602481018490526001600160a01b039091169063a9059cbb906044016020604051808303815f875af11580156108f9573d5f803e3d5ffd5b505050506040513d601f19601f8201168201806040525081019061091d919061118e565b6109395760405162461bcd60e51b81526004016103d1906111d5565b50915091565b6006546040516323b872dd60e01b81525f916001600160a01b0316906323b872dd906109739033903090889060040161116a565b6020604051808303815f875af115801561098f573d5f803e3d5ffd5b505050506040513d601f19601f820116820180604052508101906109b3919061118e565b6109cf5760405162461bcd60e51b81526004016103d1906111a9565b6007546040516323b872dd60e01b81526001600160a01b03909116906323b872dd90610a039033903090879060040161116a565b6020604051808303815f875af1158015610a1f573d5f803e3d5ffd5b505050506040513d601f19601f82011682018060405250810190610a43919061118e565b610a5f5760405162461bcd60e51b81526004016103d1906111d5565b5f610a6960035490565b9050805f03610a8b57610a84610a7f8486611121565b610cb9565b9150610ad6565b6008545f90610a9a8387611121565b610aa4919061114b565b90505f6009548386610ab69190611121565b610ac0919061114b565b9050808210610acf5780610ad1565b815b935050505b5f8211610b255760405162461bcd60e51b815260206004820152601d60248201527f496e73756666696369656e74206c6971756964697479206d696e74656400000060448201526064016103d1565b610b2f3383610d27565b8360085f828254610b409190611138565b925050819055508260095f828254610b589190611138565b9091555091949350505050565b5f3361034e818585610c00565b610b7f8383836001610d5b565b505050565b6001600160a01b038381165f908152600260209081526040808320938616835292905220545f19811015610bfa5781811015610bec57604051637dc7a0d960e11b81526001600160a01b038416600482015260248101829052604481018390526064016103d1565b610bfa84848484035f610d5b565b50505050565b6001600160a01b038316610c2957604051634b637e8f60e11b81525f60048201526024016103d1565b6001600160a01b038216610c525760405163ec442f0560e01b81525f60048201526024016103d1565b610b7f838383610e2d565b60025f5403610c7f57604051633ee5aeb560e01b815260040160405180910390fd5b60025f55565b6001600160a01b038216610cae57604051634b637e8f60e11b81525f60048201526024016103d1565b610730825f83610e2d565b5f6003821115610d185750805f610cd160028361114b565b610cdc906001611138565b90505b81811015610d1257905080600281610cf7818661114b565b610d019190611138565b610d0b919061114b565b9050610cdf565b50919050565b8115610d22575060015b919050565b6001600160a01b038216610d505760405163ec442f0560e01b81525f60048201526024016103d1565b6107305f8383610e2d565b6001600160a01b038416610d845760405163e602df0560e01b81525f60048201526024016103d1565b6001600160a01b038316610dad57604051634a1406b160e11b81525f60048201526024016103d1565b6001600160a01b038085165f9081526002602090815260408083209387168352929052208290558015610bfa57826001600160a01b0316846001600160a01b03167f8c5be1e5ebec7d5bd14f71427d1e84f3dd0314c0f7b2291e5b200ac8c7c3b92584604051610e1f91815260200190565b60405180910390a350505050565b6001600160a01b038316610e57578060035f828254610e4c9190611138565b90915550610ec79050565b6001600160a01b0383165f9081526001602052604090205481811015610ea95760405163391434e360e21b81526001600160a01b038516600482015260248101829052604481018390526064016103d1565b6001600160a01b0384165f9081526001602052604090209082900390555b6001600160a01b038216610ee357600380548290039055610f01565b6001600160a01b0382165f9081526001602052604090208054820190555b816001600160a01b0316836001600160a01b03167fddf252ad1be2c89b69c2b068fc378daa952ba7f163c4a11628f55a4df523b3ef83604051610f4691815260200190565b60405180910390a3505050565b5f6020808352835180828501525f5b81811015610f7e57858101830151858201604001528201610f62565b505f604082860101526040601f19601f8301168501019250505092915050565b80356001600160a01b0381168114610d22575f80fd5b5f8060408385031215610fc5575f80fd5b610fce83610f9e565b946020939093013593505050565b8015158114610fe9575f80fd5b50565b5f8060408385031215610ffd575f80fd5b82359150602083013561100f81610fdc565b809150509250929050565b5f805f6060848603121561102c575f80fd5b61103584610f9e565b925061104360208501610f9e565b9150604084013590509250925092565b5f60208284031215611063575f80fd5b61106c82610f9e565b9392505050565b5f60208284031215611083575f80fd5b5035919050565b5f806040838503121561109b575f80fd5b50508035926020909101359150565b5f80604083850312156110bb575f80fd5b6110c483610f9e565b91506110d260208401610f9e565b90509250929050565b600181811c908216806110ef57607f821691505b602082108103610d1257634e487b7160e01b5f52602260045260245ffd5b634e487b7160e01b5f52601160045260245ffd5b80820281158282048414176103545761035461110d565b808201808211156103545761035461110d565b5f8261116557634e487b7160e01b5f52601260045260245ffd5b500490565b6001600160a01b039384168152919092166020820152604081019190915260600190565b5f6020828403121561119e575f80fd5b815161106c81610fdc565b602080825260129082015271151c985b9cd9995c8814d24819985a5b195960721b604082015260600190565b602080825260129082015271151c985b9cd9995c881393c819985a5b195960721b604082015260600190565b818103818111156103545761035461110d56fea2646970667358221220ff3112d1518334bc12980775d6941413a94bb51eed9b58e52d5d86e0fc9bdd9d64736f6c63430008150033",
  "immutableReferences": {},
  "source": "// SPDX-License-Identifier: MIT\r\npragma solidity ^0.8.0;\r\n\r\nimport \"@openzeppelin/contracts/token/ERC20/ERC20.sol\";\r\nimport \"@openzeppelin/contracts/token/ERC20/IERC20.sol\";\r\nimport \"@openzeppelin/contracts/utils/ReentrancyGuard.sol\";\r\n\r\ncontract SimpleAMM is ReentrancyGuard, ERC20 {\r\n    IERC20 public tokenSI;\r\n    IERC20 public tokenNO;\r\n\r\n    uint256 public reserveSI;\r\n    uint256 public reserveNO;\r\n\r\n    constructor(address _tokenSI, address _tokenNO) ERC20(\"Magen LP\", \"MLP\") {\r\n        tokenSI = IERC20(_tokenSI);\r\n        tokenNO = IERC20(_tokenNO);\r\n    }\r\n\r\n    function addLiquidity(uint256 amountSI, uint256 amountNO) external returns (uint256 liquidity) {\r\n        require(tokenSI.transferFrom(msg.sender, address(this), amountSI), \"Transfer SI failed\");\r\n        require(tokenNO.transferFrom(msg.sender, address(this), amountNO), \"Transfer NO failed\");\r\n\r\n        uint256 _totalSupply = totalSupply();\r\n        if (_totalSupply == 0) {\r\n            liquidity = sqrt(amountSI * amountNO);\r\n        } else {\r\n            uint256 liqSI = (amountSI * _totalSupply) / reserveSI;\r\n            uint256 liqNO = (amountNO * _totalSupply) / reserveNO;\r\n            liquidity = liqSI < liqNO ? liqSI : liqNO;\r\n        }\r\n        \r\n        require(liquidity > 0, \"Insufficient liquidity minted\");\r\n        _mint(msg.sender, liquidity);\r\n\r\n        reserveSI += amountSI;\r\n        reserveNO += amountNO;\r\n    }\r\n\r\n    function removeLiquidity(uint256 liquidity) external returns (uint256 amountSI, uint256 amountNO) {\r\n        require(balanceOf(msg.sender) >= liquidity, \"Insufficient LP balance\");\r\n        \r\n        uint256 _totalSupply = totalSupply();\r\n        amountSI = (liquidity * reserveSI) / _totalSupply;\r\n        amountNO = (liquidity * reserveNO) / _totalSupply;\r\n        \r\n        _burn(msg.sender, liquidity);\r\n        \r\n        reserveSI -= amountSI;\r\n        reserveNO -= amountNO;\r\n\r\n        require(tokenSI.transfer(msg.sender, amountSI), \"Transfer SI failed\");\r\n        require(tokenNO.transfer(msg.sender, amountNO), \"Transfer NO failed\");\r\n    }\r\n\r\n    function sqrt(uint256 y) internal pure returns (uint256 z) {\r\n        if (y > 3) {\r\n            z = y;\r\n            uint256 x = y / 2 + 1;\r\n            while (x < z) {\r\n                z = x;\r\n                x = (y / x + x) / 2;\r\n            }\r\n        } else if (y != 0) {\r\n            z = 1;\r\n        }\r\n    }\r\n\r\n    function getAmountOut(uint256 amountIn, bool isSIIn) public view returns (uint256) {\r\n        // XY = K\r\n        // (x + dx)(y - dy) = xy\r\n        // dy = y(dx / (x + dx))\r\n        \r\n        uint256 reserveIn = isSIIn ? reserveSI : reserveNO;\r\n        uint256 reserveOut = isSIIn ? reserveNO : reserveSI;\r\n\r\n        require(reserveIn > 0 && reserveOut > 0, \"Insufficient reserves\");\r\n\r\n        uint256 numerator = reserveOut * amountIn;\r\n        uint256 denominator = reserveIn + amountIn;\r\n        return numerator / denominator;\r\n    }\r\n\r\n    function swap(uint256 amountIn, bool isSIIn) external nonReentrant {\r\n        require(amountIn > 0, \"Invalid amount\");\r\n\r\n        uint256 amountOut = getAmountOut(amountIn, isSIIn);\r\n\r\n        if (isSIIn) {\r\n             require(tokenSI.transferFrom(msg.sender, address(this), amountIn), \"Transfer SI failed\");\r\n             require(tokenNO.transfer(msg.sender, amountOut), \"Transfer NO failed\");\r\n             reserveSI += amountIn;\r\n             reserveNO -= amountOut;\r\n        } else {\r\n             require(tokenNO.transferFrom(msg.sender, address(this), amountIn), \"Transfer NO failed\");\r\n             require(tokenSI.transfer(msg.sender, amountOut), \"Transfer SI failed\");\r\n             reserveNO += amountIn;\r\n             reserveSI -= amountOut;\r\n        }\r\n    }\r\n}\r\n",
  "sourcePath": "C:\\Users\\hanti\\Desktop\\Magen-Protocol\\contracts\\SimpleAMM.sol",
  "compiler": {
    "name": "solc",
    "version": "0.8.21+commit.d9974bed.Emscripten.clang"
  },
  "schemaVersion": "3.4.16",
  "updatedAt": "2026-02-10T02:05:37.293Z",
  "devdoc": {
    "errors": {
      "ERC20InsufficientAllowance(address,uint256,uint256)": [
        {
          "details": "Indicates a failure with the `spender`s `allowance`. Used in transfers.",
          "params": {
            "allowance": "Amount of tokens a `spender` is allowed to operate with.",
            "needed": "Minimum amount required to perform a transfer.",
            "spender": "Address that may be allowed to operate on tokens without being their owner."
          }
        }
      ],
      "ERC20InsufficientBalance(address,uint256,uint256)": [
        {
          "details": "Indicates an error related to the current `balance` of a `sender`. Used in transfers.",
          "params": {
            "balance": "Current balance for the interacting account.",
            "needed": "Minimum amount required to perform a transfer.",
            "sender": "Address whose tokens are being transferred."
          }
        }
      ],
      "ERC20InvalidApprover(address)": [
        {
          "details": "Indicates a failure with the `approver` of a token to be approved. Used in approvals.",
          "params": {
            "approver": "Address initiating an approval operation."
          }
        }
      ],
      "ERC20InvalidReceiver(address)": [
        {
          "details": "Indicates a failure with the token `receiver`. Used in transfers.",
          "params": {
            "receiver": "Address to which tokens are being transferred."
          }
        }
      ],
      "ERC20InvalidSender(address)": [
        {
          "details": "Indicates a failure with the token `sender`. Used in transfers.",
          "params": {
            "sender": "Address whose tokens are being transferred."
          }
        }
      ],
      "ERC20InvalidSpender(address)": [
        {
          "details": "Indicates a failure with the `spender` to be approved. Used in approvals.",
          "params": {
            "spender": "Address that may be allowed to operate on tokens without being their owner."
          }
        }
      ],
      "ReentrancyGuardReentrantCall()": [
        {
          "details": "Unauthorized reentrant call."
        }
      ]
    },
    "events": {
      "Approval(address,address,uint256)": {
        "details": "Emitted when the allowance of a `spender` for an `owner` is set by a call to {approve}. `value` is the new allowance."
      },
      "Transfer(address,address,uint256)": {
        "details": "Emitted when `value` tokens are moved from one account (`from`) to another (`to`). Note that `value` may be zero."
      }
    },
    "kind": "dev",
    "methods": {
      "allowance(address,address)": {
        "details": "Returns the remaining number of tokens that `spender` will be allowed to spend on behalf of `owner` through {transferFrom}. This is zero by default. This value changes when {approve} or {transferFrom} are called."
      },
      "approve(address,uint256)": {
        "details": "See {IERC20-approve}. NOTE: If `value` is the maximum `uint256`, the allowance is not updated on `transferFrom`. This is semantically equivalent to an infinite approval. Requirements: - `spender` cannot be the zero address."
      },
      "balanceOf(address)": {
        "details": "Returns the value of tokens owned by `account`."
      },
      "decimals()": {
        "details": "Returns the number of decimals used to get its user representation. For example, if `decimals` equals `2`, a balance of `505` tokens should be displayed to a user as `5.05` (`505 / 10 ** 2`). Tokens usually opt for a value of 18, imitating the relationship between Ether and Wei. This is the default value returned by this function, unless it's overridden. NOTE: This information is only used for _display_ purposes: it in no way affects any of the arithmetic of the contract, including {IERC20-balanceOf} and {IERC20-transfer}."
      },
      "name()": {
        "details": "Returns the name of the token."
      },
      "symbol()": {
        "details": "Returns the symbol of the token, usually a shorter version of the name."
      },
      "totalSupply()": {
        "details": "Returns the value of tokens in existence."
      },
      "transfer(address,uint256)": {
        "details": "See {IERC20-transfer}. Requirements: - `to` cannot be the zero address. - the caller must have a balance of at least `value`."
      },
      "transferFrom(address,address,uint256)": {
        "details": "See {IERC20-transferFrom}. Skips emitting an {Approval} event indicating an allowance update. This is not required by the ERC. See {xref-ERC20-_approve-address-address-uint256-bool-}[_approve]. NOTE: Does not update the allowance if the current allowance is the maximum `uint256`. Requirements: - `from` and `to` cannot be the zero address. - `from` must have a balance of at least `value`. - the caller must have allowance for ``from``'s tokens of at least `value`."
      }
    },
    "version": 1
  },
  "userdoc": {
    "kind": "user",
    "methods": {},
    "version": 1
  }
}